{
  "contractName": "BeStakedMarketV1",
  "abi": [
    {
      "inputs": [
        {
          "internalType": "contract IERC20",
          "name": "paymentContract",
          "type": "address"
        }
      ],
      "stateMutability": "nonpayable",
      "type": "constructor"
    },
    {
      "inputs": [],
      "name": "ListingIdCounter",
      "outputs": [
        {
          "internalType": "uint256",
          "name": "",
          "type": "uint256"
        }
      ],
      "stateMutability": "view",
      "type": "function",
      "constant": true
    },
    {
      "inputs": [],
      "name": "PaymentContract",
      "outputs": [
        {
          "internalType": "contract IERC20",
          "name": "",
          "type": "address"
        }
      ],
      "stateMutability": "view",
      "type": "function",
      "constant": true
    },
    {
      "inputs": [
        {
          "internalType": "uint256",
          "name": "principal",
          "type": "uint256"
        },
        {
          "internalType": "uint256",
          "name": "fee",
          "type": "uint256"
        },
        {
          "internalType": "address",
          "name": "collector",
          "type": "address"
        }
      ],
      "name": "chargeFee",
      "outputs": [
        {
          "internalType": "uint256",
          "name": "newPrincipal",
          "type": "uint256"
        }
      ],
      "stateMutability": "nonpayable",
      "type": "function"
    },
    {
      "inputs": [],
      "name": "redeemFees",
      "outputs": [],
      "stateMutability": "nonpayable",
      "type": "function"
    },
    {
      "inputs": [
        {
          "internalType": "address",
          "name": "",
          "type": "address"
        }
      ],
      "name": "redeemableFees",
      "outputs": [
        {
          "internalType": "uint256",
          "name": "",
          "type": "uint256"
        }
      ],
      "stateMutability": "view",
      "type": "function",
      "constant": true
    },
    {
      "inputs": [
        {
          "internalType": "contract ERC721",
          "name": "objectContract",
          "type": "address"
        },
        {
          "internalType": "uint256",
          "name": "objectTokenId",
          "type": "uint256"
        },
        {
          "internalType": "uint256",
          "name": "price",
          "type": "uint256"
        }
      ],
      "name": "ListERC721",
      "outputs": [],
      "stateMutability": "nonpayable",
      "type": "function"
    },
    {
      "inputs": [
        {
          "internalType": "contract ERC20",
          "name": "objectContract",
          "type": "address"
        },
        {
          "internalType": "uint256",
          "name": "amount",
          "type": "uint256"
        },
        {
          "internalType": "uint256",
          "name": "price",
          "type": "uint256"
        }
      ],
      "name": "ListERC20",
      "outputs": [],
      "stateMutability": "nonpayable",
      "type": "function"
    },
    {
      "inputs": [
        {
          "internalType": "uint256",
          "name": "listingId",
          "type": "uint256"
        },
        {
          "internalType": "uint256",
          "name": "newPrice",
          "type": "uint256"
        }
      ],
      "name": "UpdatePrice",
      "outputs": [],
      "stateMutability": "nonpayable",
      "type": "function"
    },
    {
      "inputs": [
        {
          "internalType": "uint256",
          "name": "listingId",
          "type": "uint256"
        }
      ],
      "name": "RemoveListing",
      "outputs": [],
      "stateMutability": "nonpayable",
      "type": "function"
    },
    {
      "inputs": [
        {
          "internalType": "uint256",
          "name": "listingId",
          "type": "uint256"
        }
      ],
      "name": "Buy",
      "outputs": [],
      "stateMutability": "nonpayable",
      "type": "function"
    }
  ],
  "bytecode": "0x6080604052600160025534801561001557600080fd5b5060405161056838038061056883398101604081905261003491610059565b600080546001600160a01b0319166001600160a01b0392909216919091179055610087565b60006020828403121561006a578081fd5b81516001600160a01b0381168114610080578182fd5b9392505050565b6104d2806100966000396000f3fe608060405234801561001057600080fd5b506004361061009e5760003560e01c8063b33fa8be11610066578063b33fa8be1461010f578063ca84ca6d146100ad578063ce8429121461011d578063e6d8e2f614610132578063fda1094e1461013a5761009e565b80633a047bb3146100a35780633e328218146100ad578063619eea00146100c05780638b46ca78146100e95780638b49109c146100fc575b600080fd5b6100ab61014d565b005b6100ab6100bb366004610364565b61022a565b6100d36100ce36600461039d565b61022d565b6040516100e09190610439565b60405180910390f35b6100ab6100f736600461031c565b6102b4565b6100ab61010a36600461037c565b610226565b6100ab6100f7366004610350565b6101256102b9565b6040516100e091906103ee565b6100d36102c8565b6100d36101483660046102e0565b6102ce565b33600081815260016020526040902054806101835760405162461bcd60e51b815260040161017a90610402565b60405180910390fd5b60005460405163a9059cbb60e01b81526001600160a01b039091169063a9059cbb906101b590859085906004016103d5565b602060405180830381600087803b1580156101cf57600080fd5b505af11580156101e3573d6000803e3d6000fd5b505050506040513d601f19601f8201168201806040525081019061020791906102fc565b15610226576001600160a01b0382166000908152600160205260408120555b5050565b50565b600083831115801561023f5750600083115b801561025357506001600160a01b03821615155b156102aa576001600160a01b03821660009081526001602052604090205461027b8482610442565b6001600160a01b038416600090815260016020526040902081905590506102a2848661045a565b9150506102ad565b50825b9392505050565b505050565b6000546001600160a01b031681565b60025481565b60016020526000908152604090205481565b6000602082840312156102f1578081fd5b81356102ad81610487565b60006020828403121561030d578081fd5b815180151581146102ad578182fd5b600080600060608486031215610330578182fd5b833561033b81610487565b95602085013595506040909401359392505050565b600080600060608486031215610330578283fd5b600060208284031215610375578081fd5b5035919050565b6000806040838503121561038e578182fd5b50508035926020909101359150565b6000806000606084860312156103b1578283fd5b833592506020840135915060408401356103ca81610487565b809150509250925092565b6001600160a01b03929092168252602082015260400190565b6001600160a01b0391909116815260200190565b60208082526011908201527f6e6f206665657320746f2072656465656d000000000000000000000000000000604082015260600190565b90815260200190565b6000821982111561045557610455610471565b500190565b60008282101561046c5761046c610471565b500390565b634e487b7160e01b600052601160045260246000fd5b6001600160a01b038116811461022a57600080fdfea2646970667358221220641b18fdd87aecd4dc106378c387bf185843e1c49410d873c5d0eb233e44428c64736f6c63430008000033",
  "immutableReferences": {},
  "source": "// SPDX-License-Identifier: BeStaked.com\r\n pragma solidity ^0.8.0;\r\nimport \"../ethereum-erc721/tokens/erc721.sol\";\r\nimport \"../ethereum-erc721/tokens/nf-token-enumerable.sol\";\r\nimport \"../ERC20/IERC20.sol\";\r\nimport \"../Stakeable/IStakeable.sol\";\r\nimport \"../Fees/FeeCollectorBase.sol\";\r\nabstract contract ERC20SettledMarket is FeeCollectorBase{\r\n    uint256 public ListingIdCounter = 1;    \r\n}\r\ncontract BeStakedMarketV1 is ERC20SettledMarket{\r\n    constructor(IERC20 paymentContract)\r\n    FeeCollectorBase(paymentContract){}\r\n    function ListERC721(ERC721 objectContract, uint256 objectTokenId, uint256 price)external{}\r\n    function ListERC20(ERC20 objectContract, uint256 amount, uint256 price)external{}\r\n    function UpdatePrice(uint256 listingId, uint256 newPrice)external{}\r\n    function RemoveListing(uint256 listingId)external{}\r\n    function Buy(uint256 listingId)external{}\r\n}",
  "sourcePath": "C:/Users/ulvei/source/bestaked/Bestaked Blockchain/contracts/Trading/StakeMarket.sol",
  "compiler": {
    "name": "solc",
    "version": "0.8.0+commit.c7dfd78e.Emscripten.clang"
  },
  "schemaVersion": "3.4.0",
  "updatedAt": "2021-07-29T12:10:23.868Z",
  "networkType": "ethereum",
  "devdoc": {
    "kind": "dev",
    "methods": {},
    "version": 1
  },
  "userdoc": {
    "kind": "user",
    "methods": {},
    "version": 1
  }
}