{
  "contractName": "PortableStakePerformanceTesting",
  "abi": [
    {
      "inputs": [
        {
          "internalType": "contract StakeableToken",
          "name": "stakeableTokenContract",
          "type": "address"
        },
        {
          "internalType": "uint8",
          "name": "minStakeDays",
          "type": "uint8"
        },
        {
          "internalType": "uint16",
          "name": "maxStakeDays",
          "type": "uint16"
        }
      ],
      "stateMutability": "nonpayable",
      "type": "constructor"
    },
    {
      "anonymous": false,
      "inputs": [
        {
          "indexed": true,
          "internalType": "address",
          "name": "_owner",
          "type": "address"
        },
        {
          "indexed": true,
          "internalType": "address",
          "name": "_approved",
          "type": "address"
        },
        {
          "indexed": true,
          "internalType": "uint256",
          "name": "_tokenId",
          "type": "uint256"
        }
      ],
      "name": "Approval",
      "type": "event"
    },
    {
      "anonymous": false,
      "inputs": [
        {
          "indexed": true,
          "internalType": "address",
          "name": "_owner",
          "type": "address"
        },
        {
          "indexed": true,
          "internalType": "address",
          "name": "_operator",
          "type": "address"
        },
        {
          "indexed": false,
          "internalType": "bool",
          "name": "_approved",
          "type": "bool"
        }
      ],
      "name": "ApprovalForAll",
      "type": "event"
    },
    {
      "anonymous": false,
      "inputs": [
        {
          "indexed": true,
          "internalType": "address",
          "name": "previousOwner",
          "type": "address"
        },
        {
          "indexed": true,
          "internalType": "address",
          "name": "newOwner",
          "type": "address"
        }
      ],
      "name": "OwnershipTransferred",
      "type": "event"
    },
    {
      "anonymous": false,
      "inputs": [
        {
          "indexed": false,
          "internalType": "uint256",
          "name": "tokenId",
          "type": "uint256"
        },
        {
          "indexed": false,
          "internalType": "uint256",
          "name": "stakeId",
          "type": "uint256"
        },
        {
          "indexed": false,
          "internalType": "address",
          "name": "owner",
          "type": "address"
        },
        {
          "indexed": false,
          "internalType": "address",
          "name": "actor",
          "type": "address"
        },
        {
          "indexed": false,
          "internalType": "uint256",
          "name": "stakedAmount",
          "type": "uint256"
        },
        {
          "indexed": false,
          "internalType": "uint256",
          "name": "unStakedAmount",
          "type": "uint256"
        },
        {
          "indexed": false,
          "internalType": "uint256",
          "name": "actorRewardAmount",
          "type": "uint256"
        },
        {
          "indexed": false,
          "internalType": "uint256",
          "name": "returnedToOwnerAmount",
          "type": "uint256"
        },
        {
          "indexed": false,
          "internalType": "uint16",
          "name": "startDay",
          "type": "uint16"
        },
        {
          "indexed": false,
          "internalType": "uint16",
          "name": "stakeLength",
          "type": "uint16"
        },
        {
          "indexed": false,
          "internalType": "uint8",
          "name": "lateDays",
          "type": "uint8"
        }
      ],
      "name": "PortableStakeEnd",
      "type": "event"
    },
    {
      "anonymous": false,
      "inputs": [
        {
          "indexed": false,
          "internalType": "uint256",
          "name": "tokenId",
          "type": "uint256"
        },
        {
          "indexed": false,
          "internalType": "uint256",
          "name": "stakeId",
          "type": "uint256"
        },
        {
          "indexed": false,
          "internalType": "address",
          "name": "owner",
          "type": "address"
        },
        {
          "indexed": false,
          "internalType": "uint256",
          "name": "feeAmount",
          "type": "uint256"
        },
        {
          "indexed": false,
          "internalType": "uint256",
          "name": "stakedAmount",
          "type": "uint256"
        },
        {
          "indexed": false,
          "internalType": "uint16",
          "name": "stakeLength",
          "type": "uint16"
        },
        {
          "indexed": false,
          "internalType": "uint8",
          "name": "rewardStretching",
          "type": "uint8"
        }
      ],
      "name": "PortableStakeStart",
      "type": "event"
    },
    {
      "anonymous": false,
      "inputs": [
        {
          "indexed": true,
          "internalType": "address",
          "name": "_from",
          "type": "address"
        },
        {
          "indexed": true,
          "internalType": "address",
          "name": "_to",
          "type": "address"
        },
        {
          "indexed": true,
          "internalType": "uint256",
          "name": "_tokenId",
          "type": "uint256"
        }
      ],
      "name": "Transfer",
      "type": "event"
    },
    {
      "inputs": [],
      "name": "DEFAULT_REWARD_STRETCHING",
      "outputs": [
        {
          "internalType": "uint8",
          "name": "",
          "type": "uint8"
        }
      ],
      "stateMutability": "view",
      "type": "function"
    },
    {
      "inputs": [],
      "name": "Domain",
      "outputs": [
        {
          "internalType": "string",
          "name": "",
          "type": "string"
        }
      ],
      "stateMutability": "view",
      "type": "function"
    },
    {
      "inputs": [],
      "name": "MAX_OWNER_FEE_PERMILLE",
      "outputs": [
        {
          "internalType": "uint8",
          "name": "",
          "type": "uint8"
        }
      ],
      "stateMutability": "view",
      "type": "function"
    },
    {
      "inputs": [],
      "name": "MAX_REFERRAL_FEE_PERMILLE",
      "outputs": [
        {
          "internalType": "uint8",
          "name": "",
          "type": "uint8"
        }
      ],
      "stateMutability": "view",
      "type": "function"
    },
    {
      "inputs": [],
      "name": "MAX_REWARD_STRETCHING",
      "outputs": [
        {
          "internalType": "uint8",
          "name": "",
          "type": "uint8"
        }
      ],
      "stateMutability": "view",
      "type": "function"
    },
    {
      "inputs": [],
      "name": "MIN_REWARD_STRETCHING",
      "outputs": [
        {
          "internalType": "uint8",
          "name": "",
          "type": "uint8"
        }
      ],
      "stateMutability": "view",
      "type": "function"
    },
    {
      "inputs": [],
      "name": "Name",
      "outputs": [
        {
          "internalType": "string",
          "name": "",
          "type": "string"
        }
      ],
      "stateMutability": "view",
      "type": "function"
    },
    {
      "inputs": [],
      "name": "OWNER_FEE_PERMILLE",
      "outputs": [
        {
          "internalType": "uint8",
          "name": "",
          "type": "uint8"
        }
      ],
      "stateMutability": "view",
      "type": "function"
    },
    {
      "inputs": [],
      "name": "PaymentContract",
      "outputs": [
        {
          "internalType": "contract IERC20",
          "name": "",
          "type": "address"
        }
      ],
      "stateMutability": "view",
      "type": "function"
    },
    {
      "inputs": [],
      "name": "StakeableTokenContract",
      "outputs": [
        {
          "internalType": "contract StakeableToken",
          "name": "",
          "type": "address"
        }
      ],
      "stateMutability": "view",
      "type": "function"
    },
    {
      "inputs": [],
      "name": "Symbol",
      "outputs": [
        {
          "internalType": "string",
          "name": "",
          "type": "string"
        }
      ],
      "stateMutability": "view",
      "type": "function"
    },
    {
      "inputs": [],
      "name": "TokenIdCounter",
      "outputs": [
        {
          "internalType": "uint256",
          "name": "",
          "type": "uint256"
        }
      ],
      "stateMutability": "view",
      "type": "function"
    },
    {
      "inputs": [
        {
          "components": [
            {
              "internalType": "address",
              "name": "owner",
              "type": "address"
            },
            {
              "internalType": "address",
              "name": "referrer",
              "type": "address"
            },
            {
              "internalType": "uint256",
              "name": "amount",
              "type": "uint256"
            },
            {
              "internalType": "uint256",
              "name": "fee",
              "type": "uint256"
            },
            {
              "internalType": "uint16",
              "name": "stakeDays",
              "type": "uint16"
            },
            {
              "internalType": "uint8",
              "name": "rewardStretching",
              "type": "uint8"
            }
          ],
          "internalType": "struct PortableStake.MintingInfo",
          "name": "info",
          "type": "tuple"
        }
      ],
      "name": "_checkInput",
      "outputs": [],
      "stateMutability": "view",
      "type": "function"
    },
    {
      "inputs": [
        {
          "internalType": "address",
          "name": "_approved",
          "type": "address"
        },
        {
          "internalType": "uint256",
          "name": "_tokenId",
          "type": "uint256"
        }
      ],
      "name": "approve",
      "outputs": [],
      "stateMutability": "nonpayable",
      "type": "function"
    },
    {
      "inputs": [
        {
          "internalType": "address",
          "name": "_owner",
          "type": "address"
        }
      ],
      "name": "balanceOf",
      "outputs": [
        {
          "internalType": "uint256",
          "name": "",
          "type": "uint256"
        }
      ],
      "stateMutability": "view",
      "type": "function"
    },
    {
      "inputs": [
        {
          "internalType": "uint256",
          "name": "principal",
          "type": "uint256"
        },
        {
          "internalType": "uint256",
          "name": "requestedReferrerFee",
          "type": "uint256"
        }
      ],
      "name": "calculateFees",
      "outputs": [
        {
          "internalType": "uint256",
          "name": "referrerFee",
          "type": "uint256"
        },
        {
          "internalType": "uint256",
          "name": "ownerFee",
          "type": "uint256"
        }
      ],
      "stateMutability": "view",
      "type": "function"
    },
    {
      "inputs": [
        {
          "internalType": "uint256",
          "name": "principal",
          "type": "uint256"
        },
        {
          "internalType": "uint8",
          "name": "waitedDays",
          "type": "uint8"
        },
        {
          "internalType": "uint8",
          "name": "rewardStretchingDays",
          "type": "uint8"
        }
      ],
      "name": "calculateReward",
      "outputs": [
        {
          "internalType": "uint256",
          "name": "rewardAmount",
          "type": "uint256"
        }
      ],
      "stateMutability": "pure",
      "type": "function"
    },
    {
      "inputs": [
        {
          "internalType": "uint256",
          "name": "principal",
          "type": "uint256"
        },
        {
          "internalType": "uint256",
          "name": "fee",
          "type": "uint256"
        },
        {
          "internalType": "address",
          "name": "collector",
          "type": "address"
        }
      ],
      "name": "chargeFee",
      "outputs": [
        {
          "internalType": "uint256",
          "name": "newPrincipal",
          "type": "uint256"
        }
      ],
      "stateMutability": "nonpayable",
      "type": "function"
    },
    {
      "inputs": [
        {
          "internalType": "uint256",
          "name": "_tokenId",
          "type": "uint256"
        }
      ],
      "name": "getApproved",
      "outputs": [
        {
          "internalType": "address",
          "name": "",
          "type": "address"
        }
      ],
      "stateMutability": "view",
      "type": "function"
    },
    {
      "inputs": [],
      "name": "getWrappedContract",
      "outputs": [
        {
          "internalType": "contract IERC20",
          "name": "",
          "type": "address"
        }
      ],
      "stateMutability": "view",
      "type": "function"
    },
    {
      "inputs": [
        {
          "internalType": "uint256",
          "name": "",
          "type": "uint256"
        }
      ],
      "name": "idToToken",
      "outputs": [
        {
          "internalType": "uint256",
          "name": "tokenId",
          "type": "uint256"
        },
        {
          "internalType": "uint256",
          "name": "stakeIndex",
          "type": "uint256"
        },
        {
          "internalType": "uint256",
          "name": "amount",
          "type": "uint256"
        },
        {
          "internalType": "uint40",
          "name": "stakeId",
          "type": "uint40"
        },
        {
          "internalType": "uint8",
          "name": "rewardStretching",
          "type": "uint8"
        }
      ],
      "stateMutability": "view",
      "type": "function"
    },
    {
      "inputs": [
        {
          "internalType": "address",
          "name": "_owner",
          "type": "address"
        },
        {
          "internalType": "address",
          "name": "_operator",
          "type": "address"
        }
      ],
      "name": "isApprovedForAll",
      "outputs": [
        {
          "internalType": "bool",
          "name": "",
          "type": "bool"
        }
      ],
      "stateMutability": "view",
      "type": "function"
    },
    {
      "inputs": [
        {
          "internalType": "uint256",
          "name": "amount",
          "type": "uint256"
        },
        {
          "internalType": "uint16",
          "name": "stakeDays",
          "type": "uint16"
        }
      ],
      "name": "mintCustomDays",
      "outputs": [],
      "stateMutability": "nonpayable",
      "type": "function"
    },
    {
      "inputs": [
        {
          "internalType": "uint256",
          "name": "amount",
          "type": "uint256"
        },
        {
          "internalType": "uint16",
          "name": "stakeDays",
          "type": "uint16"
        },
        {
          "internalType": "address",
          "name": "referrer",
          "type": "address"
        },
        {
          "internalType": "uint256",
          "name": "referralFee",
          "type": "uint256"
        },
        {
          "internalType": "uint8",
          "name": "rewardStretching",
          "type": "uint8"
        }
      ],
      "name": "mintCustomRewardStretching",
      "outputs": [],
      "stateMutability": "nonpayable",
      "type": "function"
    },
    {
      "inputs": [
        {
          "internalType": "uint256",
          "name": "amount",
          "type": "uint256"
        }
      ],
      "name": "mintMaxDays",
      "outputs": [],
      "stateMutability": "nonpayable",
      "type": "function"
    },
    {
      "inputs": [
        {
          "internalType": "uint256",
          "name": "amount",
          "type": "uint256"
        },
        {
          "internalType": "uint16",
          "name": "stakeDays",
          "type": "uint16"
        },
        {
          "internalType": "address",
          "name": "referrer",
          "type": "address"
        },
        {
          "internalType": "uint256",
          "name": "referralFee",
          "type": "uint256"
        }
      ],
      "name": "mintReferred",
      "outputs": [],
      "stateMutability": "nonpayable",
      "type": "function"
    },
    {
      "inputs": [],
      "name": "name",
      "outputs": [
        {
          "internalType": "string",
          "name": "_name",
          "type": "string"
        }
      ],
      "stateMutability": "view",
      "type": "function"
    },
    {
      "inputs": [],
      "name": "owner",
      "outputs": [
        {
          "internalType": "address",
          "name": "",
          "type": "address"
        }
      ],
      "stateMutability": "view",
      "type": "function"
    },
    {
      "inputs": [
        {
          "internalType": "uint256",
          "name": "_tokenId",
          "type": "uint256"
        }
      ],
      "name": "ownerOf",
      "outputs": [
        {
          "internalType": "address",
          "name": "_owner",
          "type": "address"
        }
      ],
      "stateMutability": "view",
      "type": "function"
    },
    {
      "inputs": [],
      "name": "redeemFees",
      "outputs": [],
      "stateMutability": "nonpayable",
      "type": "function"
    },
    {
      "inputs": [
        {
          "internalType": "address",
          "name": "",
          "type": "address"
        }
      ],
      "name": "redeemableFees",
      "outputs": [
        {
          "internalType": "uint256",
          "name": "",
          "type": "uint256"
        }
      ],
      "stateMutability": "view",
      "type": "function"
    },
    {
      "inputs": [],
      "name": "renounceOwnership",
      "outputs": [],
      "stateMutability": "nonpayable",
      "type": "function"
    },
    {
      "inputs": [
        {
          "internalType": "address",
          "name": "_from",
          "type": "address"
        },
        {
          "internalType": "address",
          "name": "_to",
          "type": "address"
        },
        {
          "internalType": "uint256",
          "name": "_tokenId",
          "type": "uint256"
        }
      ],
      "name": "safeTransferFrom",
      "outputs": [],
      "stateMutability": "nonpayable",
      "type": "function"
    },
    {
      "inputs": [
        {
          "internalType": "address",
          "name": "_from",
          "type": "address"
        },
        {
          "internalType": "address",
          "name": "_to",
          "type": "address"
        },
        {
          "internalType": "uint256",
          "name": "_tokenId",
          "type": "uint256"
        },
        {
          "internalType": "bytes",
          "name": "_data",
          "type": "bytes"
        }
      ],
      "name": "safeTransferFrom",
      "outputs": [],
      "stateMutability": "nonpayable",
      "type": "function"
    },
    {
      "inputs": [
        {
          "internalType": "address",
          "name": "_operator",
          "type": "address"
        },
        {
          "internalType": "bool",
          "name": "_approved",
          "type": "bool"
        }
      ],
      "name": "setApprovalForAll",
      "outputs": [],
      "stateMutability": "nonpayable",
      "type": "function"
    },
    {
      "inputs": [
        {
          "internalType": "string",
          "name": "n",
          "type": "string"
        },
        {
          "internalType": "string",
          "name": "s",
          "type": "string"
        },
        {
          "internalType": "string",
          "name": "d",
          "type": "string"
        },
        {
          "internalType": "uint8",
          "name": "ds",
          "type": "uint8"
        },
        {
          "internalType": "uint8",
          "name": "m",
          "type": "uint8"
        },
        {
          "internalType": "uint8",
          "name": "o",
          "type": "uint8"
        }
      ],
      "name": "setConstants",
      "outputs": [],
      "stateMutability": "nonpayable",
      "type": "function"
    },
    {
      "inputs": [
        {
          "internalType": "uint256",
          "name": "tokenId",
          "type": "uint256"
        }
      ],
      "name": "settle",
      "outputs": [],
      "stateMutability": "nonpayable",
      "type": "function"
    },
    {
      "inputs": [
        {
          "internalType": "bytes4",
          "name": "_interfaceID",
          "type": "bytes4"
        }
      ],
      "name": "supportsInterface",
      "outputs": [
        {
          "internalType": "bool",
          "name": "",
          "type": "bool"
        }
      ],
      "stateMutability": "view",
      "type": "function"
    },
    {
      "inputs": [],
      "name": "symbol",
      "outputs": [
        {
          "internalType": "string",
          "name": "_symbol",
          "type": "string"
        }
      ],
      "stateMutability": "view",
      "type": "function"
    },
    {
      "inputs": [
        {
          "internalType": "uint256",
          "name": "_index",
          "type": "uint256"
        }
      ],
      "name": "tokenByIndex",
      "outputs": [
        {
          "internalType": "uint256",
          "name": "",
          "type": "uint256"
        }
      ],
      "stateMutability": "view",
      "type": "function"
    },
    {
      "inputs": [
        {
          "internalType": "address",
          "name": "_owner",
          "type": "address"
        },
        {
          "internalType": "uint256",
          "name": "_index",
          "type": "uint256"
        }
      ],
      "name": "tokenOfOwnerByIndex",
      "outputs": [
        {
          "internalType": "uint256",
          "name": "",
          "type": "uint256"
        }
      ],
      "stateMutability": "view",
      "type": "function"
    },
    {
      "inputs": [
        {
          "internalType": "uint256",
          "name": "_tokenId",
          "type": "uint256"
        }
      ],
      "name": "tokenURI",
      "outputs": [
        {
          "internalType": "string",
          "name": "",
          "type": "string"
        }
      ],
      "stateMutability": "view",
      "type": "function"
    },
    {
      "inputs": [],
      "name": "totalSupply",
      "outputs": [
        {
          "internalType": "uint256",
          "name": "",
          "type": "uint256"
        }
      ],
      "stateMutability": "view",
      "type": "function"
    },
    {
      "inputs": [
        {
          "internalType": "address",
          "name": "_from",
          "type": "address"
        },
        {
          "internalType": "address",
          "name": "_to",
          "type": "address"
        },
        {
          "internalType": "uint256",
          "name": "_tokenId",
          "type": "uint256"
        }
      ],
      "name": "transferFrom",
      "outputs": [],
      "stateMutability": "nonpayable",
      "type": "function"
    },
    {
      "inputs": [
        {
          "internalType": "address",
          "name": "newOwner",
          "type": "address"
        }
      ],
      "name": "transferOwnership",
      "outputs": [],
      "stateMutability": "nonpayable",
      "type": "function"
    },
    {
      "inputs": [],
      "name": "wrappedName",
      "outputs": [
        {
          "internalType": "string",
          "name": "",
          "type": "string"
        }
      ],
      "stateMutability": "view",
      "type": "function"
    },
    {
      "inputs": [],
      "name": "wrappedSymbol",
      "outputs": [
        {
          "internalType": "string",
          "name": "",
          "type": "string"
        }
      ],
      "stateMutability": "view",
      "type": "function"
    },
    {
      "inputs": [],
      "name": "incrementTokenIdCounter",
      "outputs": [],
      "stateMutability": "nonpayable",
      "type": "function"
    },
    {
      "inputs": [
        {
          "internalType": "uint256",
          "name": "amount",
          "type": "uint256"
        },
        {
          "internalType": "uint16",
          "name": "stakeDays",
          "type": "uint16"
        }
      ],
      "name": "checkInput",
      "outputs": [],
      "stateMutability": "nonpayable",
      "type": "function"
    },
    {
      "inputs": [
        {
          "internalType": "address",
          "name": "owner",
          "type": "address"
        },
        {
          "internalType": "uint256",
          "name": "amount",
          "type": "uint256"
        }
      ],
      "name": "takePosession",
      "outputs": [],
      "stateMutability": "nonpayable",
      "type": "function"
    },
    {
      "inputs": [
        {
          "internalType": "uint40",
          "name": "stakeId",
          "type": "uint40"
        },
        {
          "internalType": "uint256",
          "name": "stakeIndex",
          "type": "uint256"
        },
        {
          "internalType": "uint8",
          "name": "stretch",
          "type": "uint8"
        },
        {
          "internalType": "address",
          "name": "owner",
          "type": "address"
        }
      ],
      "name": "mintToken",
      "outputs": [],
      "stateMutability": "nonpayable",
      "type": "function"
    },
    {
      "inputs": [
        {
          "internalType": "uint256",
          "name": "principal",
          "type": "uint256"
        },
        {
          "internalType": "uint256",
          "name": "requestedReferrerFee",
          "type": "uint256"
        },
        {
          "internalType": "address",
          "name": "referrer",
          "type": "address"
        }
      ],
      "name": "calculateAndChargeFees",
      "outputs": [],
      "stateMutability": "nonpayable",
      "type": "function"
    },
    {
      "inputs": [
        {
          "internalType": "uint256",
          "name": "amount",
          "type": "uint256"
        },
        {
          "internalType": "uint16",
          "name": "stakeDays",
          "type": "uint16"
        }
      ],
      "name": "startStake",
      "outputs": [],
      "stateMutability": "nonpayable",
      "type": "function"
    },
    {
      "inputs": [
        {
          "internalType": "uint256",
          "name": "index",
          "type": "uint256"
        }
      ],
      "name": "confirmStake",
      "outputs": [],
      "stateMutability": "nonpayable",
      "type": "function"
    }
  ],
  "bytecode": "0x60c0604052600e60808190526d506f727461626c65205374616b6560901b60a09081526200003191600a919062000295565b50604080518082019091526003808252621414d560ea1b60209092019182526200005e91600b9162000295565b506040805180820190915260078082526677657374616b6560c81b60209092019182526200008f91600c9162000295565b50600d8054603c60ff199091161761ff0019166164001762ff00001916620200001790556001601155348015620000c557600080fd5b5060405162003fa638038062003fa6833981016040819052620000e8916200033b565b600060208190527f67be87c3ff9960ca1e9cfac5cab2ff4747269cf9ed20c9b7306235ac35a491c58054600160ff1991821681179092557ff7815fccbf112960a73756e185887fedcb9fc64ca0a16cc5923b7960ed780800805482168317905563780e9d6360e01b83527f77b7bbe0e49b76487c9476b5db3354cf5270619d0037ccb899c2a4c4a75b43188054909116909117905583908390839083906200018f62000291565b600980546001600160a01b0319166001600160a01b038316908117909155604051919250906000907f8be0079c531659141344cd1fd0a4f28419497f9722a3daafe3b4186f6b6457e0908290a350600d80546001600160a01b039283166301000000026301000000600160b81b0319909116179055600f805461ffff909316600160a01b0261ffff60a01b1960ff909516600160b01b0260ff60b01b19969093166001600160a01b0319909416939093179490941617919091161790555050635b5e139f60e01b6000908152602052507f9562381dfbc2d8b8b66e765249f330164b73e329e5f01670660643571d1974df805460ff19166001179055620003de565b3390565b828054620002a390620003a1565b90600052602060002090601f016020900481019282620002c7576000855562000312565b82601f10620002e257805160ff191683800117855562000312565b8280016001018555821562000312579182015b8281111562000312578251825591602001919060010190620002f5565b506200032092915062000324565b5090565b5b8082111562000320576000815560010162000325565b60008060006060848603121562000350578283fd5b83516001600160a01b038116811462000367578384fd5b602085015190935060ff811681146200037e578283fd5b604085015190925061ffff8116811462000396578182fd5b809150509250925092565b600281046001821680620003b657607f821691505b60208210811415620003d857634e487b7160e01b600052602260045260246000fd5b50919050565b613bb880620003ee6000396000f3fe608060405234801561001057600080fd5b50600436106103425760003560e01c80637096335b116101b8578063bca52cfb11610104578063e985e9c5116100a2578063f5e526f71161007c578063f5e526f714610684578063fda1094e14610697578063fee8cf4e146106aa578063ff95be27146106b257610342565b8063e985e9c51461063a578063f2fde38b1461064d578063f5c6b96b1461066057610342565b8063ce842912116100de578063ce84291214610604578063cf42c95c1461060c578063d09bc8381461061f578063e86232321461063257610342565b8063bca52cfb146105d6578063c6d7e981146105e9578063c87b56dd146105f157610342565b80638da5cb5b1161017157806395d89b411161014b57806395d89b4114610595578063a22cb4651461059d578063a8573d22146105b0578063b88d4fde146105c357610342565b80638da5cb5b146105725780638df828001461057a57806393478ea91461058d57610342565b80637096335b1461052657806370a082311461054757806370f342d81461049c578063715018a61461055a57806379c97f6b146105625780638052474d1461056a57610342565b806323b872dd116102925780634f6ccce7116102305780635ea469731161020a5780635ea46973146104e557806360081912146104f8578063619eea00146105005780636352211e1461051357610342565b80634f6ccce7146104b757806354fe1c9f146104ca57806358047913146104dd57610342565b80633a047bb31161026c5780633a047bb31461048157806342842e0e146104895780634335c9f91461049c5780634914578d146104a457610342565b806323b872dd146104535780632f745c59146104665780633045aaf31461047957610342565b806311915131116102ff578063149edf9a116102d9578063149edf9a14610405578063172af19b1461041857806318160ddd1461042b5780631ab9d7161461044057610342565b806311915131146103e257806311a4050e146103ea578063140f9df1146103f257610342565b806301ffc9a71461034757806306fdde0314610370578063079c641a14610385578063081812fc1461039a578063095ea7b3146103ba578063106aa37a146103cd575b600080fd5b61035a610355366004612f30565b6106ba565b604051610367919061358f565b60405180910390f35b6103786106dd565b604051610367919061359a565b610398610393366004612eeb565b61076f565b005b6103ad6103a8366004613164565b610792565b60405161036791906134f1565b6103986103c8366004612eeb565b610814565b6103d56109b6565b60405161036791906139c5565b6103786109c4565b6103d5610a52565b6103986104003660046130d2565b610a5b565b6103986104133660046131b8565b610b44565b610398610426366004613194565b610b91565b610433610bb0565b60405161036791906138ab565b61039861044e3660046131fd565b610bb6565b610398610461366004612e0d565b610c0b565b610433610474366004612eeb565b610dc6565b610378610e6b565b610398610e78565b610398610497366004612e0d565b610f4f565b6103d5610f6f565b6103986104b2366004613164565b610f74565b6104336104c5366004613164565b610fbf565b6103986104d8366004612f68565b611035565b6103ad6110e8565b6103986104f3366004613194565b6110f7565b610433611139565b61043361050e366004613276565b61113f565b6103ad610521366004613164565b6111c6565b610539610534366004613255565b61121e565b6040516103679291906138c6565b610433610555366004612dc1565b611280565b6103986112d7565b6103d5611360565b610378611365565b6103ad611372565b610398610588366004613164565b611381565b610398611653565b61037861166a565b6103986105ab366004612eb5565b611679565b6103986105be366004613194565b6116e8565b6103986105d1366004612e48565b61173f565b6103986105e4366004613164565b611781565b6103ad61179f565b6103786105ff366004613164565b6117ae565b6103ad611838565b61043361061a3660046132aa565b61184e565b61039861062d3660046132dc565b611863565b610378611884565b61035a610648366004612ddb565b61190a565b61039861065b366004612dc1565b611938565b61067361066e366004613164565b6119f9565b6040516103679594939291906138d4565b610398610692366004613276565b611a35565b6104336106a5366004612dc1565b611a55565b610378611a67565b6103d5611aac565b6001600160e01b0319811660009081526020819052604090205460ff165b919050565b6060600a80546106ec90613abf565b80601f016020809104026020016040519081016040528092919081815260200182805461071890613abf565b80156107655780601f1061073a57610100808354040283529160200191610765565b820191906000526020600020905b81548152906001019060200180831161074857829003601f168201915b5050505050905090565b6011805490600061077f83613af4565b919050555061078e8282611abb565b5050565b6000818152600160209081526040808320548151808301909252600682526518181998181960d11b9282019290925283916001600160a01b03166107f25760405162461bcd60e51b81526004016107e9919061359a565b60405180910390fd5b506000838152600260205260409020546001600160a01b031691505b50919050565b60008181526001602052604090205481906001600160a01b03163381148061085f57506001600160a01b038116600090815260046020908152604080832033845290915290205460ff165b6040518060400160405280600681526020016530303330303360d01b8152509061089c5760405162461bcd60e51b81526004016107e9919061359a565b50600083815260016020908152604091829020548251808401909352600683526518181998181960d11b918301919091528491906001600160a01b03166108f65760405162461bcd60e51b81526004016107e9919061359a565b50600084815260016020908152604091829020548251808401909352600683526506060666060760d31b918301919091526001600160a01b03908116919087168214156109565760405162461bcd60e51b81526004016107e9919061359a565b5060008581526002602052604080822080546001600160a01b0319166001600160a01b038a811691821790925591518893918516917f8c5be1e5ebec7d5bd14f71427d1e84f3dd0314c0f7b2291e5b200ac8c7c3b92591a4505050505050565b600d54610100900460ff1681565b600c80546109d190613abf565b80601f01602080910402602001604051908101604052809291908181526020018280546109fd90613abf565b8015610a4a5780601f10610a1f57610100808354040283529160200191610a4a565b820191906000526020600020905b815481529060010190602001808311610a2d57829003601f168201915b505050505081565b600d5460ff1681565b6000816040015111610a7f5760405162461bcd60e51b81526004016107e9906136a5565b600f60169054906101000a900460ff1660ff16816080015161ffff161015610ab95760405162461bcd60e51b81526004016107e99061385c565b600f54608082015161ffff600160a01b909204821691161115610aee5760405162461bcd60e51b81526004016107e99061360f565b600a60ff168160a0015160ff161015610b195760405162461bcd60e51b81526004016107e9906136dc565b60a081015160ff9081161115610b415760405162461bcd60e51b81526004016107e9906136dc565b50565b6040805160c0810182523381526001600160a01b03841660208201529081018590526060810182905261ffff84166080820152600d5460ff1660a0820152610b8b90611c89565b50505050565b60118054906000610ba183613af4565b919050555061078e8282611dd3565b60055490565b610c046040518060c00160405280336001600160a01b03168152602001856001600160a01b031681526020018781526020018481526020018661ffff1681526020018360ff16815250611c89565b5050505050565b60008181526001602052604090205481906001600160a01b031633811480610c4957506000828152600260205260409020546001600160a01b031633145b80610c7757506001600160a01b038116600090815260046020908152604080832033845290915290205460ff165b604051806040016040528060068152602001650c0c0ccc0c0d60d21b81525090610cb45760405162461bcd60e51b81526004016107e9919061359a565b50600083815260016020908152604091829020548251808401909352600683526518181998181960d11b918301919091528491906001600160a01b0316610d0e5760405162461bcd60e51b81526004016107e9919061359a565b50600084815260016020908152604091829020548251808401909352600683526530303330303760d01b918301919091526001600160a01b03908116919088168214610d6d5760405162461bcd60e51b81526004016107e9919061359a565b5060408051808201909152600681526530303330303160d01b60208201526001600160a01b038716610db25760405162461bcd60e51b81526004016107e9919061359a565b50610dbd8686611e3b565b50505050505050565b6001600160a01b0382166000908152600760209081526040808320548151808301909252600682526530303530303760d01b92820192909252908310610e1f5760405162461bcd60e51b81526004016107e9919061359a565b506001600160a01b0383166000908152600760205260409020805483908110610e5857634e487b7160e01b600052603260045260246000fd5b9060005260206000200154905092915050565b600b80546109d190613abf565b336000818152600e602052604090205480610ea55760405162461bcd60e51b81526004016107e9906135ad565b600d5460405163a9059cbb60e01b815263010000009091046001600160a01b03169063a9059cbb90610edd9085908590600401613576565b602060405180830381600087803b158015610ef757600080fd5b505af1158015610f0b573d6000803e3d6000fd5b505050506040513d601f19601f82011682018060405250810190610f2f9190612f14565b1561078e57506001600160a01b03166000908152600e6020526040812055565b610f6a83838360405180602001604052806000815250611eb6565b505050565b600a81565b6040805160c0810182523381526000602082018190529181018390526060810191909152600f54600160a01b900461ffff166080820152600d5460ff1660a0820152610b4190611c89565b60055460408051808201909152600681526530303530303760d01b602082015260009183106110015760405162461bcd60e51b81526004016107e9919061359a565b506005828154811061102357634e487b7160e01b600052603260045260246000fd5b90600052602060002001549050919050565b61103d612164565b6001600160a01b031661104e611372565b6001600160a01b0316146110745760405162461bcd60e51b81526004016107e990613774565b611080600a8a8a612ca0565b5061108d600b8888612ca0565b5061109a600c8686612ca0565b50600d805460ff191660ff8581169190911761ff0019166101008583160217909155600a908216116110dd57600d805462ff000019166201000060ff8416021790555b505050505050505050565b600f546001600160a01b031690565b6040805160c081018252338152600060208201819052918101849052606081019190915261ffff82166080820152600d5460ff1660a082015261078e90611c89565b60115481565b60008383111580156111515750600083115b801561116557506001600160a01b03821615155b156111bc576001600160a01b0382166000908152600e602052604090205461118d84826139df565b6001600160a01b0384166000908152600e6020526040902081905590506111b48486613a59565b9150506111bf565b50825b9392505050565b600081815260016020908152604091829020548251808401909352600683526518181998181960d11b918301919091526001600160a01b0316908161080e5760405162461bcd60e51b81526004016107e9919061359a565b6000808061122e6103e8866139f7565b600d5490915060009061124990610100900460ff1683613a17565b90508085111561125b5780935061125f565b8493505b600d546112759062010000900460ff1683613a17565b925050509250929050565b60408051808201909152600681526530303330303160d01b60208201526000906001600160a01b0383166112c75760405162461bcd60e51b81526004016107e9919061359a565b506112d182612168565b92915050565b6112df612164565b6001600160a01b03166112f0611372565b6001600160a01b0316146113165760405162461bcd60e51b81526004016107e990613774565b6009546040516000916001600160a01b0316907f8be0079c531659141344cd1fd0a4f28419497f9722a3daafe3b4186f6b6457e0908390a3600980546001600160a01b0319169055565b60ff81565b600a80546109d190613abf565b6009546001600160a01b031690565b600081815260016020908152604091829020548251808401909352600683526518181998181960d11b918301919091528291906001600160a01b03166113da5760405162461bcd60e51b81526004016107e9919061359a565b506000828152600160208181526040808420546010835293819020815160a0810183528154815293810154928401929092526002820154908301526003015464ffffffffff8116606083015265010000000000900460ff1660808201526001600160a01b039091169033906000816060015164ffffffffff16116114705760405162461bcd60e51b81526004016107e9906135d8565b600080600080600061148a86606001518760200151612183565b95509550955095509550508386604001516114a591906139df565b604087015260006001600160a01b03888116908a16146114f4576114d287604001518389608001516124da565b9050808510156114f45760405162461bcd60e51b81526004016107e990613713565b801561150f576115098760400151828a61113f565b60408801525b604080880151600f54915163a9059cbb60e01b815290916001600160a01b03169063a9059cbb90611546908d908590600401613576565b602060405180830381600087803b15801561156057600080fd5b505af1158015611574573d6000803e3d6000fd5b505050506040513d601f19601f820116820180604052508101906115989190612f14565b156115b3578088604001516115ad9190613a59565b60408901525b60408801516115f6576115c58c612558565b60008c8152601060205260408120818155600181018290556002810191909155600301805465ffffffffffff191690555b7f4ddca1d4cb29f58c85fd2c2abdc0575ef9e3d1a84ce11306969db03fa460b2e78c89606001518c338b8b88888d8d8d60405161163d9b9a99989796959493929190613916565b60405180910390a1505050505050505050505050565b6011805490600061166383613af4565b9190505550565b6060600b80546106ec90613abf565b3360008181526004602090815260408083206001600160a01b038716808552925291829020805460ff191685151517905590519091907f17307eab39ab6107e8899845ad3d59bd9653f200f220920489ca2b5937696c31906116dc90859061358f565b60405180910390a35050565b601180549060006116f883613af4565b90915550506040805160c081018252338152600060208201819052918101849052606081019190915261ffff82166080820152600d5460ff1660a082015261078e90610a5b565b610c0485858585858080601f016020809104026020016040519081016040528093929190818152602001838380828437600092019190915250611eb692505050565b6011805490600061179183613af4565b919050555061078e81612636565b600f546001600160a01b031681565b600081815260016020908152604091829020548251808401909352600683526518181998181960d11b9183019190915260609183916001600160a01b03166118095760405162461bcd60e51b81526004016107e9919061359a565b50600c600b8460405160200161182193929190613482565b604051602081830303815290604052915050919050565b600d54630100000090046001600160a01b031681565b600061185b8484846124da565b949350505050565b6011805490600061187383613af4565b9190505550610c04848484846126cb565b600f54604080516306fdde0360e01b815290516060926001600160a01b0316916306fdde03916004808301926000929190829003018186803b1580156118c957600080fd5b505afa1580156118dd573d6000803e3d6000fd5b505050506040513d6000823e601f3d908101601f19168201604052611905919081019061302f565b905090565b6001600160a01b03918216600090815260046020908152604080832093909416825291909152205460ff1690565b611940612164565b6001600160a01b0316611951611372565b6001600160a01b0316146119775760405162461bcd60e51b81526004016107e990613774565b6001600160a01b03811661199d5760405162461bcd60e51b81526004016107e99061365f565b6009546040516001600160a01b038084169216907f8be0079c531659141344cd1fd0a4f28419497f9722a3daafe3b4186f6b6457e090600090a3600980546001600160a01b0319166001600160a01b0392909216919091179055565b60106020526000908152604090208054600182015460028301546003909301549192909164ffffffffff81169065010000000000900460ff1685565b60118054906000611a4583613af4565b9190505550610c04838383612778565b600e6020526000908152604090205481565b600f54604080516395d89b4160e01b815290516060926001600160a01b0316916395d89b41916004808301926000929190829003018186803b1580156118c957600080fd5b600d5462010000900460ff1681565b600f546040516370a0823160e01b81526000916001600160a01b0316906370a0823190611aec9086906004016134f1565b60206040518083038186803b158015611b0457600080fd5b505afa158015611b18573d6000803e3d6000fd5b505050506040513d601f19601f82011682018060405250810190611b3c919061317c565b905081811015611b5e5760405162461bcd60e51b81526004016107e99061381b565b600f54604051636eb1769f60e11b81526000916001600160a01b03169063dd62ed3e90611b919087903090600401613505565b60206040518083038186803b158015611ba957600080fd5b505afa158015611bbd573d6000803e3d6000fd5b505050506040513d601f19601f82011682018060405250810190611be1919061317c565b905082811015611c035760405162461bcd60e51b81526004016107e9906137d6565b600f546040516323b872dd60e01b81526001600160a01b03909116906323b872dd90611c379087903090889060040161351f565b602060405180830381600087803b158015611c5157600080fd5b505af1158015611c65573d6000803e3d6000fd5b505050506040513d601f19601f82011682018060405250810190610c049190612f14565b611c9281610a5b565b611ca481600001518260400151611abb565b600080611cbe836040015184606001518560200151612778565b600f5460405163033060d960e41b81529294509092506000916001600160a01b03909116906333060d9090611cf79030906004016134f1565b60206040518083038186803b158015611d0f57600080fd5b505afa158015611d23573d6000803e3d6000fd5b505050506040513d601f19601f82011682018060405250810190611d47919061317c565b9050611d57828560800151611dd3565b6000611d6282612636565b90506000611d7a82848860a0015189600001516126cb565b90507fdd82c56a97cf24ec0f9b5f94dd7eddd3c47db6864172b8ae03151dab7320d2de8183886000015188888b608001518c60a00151604051611dc3979695949392919061397e565b60405180910390a1505050505050565b600f54604051630a54871760e31b81526001600160a01b03909116906352a438b890611e0590859085906004016138b4565b600060405180830381600087803b158015611e1f57600080fd5b505af1158015611e33573d6000803e3d6000fd5b505050505050565b6000818152600160205260409020546001600160a01b0316611e5c826127be565b611e6681836127f9565b611e7083836129a0565b81836001600160a01b0316826001600160a01b03167fddf252ad1be2c89b69c2b068fc378daa952ba7f163c4a11628f55a4df523b3ef60405160405180910390a4505050565b60008281526001602052604090205482906001600160a01b031633811480611ef457506000828152600260205260409020546001600160a01b031633145b80611f2257506001600160a01b038116600090815260046020908152604080832033845290915290205460ff165b604051806040016040528060068152602001650c0c0ccc0c0d60d21b81525090611f5f5760405162461bcd60e51b81526004016107e9919061359a565b50600084815260016020908152604091829020548251808401909352600683526518181998181960d11b918301919091528591906001600160a01b0316611fb95760405162461bcd60e51b81526004016107e9919061359a565b50600085815260016020908152604091829020548251808401909352600683526530303330303760d01b918301919091526001600160a01b039081169190891682146120185760405162461bcd60e51b81526004016107e9919061359a565b5060408051808201909152600681526530303330303160d01b60208201526001600160a01b03881661205d5760405162461bcd60e51b81526004016107e9919061359a565b506120688787611e3b565b61207a876001600160a01b0316612a64565b1561215a57604051630a85bd0160e11b81526000906001600160a01b0389169063150b7a02906120b49033908d908c908c90600401613543565b602060405180830381600087803b1580156120ce57600080fd5b505af11580156120e2573d6000803e3d6000fd5b505050506040513d601f19601f820116820180604052508101906121069190612f4c565b60408051808201909152600681526530303330303560d01b60208201529091506001600160e01b03198216630a85bd0160e11b146121575760405162461bcd60e51b81526004016107e9919061359a565b50505b5050505050505050565b3390565b6001600160a01b031660009081526007602052604090205490565b600080600080600080600f60009054906101000a90046001600160a01b03166001600160a01b0316635c9302c96040518163ffffffff1660e01b815260040160206040518083038186803b1580156121da57600080fd5b505afa1580156121ee573d6000803e3d6000fd5b505050506040513d601f19601f82011682018060405250810190612212919061317c565b600f54604051632607443b60e01b81529197506000918291829182916001600160a01b031690632607443b9061224e9030908f90600401613576565b60e06040518083038186803b15801561226657600080fd5b505afa15801561227a573d6000803e3d6000fd5b505050506040513d601f19601f8201168201806040525081019061229e919061332a565b50509450945050935093508364ffffffffff168c64ffffffffff16146122c357600080fd5b68ffffffffffffffffff831698509095509350848460006122e861ffff84168c613a59565b90508161ffff168161ffff1610156123125760405162461bcd60e51b81526004016107e9906137a9565b61231c8282613a36565b600f546040516370a0823160e01b81529197506000916001600160a01b03909116906370a08231906123529030906004016134f1565b60206040518083038186803b15801561236a57600080fd5b505afa15801561237e573d6000803e3d6000fd5b505050506040513d601f19601f820116820180604052508101906123a2919061317c565b9050600f60009054906101000a90046001600160a01b03166001600160a01b031663343009a28e886040518363ffffffff1660e01b81526004016123e7929190613901565b600060405180830381600087803b15801561240157600080fd5b505af1158015612415573d6000803e3d6000fd5b5050600f546040516370a0823160e01b8152600093506001600160a01b0390911691506370a082319061244c9030906004016134f1565b60206040518083038186803b15801561246457600080fd5b505afa158015612478573d6000803e3d6000fd5b505050506040513d601f19601f8201168201806040525081019061249c919061317c565b90508181116124bd5760405162461bcd60e51b81526004016107e99061374a565b6124c78282613a59565b9a50505050505050509295509295509295565b600060ff83166124e9576111bf565b8390508160ff168360ff1611156124ff576111bf565b6002600061250d8585613a70565b905060005b8160ff1681101561254e5761252a60ff8416856139f7565b93508260ff1684101561253c5761254e565b8061254681613af4565b915050612512565b5050509392505050565b61256181612a9b565b60008181526006602052604081205460055490919061258290600190613a59565b90506000600582815481106125a757634e487b7160e01b600052603260045260246000fd5b9060005260206000200154905080600584815481106125d657634e487b7160e01b600052603260045260246000fd5b600091825260209091200155600580548061260157634e487b7160e01b600052603160045260246000fd5b600082815260208082208301600019908101839055909201909255918152600690915260408082209390935592835250812055565b600f54604051632607443b60e01b815260009182916001600160a01b0390911690632607443b9061266d9030908790600401613576565b60e06040518083038186803b15801561268557600080fd5b505afa158015612699573d6000803e3d6000fd5b505050506040513d601f19601f820116820180604052508101906126bd919061332a565b509498975050505050505050565b60118054600091826126dc83613af4565b909155506040805160a0810182528281526020808201888152600083850181815264ffffffffff808d166060870190815260ff808d16608089019081528a8652601090975297909320955186559251600186015551600285015551600390930180549251909416650100000000000265ff0000000000199390911664ffffffffff199092169190911791909116179055905061185b8282612b5d565b600080600080612788878761121e565b9150915061279787838761113f565b92506127a6838261050e611372565b92506127b281836139df565b93505050935093915050565b6000818152600260205260409020546001600160a01b031615610b4157600090815260026020526040902080546001600160a01b0319169055565b600081815260016020908152604091829020548251808401909352600683526530303330303760d01b918301919091526001600160a01b038481169116146128545760405162461bcd60e51b81526004016107e9919061359a565b50600081815260016020818152604080842080546001600160a01b031916905560088252808420546001600160a01b0387168552600790925283205490929161289c91613a59565b905081811461294f576001600160a01b03841660009081526007602052604081208054839081106128dd57634e487b7160e01b600052603260045260246000fd5b906000526020600020015490508060076000876001600160a01b03166001600160a01b03168152602001908152602001600020848154811061292f57634e487b7160e01b600052603260045260246000fd5b600091825260208083209091019290925591825260089052604090208290555b6001600160a01b038416600090815260076020526040902080548061298457634e487b7160e01b600052603160045260246000fd5b6001900381819060005260206000200160009055905550505050565b600081815260016020908152604091829020548251808401909352600683526518181998181b60d11b918301919091526001600160a01b0316156129f75760405162461bcd60e51b81526004016107e9919061359a565b50600081815260016020818152604080842080546001600160a01b0319166001600160a01b03881690811790915580855260078352908420805480850182558186529285209092018590559092529054612a519190613a59565b6000918252600860205260409091205550565b6000813f7fc5d2460186f7233c927e7db2dcc703c0e500b653ca82273b7bfad8045d85a470811580159061185b5750141592915050565b600081815260016020908152604091829020548251808401909352600683526518181998181960d11b918301919091528291906001600160a01b0316612af45760405162461bcd60e51b81526004016107e9919061359a565b506000828152600160205260409020546001600160a01b0316612b16836127be565b612b2081846127f9565b60405183906000906001600160a01b038416907fddf252ad1be2c89b69c2b068fc378daa952ba7f163c4a11628f55a4df523b3ef908390a4505050565b612b678282612bbd565b600580546001818101835560008390527f036b6384b5eca791c62761152d0c79bb0604c104a5fb6f4eb0703f3154bb3db09091018390559054612baa9190613a59565b6000918252600660205260409091205550565b60408051808201909152600681526530303330303160d01b60208201526001600160a01b038316612c015760405162461bcd60e51b81526004016107e9919061359a565b50600081815260016020908152604091829020548251808401909352600683526518181998181b60d11b918301919091526001600160a01b031615612c595760405162461bcd60e51b81526004016107e9919061359a565b50612c6482826129a0565b60405181906001600160a01b038416906000907fddf252ad1be2c89b69c2b068fc378daa952ba7f163c4a11628f55a4df523b3ef908290a45050565b828054612cac90613abf565b90600052602060002090601f016020900481019282612cce5760008555612d14565b82601f10612ce75782800160ff19823516178555612d14565b82800160010185558215612d14579182015b82811115612d14578235825591602001919060010190612cf9565b50612d20929150612d24565b5090565b5b80821115612d205760008155600101612d25565b80356001600160a01b03811681146106d857600080fd5b60008083601f840112612d61578182fd5b50813567ffffffffffffffff811115612d78578182fd5b602083019150836020828501011115612d9057600080fd5b9250929050565b805168ffffffffffffffffff811681146106d857600080fd5b803560ff811681146106d857600080fd5b600060208284031215612dd2578081fd5b6111bf82612d39565b60008060408385031215612ded578081fd5b612df683612d39565b9150612e0460208401612d39565b90509250929050565b600080600060608486031215612e21578081fd5b612e2a84612d39565b9250612e3860208501612d39565b9150604084013590509250925092565b600080600080600060808688031215612e5f578081fd5b612e6886612d39565b9450612e7660208701612d39565b935060408601359250606086013567ffffffffffffffff811115612e98578182fd5b612ea488828901612d50565b969995985093965092949392505050565b60008060408385031215612ec7578182fd5b612ed083612d39565b91506020830135612ee081613b3b565b809150509250929050565b60008060408385031215612efd578182fd5b612f0683612d39565b946020939093013593505050565b600060208284031215612f25578081fd5b81516111bf81613b3b565b600060208284031215612f41578081fd5b81356111bf81613b49565b600060208284031215612f5d578081fd5b81516111bf81613b49565b600080600080600080600080600060c08a8c031215612f85578687fd5b893567ffffffffffffffff80821115612f9c578889fd5b612fa88d838e01612d50565b909b50995060208c0135915080821115612fc0578889fd5b612fcc8d838e01612d50565b909950975060408c0135915080821115612fe4578586fd5b50612ff18c828d01612d50565b9096509450613004905060608b01612db0565b925061301260808b01612db0565b915061302060a08b01612db0565b90509295985092959850929598565b600060208284031215613040578081fd5b815167ffffffffffffffff80821115613057578283fd5b818401915084601f83011261306a578283fd5b81518181111561307c5761307c613b25565b604051601f8201601f1916810160200183811182821017156130a0576130a0613b25565b6040528181528382016020018710156130b7578485fd5b6130c8826020830160208701613a93565b9695505050505050565b600060c082840312156130e3578081fd5b60405160c0810181811067ffffffffffffffff8211171561310657613106613b25565b60405261311283612d39565b815261312060208401612d39565b60208201526040830135604082015260608301356060820152608083013561314781613b5f565b608082015261315860a08401612db0565b60a08201529392505050565b600060208284031215613175578081fd5b5035919050565b60006020828403121561318d578081fd5b5051919050565b600080604083850312156131a6578182fd5b823591506020830135612ee081613b5f565b600080600080608085870312156131cd578182fd5b8435935060208501356131df81613b5f565b92506131ed60408601612d39565b9396929550929360600135925050565b600080600080600060a08688031215613214578283fd5b85359450602086013561322681613b5f565b935061323460408701612d39565b92506060860135915061324960808701612db0565b90509295509295909350565b60008060408385031215613267578182fd5b50508035926020909101359150565b60008060006060848603121561328a578081fd5b83359250602084013591506132a160408501612d39565b90509250925092565b6000806000606084860312156132be578081fd5b833592506132ce60208501612db0565b91506132a160408501612db0565b600080600080608085870312156132f1578182fd5b84356132fc81613b6f565b93506020850135925061331160408601612db0565b915061331f60608601612d39565b905092959194509250565b600080600080600080600060e0888a031215613344578081fd5b875161334f81613b6f565b965061335d60208901612d97565b955061336b60408901612d97565b9450606088015161337b81613b5f565b608089015190945061338c81613b5f565b60a089015190935061339d81613b5f565b60c08901519092506133ae81613b3b565b8091505092959891949750929550565b600081518084526133d6816020860160208601613a93565b601f01601f19169290920160200192915050565b80546000906002810460018083168061340457607f831692505b602080841082141561342457634e487b7160e01b86526022600452602486fd5b818015613438576001811461344957613476565b60ff19861689528489019650613476565b613452886139d3565b60005b8681101561346e5781548b820152908501908301613455565b505084890196505b50505050505092915050565b600066687474703a2f2f60c81b825261349e60078301866133ea565b602f60f81b81526134b260018201866133ea565b6517ba37b5b2b760d11b815260068101949094525050676d6574616461746160c01b60268301525064173539b7b760d91b602e82015260330192915050565b6001600160a01b0391909116815260200190565b6001600160a01b0392831681529116602082015260400190565b6001600160a01b039384168152919092166020820152604081019190915260600190565b6001600160a01b03858116825284166020820152604081018390526080606082018190526000906130c8908301846133be565b6001600160a01b03929092168252602082015260400190565b901515815260200190565b6000602082526111bf60208301846133be565b6020808252601190820152706e6f206665657320746f2072656465656d60781b604082015260600190565b6020808252601e908201527f506f727461626c655374616b653a207374616b654964206d697373696e670000604082015260600190565b60208082526030908201527f506f727461626c655374616b653a206e65775374616b6564446179732068696760408201526f686572207468616e206d6178696d756d60801b606082015260800190565b60208082526026908201527f4f776e61626c653a206e6577206f776e657220697320746865207a65726f206160408201526564647265737360d01b606082015260800190565b6020808252601d908201527f506f727461626c655374616b653a20616d6f756e74206973207a65726f000000604082015260600190565b6020808252601d908201527f726577617264537472657463696e67206f7574206f6620626f756e6473000000604082015260600190565b6020808252601f908201527f526577617264206973206c6172676572207468616e207072696e636970616c00604082015260600190565b60208082526010908201526f07374616b65207969656c64203c3d20360841b604082015260600190565b6020808252818101527f4f776e61626c653a2063616c6c6572206973206e6f7420746865206f776e6572604082015260600190565b6020808252601390820152727374616b65206973206e6f74206d617475726560681b604082015260600190565b60208082526025908201527f506f727461626c655374616b653a20616c6c6f77616e636520696e737566666960408201526418da595b9d60da1b606082015260800190565b60208082526021908201527f506f727461626c655374616b653a20496e73756666696369656e742066756e646040820152607360f81b606082015260800190565b6020808252602f908201527f506f727461626c655374616b653a206e65775374616b656444617973206c6f7760408201526e6572207468616e206d696e696d756d60881b606082015260800190565b90815260200190565b91825261ffff16602082015260400190565b918252602082015260400190565b9485526020850193909352604084019190915264ffffffffff16606083015260ff16608082015260a00190565b91825264ffffffffff16602082015260400190565b9a8b5264ffffffffff9990991660208b01526001600160a01b0397881660408b0152959096166060890152608088019390935260a087019190915260c086015260e085015261ffff9182166101008501521661012083015260ff166101408201526101600190565b96875264ffffffffff9590951660208701526001600160a01b039390931660408601526060850191909152608084015261ffff1660a083015260ff1660c082015260e00190565b60ff91909116815260200190565b60009081526020902090565b600082198211156139f2576139f2613b0f565b500190565b600082613a1257634e487b7160e01b81526012600452602481fd5b500490565b6000816000190483118215151615613a3157613a31613b0f565b500290565b600061ffff83811690831681811015613a5157613a51613b0f565b039392505050565b600082821015613a6b57613a6b613b0f565b500390565b600060ff821660ff841680821015613a8a57613a8a613b0f565b90039392505050565b60005b83811015613aae578181015183820152602001613a96565b83811115610b8b5750506000910152565b600281046001821680613ad357607f821691505b6020821081141561080e57634e487b7160e01b600052602260045260246000fd5b6000600019821415613b0857613b08613b0f565b5060010190565b634e487b7160e01b600052601160045260246000fd5b634e487b7160e01b600052604160045260246000fd5b8015158114610b4157600080fd5b6001600160e01b031981168114610b4157600080fd5b61ffff81168114610b4157600080fd5b64ffffffffff81168114610b4157600080fdfea264697066735822122035be543fbbd8810a476d08f6b7da821065343fed0b2d02defeafde9cc169d27964736f6c63430008000033",
  "immutableReferences": {},
  "source": "// SPDX-License-Identifier: Christopher Willoch\r\n pragma solidity ^0.8.0;\r\nimport \"../ethereum-erc721/tokens/nf-token-enumerable.sol\";\r\nimport \"../ethereum-erc721/tokens/erc721-metadata.sol\";\r\nimport \"../ethereum-erc721/ownership/ownable.sol\";\r\nimport \"./StakeableToken.sol\";\r\nimport \"../Wrapping/IERC20Wrapper.sol\";\r\nimport \"../lib/Reward.sol\";\r\nimport \"../Fees/FeeCollectorBase.sol\";\r\nimport \"../IERC165.sol\";\r\nabstract contract Maintainable is Ownable{\r\n    string public  Name = \"Portable Stake\";\r\n    string public  Symbol = \"PST\";\r\n    string public  Domain = \"westake\";\r\n    function setConstants(string calldata n, string calldata s, string calldata d,uint8 ds, uint8 m, uint8 o)external onlyOwner() {\r\n        Name = n;\r\n        Symbol = s;\r\n        Domain = d;\r\n        DEFAULT_REWARD_STRETCHING = ds;\r\n        MAX_REFERRAL_FEE_PERMILLE = m;\r\n        if(o <= MAX_OWNER_FEE_PERMILLE){\r\n            OWNER_FEE_PERMILLE = o;\r\n        }        \r\n    }\r\n    // function recoverGhostedFunds()external onlyOwner(){\r\n\r\n    // }\r\n    uint8 public constant MIN_REWARD_STRETCHING = 10;\r\n    uint8 public DEFAULT_REWARD_STRETCHING = 60;\r\n    uint8 public constant MAX_REWARD_STRETCHING = 255;\r\n    uint8 public MAX_REFERRAL_FEE_PERMILLE = 100;//10%\r\n    uint8 public constant MAX_OWNER_FEE_PERMILLE = 10;//1%\r\n    uint8 public OWNER_FEE_PERMILLE = 2;//0.2%\r\n\r\n    \r\n}\r\ncontract PortableStake is NFTokenEnumerable,ERC721Metadata,IERC20Wrapper,Maintainable,FeeCollectorBase{\r\n    event PortableStakeStart(\r\n        uint256 tokenId, \r\n        uint256 stakeId,\r\n        address owner,\r\n        uint256 feeAmount, \r\n        uint256 stakedAmount, \r\n        uint16 stakeLength,\r\n        uint8 rewardStretching\r\n    );\r\n     event PortableStakeEnd(\r\n        uint256 tokenId, \r\n        uint256 stakeId,\r\n        address owner,\r\n        address actor,\r\n        uint256 stakedAmount, \r\n        uint256 unStakedAmount, \r\n        uint256 actorRewardAmount, \r\n        uint256 returnedToOwnerAmount, \r\n        uint16 startDay,\r\n        uint16 stakeLength,\r\n        uint8 lateDays\r\n    );\r\n \r\n    struct TokenStore{\r\n         uint256 tokenId;         \r\n         uint256 stakeIndex;\r\n         uint256 amount;\r\n         uint40 stakeId;\r\n         uint8 rewardStretching;\r\n     }\r\n     \r\n     StakeableToken public StakeableTokenContract;\r\n     uint16 internal MAX_STAKE_DAYS;\r\n     uint8 internal MIN_STAKE_DAYS;\r\n     mapping(uint256 => TokenStore) public idToToken;\r\n     \r\n     constructor (StakeableToken stakeableTokenContract, uint8 minStakeDays, uint16 maxStakeDays) FeeCollectorBase(stakeableTokenContract) {\r\n         StakeableTokenContract = stakeableTokenContract;\r\n         MIN_STAKE_DAYS = minStakeDays;\r\n         MAX_STAKE_DAYS = maxStakeDays;\r\n         supportedInterfaces[0x5b5e139f] = true; // ERC721Metadata\r\n     }\r\n     function getWrappedContract()external override view returns(IERC20){\r\n         return StakeableTokenContract;\r\n     }\r\n     function wrappedSymbol()external override view returns(string memory){\r\n         return StakeableTokenContract.symbol();\r\n     }\r\n     function wrappedName()external override view returns(string memory){\r\n         return StakeableTokenContract.name();\r\n     }\r\n    \r\n    /**Represents the next token id to use. Increment after using.*/\r\n    uint256 public TokenIdCounter = 1;\r\n    /** \r\n     *@dev Returns a descriptive name for a collection of NFTs in this contract. \r\n     *@return _name Representing name.\r\n     */\r\n    function name()external override view returns (string memory _name){ return Name;}\r\n\r\n    /**\r\n   * @dev Returns a abbreviated name for a collection of NFTs in this contract. Not applicable.\r\n   * @return _symbol Representing symbol.\r\n   */\r\n    function symbol() external override view returns (string memory _symbol){return Symbol;}\r\n\r\n    /**\r\n    * @dev Returns a distinct Uniform Resource Identifier (URI) for a given asset. It Throws if\r\n    * `_tokenId` is not a valid NFT. URIs are defined in RFC3986. The URI may point to a JSON file\r\n    * that conforms to the \"ERC721 Metadata JSON Schema\".\r\n    * @return URI of _tokenId.\r\n    */\r\n    function tokenURI(uint256 _tokenId) external override view validNFToken(_tokenId) returns (string memory)  {\r\n        //return \"http://\" + Domain + \"/\" + Symbol + \"/token\" + _tokenId + \"metadata\" + \".json\";\r\n        return string(abi.encodePacked(\"http://\", Domain, \"/\", Symbol, \"/token\",_tokenId, \"metadata\", \".json\"));\r\n    }\r\n    struct MintingInfo{\r\n        address owner;\r\n        address referrer;\r\n        uint256 amount;  \r\n        uint256 fee;\r\n        uint16 stakeDays;\r\n        uint8 rewardStretching;\r\n     }\r\n     /** \r\n    * Takes possession of the amount    \r\n    * Subtracts fees\r\n    * Stakes the amount\r\n    * Mints token\r\n    */\r\n    function mintMaxDays(uint256 amount)external{        \r\n        _mintPS(MintingInfo(address(msg.sender),address(0), amount, 0,MAX_STAKE_DAYS, DEFAULT_REWARD_STRETCHING));\r\n    }\r\n    function mintCustomDays(uint256 amount, uint16 stakeDays) external{\r\n        _mintPS(MintingInfo(address(msg.sender),address(0), amount, 0,stakeDays, DEFAULT_REWARD_STRETCHING));\r\n    }    \r\n    function mintReferred(uint256 amount, uint16 stakeDays, address referrer, uint256 referralFee) external{\r\n        _mintPS(MintingInfo(address(msg.sender),referrer, amount, referralFee,stakeDays, DEFAULT_REWARD_STRETCHING));\r\n       //_mintPS(MintingInfo(address(msg.sender),amount, stakeDays, referrer,referralFee, DEFAULT_REWARD_STRETCHING));\r\n    }\r\n    function mintCustomRewardStretching(uint256 amount, uint16 stakeDays, address referrer, uint256 referralFee, uint8 rewardStretching)external{\r\n        _mintPS(MintingInfo(address(msg.sender),referrer, amount, referralFee,stakeDays, rewardStretching));\r\n        //_mintPS(MintingInfo(address(msg.sender),amount, stakeDays, referrer,referralFee, rewardStretching));\r\n    }\r\n    function _mintPS(MintingInfo memory info)internal{\r\n        //Check input\r\n        _checkInput(info);\r\n\r\n        //Take posession of the amount\r\n        _takePosession(info.owner, info.amount);        \r\n        \r\n        //Calculate stake amount by subtracting fees from the amount \r\n        (uint256 feeAmount, uint256 stakeAmount) = _calculateAndChargeFees(info.amount, info.fee, info.referrer); \r\n             \r\n        //Note current stake count or future stake index\r\n        uint256 stakeIndex = StakeableTokenContract.stakeCount(address(this));        \r\n        //Stake the amount\r\n        _startStake(stakeAmount, info.stakeDays);\r\n        //Get stakeId\r\n        uint40 stakeId = _confirmStake(stakeIndex);        \r\n\r\n        //Record and broadcast\r\n        uint256 tokenId = _mintToken(stakeId, stakeIndex,info.rewardStretching, info.owner);\r\n        emit PortableStakeStart(tokenId, stakeId, info.owner, feeAmount, stakeAmount, info.stakeDays, info.rewardStretching);\r\n    }\r\n   \r\n    \r\n    /** Consumes 3 400 gas */\r\n    function _checkInput(MintingInfo memory info) public view{\r\n        require(info.amount > 0, \"PortableStake: amount is zero\");\r\n        require(info.stakeDays >= MIN_STAKE_DAYS, \"PortableStake: newStakedDays lower than minimum\");\r\n        require(info.stakeDays <= MAX_STAKE_DAYS, \"PortableStake: newStakedDays higher than maximum\");        \r\n        require(info.rewardStretching >= MIN_REWARD_STRETCHING, \"rewardStretcing out of bounds\");\r\n        require(info.rewardStretching <= MAX_REWARD_STRETCHING, \"rewardStretcing out of bounds\");\r\n    }     \r\n      \r\n    /** Consumes 20 000 gas */\r\n    function _takePosession(address owner,uint256 amount) internal {\r\n        //Check balance\r\n        uint256 balance = StakeableTokenContract.balanceOf(owner);\r\n        require(balance >= amount, \"PortableStake: Insufficient funds\");           \r\n        //Check allowance\r\n        uint256 allowance = StakeableTokenContract.allowance(owner, address(this));\r\n        require(allowance >= amount, \"PortableStake: allowance insufficient\");\r\n        //Take posession\r\n        StakeableTokenContract.transferFrom(owner, address(this), amount);   \r\n    }    \r\n    /** Consumes 65 000 gas */\r\n    // function _createToken(uint256 tokenId, uint256 amount, uint8 rewardStretching)internal returns (TokenStore storage token){\r\n    //     idToToken[tokenId] = TokenStore(tokenId, 0, 0, amount, rewardStretching);\r\n    //     token = idToToken[tokenId];\r\n    // }\r\n    \r\n    function calculateReward(uint256 principal,uint8 waitedDays, uint8 rewardStretchingDays)public pure returns (uint256 rewardAmount){\r\n        return Reward.calcExpReward(principal, waitedDays, rewardStretchingDays); \r\n    }\r\n    \r\n     /** Calculates and subtracts fees from principal. Allocates fees for future redemption on this contract. Returns new principal.  */\r\n     function _calculateAndChargeFees(uint256 principal, uint256 requestedReferrerFee, address referrer)internal returns (uint256 feesCharged, uint256 newPrincipal){\r\n        (uint256 referrerFee,uint256 ownerFee) = calculateFees(principal, requestedReferrerFee);\r\n        newPrincipal = chargeFee(principal, referrerFee, referrer);\r\n        newPrincipal = chargeFee(newPrincipal, ownerFee, owner());\r\n        feesCharged = referrerFee + ownerFee;\r\n     }\r\n     \r\n    function calculateFees(uint256 principal, uint256 requestedReferrerFee) public view returns(uint256 referrerFee, uint256 ownerFee){\r\n        uint256 perMille = principal / 1000;\r\n        uint256 maxReferrerFee = perMille * MAX_REFERRAL_FEE_PERMILLE;\r\n        if(requestedReferrerFee > maxReferrerFee){\r\n            referrerFee = maxReferrerFee;\r\n        }else{\r\n            referrerFee = requestedReferrerFee;\r\n        }\r\n        ownerFee = perMille * OWNER_FEE_PERMILLE;\r\n    }   \r\n     function _startStake(uint256 amount, uint16 stakeDays)internal {\r\n        StakeableTokenContract.stakeStart(amount, stakeDays);\r\n    }  \r\n   function _confirmStake(uint256 id)internal view returns (uint40 ){\r\n       (\r\n            uint40 stakeId, \r\n            /* uint72 stakedHearts */,\r\n            /* uint72 stakeShares */, \r\n            /* uint16 lockedDay */, \r\n            /* uint16 stakedDays */,\r\n            /* uint16 unlockedDay */,\r\n            /* bool isAutoStake */\r\n        ) = StakeableTokenContract.stakeLists(address(this), id);\r\n    // require(stakeId > 0, \"PortableStake: failed to retrieve stakeId\");\r\n    // require(stakedHearts == a,\"stake amount not correct\");\r\n    // require(d == stakedDays, \"stake length not correct\");\r\n    return stakeId;\r\n   }\r\n   function _mintToken(uint40 stakeId, uint256 stakeIndex, uint8 stretch, address owner)internal returns (uint256 tokenId){\r\n            tokenId = TokenIdCounter++;\r\n            // TokenStore memory token = idToToken[tokenId];// TokenStore();\r\n            // token.tokenId = tokenId;\r\n            // token.stakeId = stakeId;\r\n            // token.stakeIndex = stakeIndex;\r\n            // token.rewardStretching = stretch;\r\n            idToToken[tokenId] = TokenStore(tokenId, stakeIndex, 0,stakeId, stretch);\r\n            //idToToken[tokenId] = token;\r\n            super._mint(owner, tokenId);\r\n    }  \r\n\r\n    function settle(uint256 tokenId) validNFToken(tokenId) external{\r\n        address owner = idToOwner[tokenId];\r\n        address actor = address(msg.sender);        \r\n        \r\n        TokenStore memory token = idToToken[tokenId];\r\n        \r\n        require(token.stakeIndex >= 0, \"PortableStake: stakeIndex missing\");\r\n        require(token.stakeId > 0, \"PortableStake: stakeId missing\");\r\n        (\r\n            /* uint256 currentDay */, \r\n            uint256 stakedAmount,\r\n            uint256 unStakedAmount, \r\n            uint16 startDay,\r\n            uint16 stakeLength,\r\n            uint8 lateDays\r\n        )  = _endStake(token.stakeId, token.stakeIndex);\r\n        //require(unStakedAmount > 0, \"unstaked amount = 0\");\r\n        token.amount = token.amount + unStakedAmount;\r\n        uint256 rewardAmount;\r\n        if(actor != owner){\r\n            rewardAmount = Reward.calcExpReward(token.amount, lateDays, token.rewardStretching); \r\n            require(unStakedAmount >= rewardAmount,\"Reward is larger than principal\");                 \r\n        }\r\n        if(rewardAmount > 0){\r\n            token.amount = chargeFee(token.amount, rewardAmount, actor);\r\n        }        \r\n        uint256 returnedToOwnerAmount = token.amount;\r\n        if(StakeableTokenContract.transfer(owner, returnedToOwnerAmount)){\r\n            token.amount = token.amount - returnedToOwnerAmount;\r\n        }\r\n        if(token.amount == 0){\r\n            _burn(tokenId);\r\n            delete idToToken[tokenId];\r\n        }\r\n        emit PortableStakeEnd(\r\n            tokenId, \r\n            token.stakeId, \r\n            owner, \r\n            msg.sender, \r\n            stakedAmount, \r\n            unStakedAmount,\r\n            rewardAmount,\r\n            returnedToOwnerAmount,\r\n            startDay,\r\n            stakeLength,\r\n            lateDays\r\n        );\r\n    }    \r\n    function _endStake(uint40 id, uint256 index)internal returns(\r\n        uint256 currentDay, \r\n        uint256 stakedAmount,\r\n        uint256 unStakedAmount, \r\n        uint16 startDay,\r\n        uint16 stakeLength,\r\n        uint8 lateDays\r\n        ){\r\n        currentDay = StakeableTokenContract.currentDay();\r\n        //Get the stake details\r\n        (\r\n            uint40 stakeId, \r\n            uint72 stakedHearts,\r\n            /* uint72 stakeShares */, \r\n            uint16 lockedDay, \r\n            uint16 stakedDays,\r\n            /* uint16 unlockedDay */,\r\n            /* bool isAutoStake */\r\n        ) = StakeableTokenContract.stakeLists(address(this), index);\r\n        require(id == stakeId);\r\n        stakedAmount = stakedHearts;\r\n        startDay = lockedDay;\r\n        stakeLength = stakedDays;\r\n        uint16 servedDays = uint16(currentDay - lockedDay);\r\n        require(servedDays >= stakedDays, \"stake is not mature\");\r\n        \r\n        lateDays = uint8(servedDays - stakedDays);\r\n        uint256 initialBalance = StakeableTokenContract.balanceOf(address(this));        \r\n        StakeableTokenContract.stakeEnd(index, stakeId);\r\n        uint256 finalBalance = StakeableTokenContract.balanceOf(address(this));\r\n        require(finalBalance > initialBalance, \"stake yield <= 0\");\r\n        unStakedAmount = finalBalance - initialBalance;\r\n    }    \r\n}\r\ncontract PortableStakePerformanceTesting is PortableStake{\r\n    //Token id counter is incremented in all functions. \r\n    //The increment alone is measured in the first function\r\n    //It can then be subtracted from other results to determine the actual gas effect of the rest of function.\r\n    //All tests are done using 200 optimisations\r\n    constructor (StakeableToken stakeableTokenContract, uint8 minStakeDays, uint16 maxStakeDays)\r\n    PortableStake(stakeableTokenContract,minStakeDays,maxStakeDays)\r\n    {}\r\n    /**27 212 gas */\r\n    function incrementTokenIdCounter()external{//\r\n        TokenIdCounter++;\r\n    }\r\n    /**30 612 gas => 3 400 gas*/\r\n    function checkInput(uint256 amount, uint16 stakeDays)external {\r\n        TokenIdCounter++;\r\n        _checkInput(MintingInfo(address(msg.sender),address(0), amount, 0,stakeDays, DEFAULT_REWARD_STRETCHING));\r\n    }\r\n    /**47 610 gas => 20 400 gas*/\r\n    function takePosession(address owner,uint256 amount)external{\r\n        TokenIdCounter++;\r\n        _takePosession(owner, amount);\r\n    }\r\n   /**183 170 gas => 156 000 gas*/\r\n    function mintToken(uint40 stakeId, uint256 stakeIndex, uint8 stretch, address owner)external{\r\n        TokenIdCounter++;\r\n        _mintToken(stakeId, stakeIndex, stretch, owner);\r\n    }\r\n    /**73 682 gas => 46 400 gas*/\r\n     function calculateAndChargeFees(uint256 principal, uint256 requestedReferrerFee, address referrer)external{\r\n         TokenIdCounter++;\r\n         _calculateAndChargeFees(principal, requestedReferrerFee, referrer);\r\n     }\r\n    /**111 078 gas => 83 900 gas*/\r\n    function startStake(uint256 amount, uint16 stakeDays)external{\r\n        TokenIdCounter++;\r\n        _startStake(amount, stakeDays);\r\n    }\r\n       /**33 890 gas => 6 600 gas*/\r\n    function confirmStake(uint256 index)external{\r\n        TokenIdCounter++;\r\n        _confirmStake(index);\r\n    }\r\n}",
  "sourcePath": "C:/Users/ulvei/source/hexbonds/contracts/Stakeable/PortableStake.sol",
  "compiler": {
    "name": "solc",
    "version": "0.8.0+commit.c7dfd78e.Emscripten.clang"
  },
  "schemaVersion": "3.4.0",
  "updatedAt": "2021-05-18T14:03:00.177Z",
  "devdoc": {
    "kind": "dev",
    "methods": {
      "approve(address,uint256)": {
        "details": "Set or reaffirm the approved address for an NFT. This function can be changed to payable.",
        "params": {
          "_approved": "Address to be approved for the given NFT ID.",
          "_tokenId": "ID of the token to be approved."
        }
      },
      "balanceOf(address)": {
        "details": "Returns the number of NFTs owned by `_owner`. NFTs assigned to the zero address are considered invalid, and this function throws for queries about the zero address.",
        "params": {
          "_owner": "Address for whom to query the balance."
        },
        "returns": {
          "_0": "Balance of _owner."
        }
      },
      "getApproved(uint256)": {
        "details": "Get the approved address for a single NFT.",
        "params": {
          "_tokenId": "ID of the NFT to query the approval of."
        },
        "returns": {
          "_0": "Address that _tokenId is approved for."
        }
      },
      "isApprovedForAll(address,address)": {
        "details": "Checks if `_operator` is an approved operator for `_owner`.",
        "params": {
          "_operator": "The address that acts on behalf of the owner.",
          "_owner": "The address that owns the NFTs."
        },
        "returns": {
          "_0": "True if approved for all, false otherwise."
        }
      },
      "name()": {
        "details": "Returns a descriptive name for a collection of NFTs in this contract. ",
        "returns": {
          "_name": "Representing name."
        }
      },
      "owner()": {
        "details": "Returns the address of the current owner."
      },
      "ownerOf(uint256)": {
        "details": "Returns the address of the owner of the NFT. NFTs assigned to the zero address are considered invalid, and queries about them do throw.",
        "params": {
          "_tokenId": "The identifier for an NFT."
        },
        "returns": {
          "_owner": "Address of _tokenId owner."
        }
      },
      "renounceOwnership()": {
        "details": "Leaves the contract without owner. It will not be possible to call `onlyOwner` functions anymore. Can only be called by the current owner. NOTE: Renouncing ownership will leave the contract without an owner, thereby removing any functionality that is only available to the owner."
      },
      "safeTransferFrom(address,address,uint256)": {
        "details": "Transfers the ownership of an NFT from one address to another address. This function can be changed to payable.",
        "params": {
          "_from": "The current owner of the NFT.",
          "_to": "The new owner.",
          "_tokenId": "The NFT to transfer."
        }
      },
      "safeTransferFrom(address,address,uint256,bytes)": {
        "details": "Transfers the ownership of an NFT from one address to another address. This function can be changed to payable.",
        "params": {
          "_data": "Additional data with no specified format, sent in call to `_to`.",
          "_from": "The current owner of the NFT.",
          "_to": "The new owner.",
          "_tokenId": "The NFT to transfer."
        }
      },
      "setApprovalForAll(address,bool)": {
        "details": "Enables or disables approval for a third party (\"operator\") to manage all of `msg.sender`'s assets. It also emits the ApprovalForAll event.",
        "params": {
          "_approved": "True if the operators is approved, false to revoke approval.",
          "_operator": "Address to add to the set of authorized operators."
        }
      },
      "supportsInterface(bytes4)": {
        "details": "Function to check which interfaces are suported by this contract.",
        "params": {
          "_interfaceID": "Id of the interface."
        },
        "returns": {
          "_0": "True if _interfaceID is supported, false otherwise."
        }
      },
      "symbol()": {
        "details": "Returns a abbreviated name for a collection of NFTs in this contract. Not applicable.",
        "returns": {
          "_symbol": "Representing symbol."
        }
      },
      "tokenByIndex(uint256)": {
        "details": "Returns NFT ID by its index.",
        "params": {
          "_index": "A counter less than `totalSupply()`."
        },
        "returns": {
          "_0": "Token id."
        }
      },
      "tokenOfOwnerByIndex(address,uint256)": {
        "details": "returns the n-th NFT ID from a list of owner's tokens.",
        "params": {
          "_index": "Index number representing n-th token in owner's list of tokens.",
          "_owner": "Token owner's address."
        },
        "returns": {
          "_0": "Token id."
        }
      },
      "tokenURI(uint256)": {
        "details": "Returns a distinct Uniform Resource Identifier (URI) for a given asset. It Throws if `_tokenId` is not a valid NFT. URIs are defined in RFC3986. The URI may point to a JSON file that conforms to the \"ERC721 Metadata JSON Schema\".",
        "returns": {
          "_0": "URI of _tokenId."
        }
      },
      "totalSupply()": {
        "details": "Returns the count of all existing NFTokens.",
        "returns": {
          "_0": "Total supply of NFTs."
        }
      },
      "transferFrom(address,address,uint256)": {
        "details": "Throws unless `msg.sender` is the current owner, an authorized operator, or the approved address for this NFT. Throws if `_from` is not the current owner. Throws if `_to` is the zero address. Throws if `_tokenId` is not a valid NFT. This function can be changed to payable.",
        "params": {
          "_from": "The current owner of the NFT.",
          "_to": "The new owner.",
          "_tokenId": "The NFT to transfer."
        }
      },
      "transferOwnership(address)": {
        "details": "Transfers ownership of the contract to a new account (`newOwner`). Can only be called by the current owner."
      }
    },
    "version": 1
  },
  "userdoc": {
    "kind": "user",
    "methods": {
      "TokenIdCounter()": {
        "notice": "Represents the next token id to use. Increment after using."
      },
      "_checkInput((address,address,uint256,uint256,uint16,uint8))": {
        "notice": "Consumes 3 400 gas "
      },
      "approve(address,uint256)": {
        "notice": "The zero address indicates there is no approved address. Throws unless `msg.sender` is the current NFT owner, or an authorized operator of the current owner."
      },
      "calculateAndChargeFees(uint256,uint256,address)": {
        "notice": "73 682 gas => 46 400 gas"
      },
      "calculateReward(uint256,uint8,uint8)": {
        "notice": "Consumes 65 000 gas "
      },
      "checkInput(uint256,uint16)": {
        "notice": "30 612 gas => 3 400 gas"
      },
      "confirmStake(uint256)": {
        "notice": "33 890 gas => 6 600 gas"
      },
      "getApproved(uint256)": {
        "notice": "Throws if `_tokenId` is not a valid NFT."
      },
      "incrementTokenIdCounter()": {
        "notice": "27 212 gas "
      },
      "mintMaxDays(uint256)": {
        "notice": "Takes possession of the amount     Subtracts fees Stakes the amount Mints token"
      },
      "mintToken(uint40,uint256,uint8,address)": {
        "notice": "183 170 gas => 156 000 gas"
      },
      "safeTransferFrom(address,address,uint256)": {
        "notice": "This works identically to the other function with an extra data parameter, except this function just sets data to \"\""
      },
      "safeTransferFrom(address,address,uint256,bytes)": {
        "notice": "Throws unless `msg.sender` is the current owner, an authorized operator, or the approved address for this NFT. Throws if `_from` is not the current owner. Throws if `_to` is the zero address. Throws if `_tokenId` is not a valid NFT. When transfer is complete, this function checks if `_to` is a smart contract (code size > 0). If so, it calls `onERC721Received` on `_to` and throws if the return value is not `bytes4(keccak256(\"onERC721Received(address,uint256,bytes)\"))`."
      },
      "setApprovalForAll(address,bool)": {
        "notice": "This works even if sender doesn't own any tokens at the time."
      },
      "startStake(uint256,uint16)": {
        "notice": "111 078 gas => 83 900 gas"
      },
      "takePosession(address,uint256)": {
        "notice": "47 610 gas => 20 400 gas"
      },
      "transferFrom(address,address,uint256)": {
        "notice": "The caller is responsible to confirm that `_to` is capable of receiving NFTs or else they may be permanently lost."
      }
    },
    "version": 1
  }
}