{
  "contractName": "StakeableTokenMock",
  "abi": [
    {
      "anonymous": false,
      "inputs": [
        {
          "indexed": true,
          "internalType": "address",
          "name": "owner",
          "type": "address"
        },
        {
          "indexed": true,
          "internalType": "address",
          "name": "spender",
          "type": "address"
        },
        {
          "indexed": false,
          "internalType": "uint256",
          "name": "value",
          "type": "uint256"
        }
      ],
      "name": "Approval",
      "type": "event"
    },
    {
      "anonymous": false,
      "inputs": [
        {
          "indexed": false,
          "internalType": "uint256",
          "name": "data0",
          "type": "uint256"
        },
        {
          "indexed": false,
          "internalType": "uint256",
          "name": "data1",
          "type": "uint256"
        },
        {
          "indexed": true,
          "internalType": "bytes20",
          "name": "btcAddr",
          "type": "bytes20"
        },
        {
          "indexed": true,
          "internalType": "address",
          "name": "claimToAddr",
          "type": "address"
        },
        {
          "indexed": true,
          "internalType": "address",
          "name": "referrerAddr",
          "type": "address"
        }
      ],
      "name": "Claim",
      "type": "event"
    },
    {
      "anonymous": false,
      "inputs": [
        {
          "indexed": false,
          "internalType": "uint256",
          "name": "data0",
          "type": "uint256"
        },
        {
          "indexed": false,
          "internalType": "uint256",
          "name": "data1",
          "type": "uint256"
        },
        {
          "indexed": false,
          "internalType": "uint256",
          "name": "data2",
          "type": "uint256"
        },
        {
          "indexed": true,
          "internalType": "address",
          "name": "senderAddr",
          "type": "address"
        }
      ],
      "name": "ClaimAssist",
      "type": "event"
    },
    {
      "anonymous": false,
      "inputs": [
        {
          "indexed": false,
          "internalType": "uint256",
          "name": "data0",
          "type": "uint256"
        },
        {
          "indexed": true,
          "internalType": "address",
          "name": "updaterAddr",
          "type": "address"
        }
      ],
      "name": "DailyDataUpdate",
      "type": "event"
    },
    {
      "anonymous": false,
      "inputs": [
        {
          "indexed": false,
          "internalType": "uint256",
          "name": "data0",
          "type": "uint256"
        },
        {
          "indexed": true,
          "internalType": "uint40",
          "name": "stakeId",
          "type": "uint40"
        }
      ],
      "name": "ShareRateChange",
      "type": "event"
    },
    {
      "anonymous": false,
      "inputs": [
        {
          "indexed": false,
          "internalType": "uint256",
          "name": "data0",
          "type": "uint256"
        },
        {
          "indexed": false,
          "internalType": "uint256",
          "name": "data1",
          "type": "uint256"
        },
        {
          "indexed": true,
          "internalType": "address",
          "name": "stakerAddr",
          "type": "address"
        },
        {
          "indexed": true,
          "internalType": "uint40",
          "name": "stakeId",
          "type": "uint40"
        }
      ],
      "name": "StakeEnd",
      "type": "event"
    },
    {
      "anonymous": false,
      "inputs": [
        {
          "indexed": false,
          "internalType": "uint256",
          "name": "data0",
          "type": "uint256"
        },
        {
          "indexed": false,
          "internalType": "uint256",
          "name": "data1",
          "type": "uint256"
        },
        {
          "indexed": true,
          "internalType": "address",
          "name": "stakerAddr",
          "type": "address"
        },
        {
          "indexed": true,
          "internalType": "uint40",
          "name": "stakeId",
          "type": "uint40"
        },
        {
          "indexed": true,
          "internalType": "address",
          "name": "senderAddr",
          "type": "address"
        }
      ],
      "name": "StakeGoodAccounting",
      "type": "event"
    },
    {
      "anonymous": false,
      "inputs": [
        {
          "indexed": false,
          "internalType": "uint256",
          "name": "data0",
          "type": "uint256"
        },
        {
          "indexed": true,
          "internalType": "address",
          "name": "stakerAddr",
          "type": "address"
        },
        {
          "indexed": true,
          "internalType": "uint40",
          "name": "stakeId",
          "type": "uint40"
        }
      ],
      "name": "StakeStart",
      "type": "event"
    },
    {
      "anonymous": false,
      "inputs": [
        {
          "indexed": true,
          "internalType": "address",
          "name": "from",
          "type": "address"
        },
        {
          "indexed": true,
          "internalType": "address",
          "name": "to",
          "type": "address"
        },
        {
          "indexed": false,
          "internalType": "uint256",
          "name": "value",
          "type": "uint256"
        }
      ],
      "name": "Transfer",
      "type": "event"
    },
    {
      "anonymous": false,
      "inputs": [
        {
          "indexed": false,
          "internalType": "uint256",
          "name": "data0",
          "type": "uint256"
        },
        {
          "indexed": true,
          "internalType": "address",
          "name": "memberAddr",
          "type": "address"
        },
        {
          "indexed": true,
          "internalType": "uint256",
          "name": "entryId",
          "type": "uint256"
        },
        {
          "indexed": true,
          "internalType": "address",
          "name": "referrerAddr",
          "type": "address"
        }
      ],
      "name": "XfLobbyEnter",
      "type": "event"
    },
    {
      "anonymous": false,
      "inputs": [
        {
          "indexed": false,
          "internalType": "uint256",
          "name": "data0",
          "type": "uint256"
        },
        {
          "indexed": true,
          "internalType": "address",
          "name": "memberAddr",
          "type": "address"
        },
        {
          "indexed": true,
          "internalType": "uint256",
          "name": "entryId",
          "type": "uint256"
        },
        {
          "indexed": true,
          "internalType": "address",
          "name": "referrerAddr",
          "type": "address"
        }
      ],
      "name": "XfLobbyExit",
      "type": "event"
    },
    {
      "inputs": [],
      "name": "allocatedSupply",
      "outputs": [
        {
          "internalType": "uint256",
          "name": "",
          "type": "uint256"
        }
      ],
      "stateMutability": "view",
      "type": "function",
      "constant": true
    },
    {
      "inputs": [
        {
          "internalType": "address",
          "name": "owner",
          "type": "address"
        },
        {
          "internalType": "address",
          "name": "spender",
          "type": "address"
        }
      ],
      "name": "allowance",
      "outputs": [
        {
          "internalType": "uint256",
          "name": "",
          "type": "uint256"
        }
      ],
      "stateMutability": "view",
      "type": "function",
      "constant": true
    },
    {
      "inputs": [
        {
          "internalType": "address",
          "name": "spender",
          "type": "address"
        },
        {
          "internalType": "uint256",
          "name": "value",
          "type": "uint256"
        }
      ],
      "name": "approve",
      "outputs": [
        {
          "internalType": "bool",
          "name": "",
          "type": "bool"
        }
      ],
      "stateMutability": "nonpayable",
      "type": "function"
    },
    {
      "inputs": [
        {
          "internalType": "address",
          "name": "owner",
          "type": "address"
        }
      ],
      "name": "balanceOf",
      "outputs": [
        {
          "internalType": "uint256",
          "name": "",
          "type": "uint256"
        }
      ],
      "stateMutability": "view",
      "type": "function",
      "constant": true
    },
    {
      "inputs": [
        {
          "internalType": "bytes20",
          "name": "",
          "type": "bytes20"
        }
      ],
      "name": "btcAddressClaims",
      "outputs": [
        {
          "internalType": "bool",
          "name": "",
          "type": "bool"
        }
      ],
      "stateMutability": "view",
      "type": "function",
      "constant": true
    },
    {
      "inputs": [],
      "name": "currentDay",
      "outputs": [
        {
          "internalType": "uint256",
          "name": "",
          "type": "uint256"
        }
      ],
      "stateMutability": "view",
      "type": "function",
      "constant": true
    },
    {
      "inputs": [
        {
          "internalType": "uint256",
          "name": "",
          "type": "uint256"
        }
      ],
      "name": "dailyData",
      "outputs": [
        {
          "internalType": "uint72",
          "name": "dayPayoutTotal",
          "type": "uint72"
        },
        {
          "internalType": "uint72",
          "name": "dayStakeSharesTotal",
          "type": "uint72"
        },
        {
          "internalType": "uint56",
          "name": "dayUnclaimedSatoshisTotal",
          "type": "uint56"
        }
      ],
      "stateMutability": "view",
      "type": "function",
      "constant": true
    },
    {
      "inputs": [
        {
          "internalType": "uint256",
          "name": "beginDay",
          "type": "uint256"
        },
        {
          "internalType": "uint256",
          "name": "endDay",
          "type": "uint256"
        }
      ],
      "name": "dailyDataRange",
      "outputs": [
        {
          "internalType": "uint256[]",
          "name": "list",
          "type": "uint256[]"
        }
      ],
      "stateMutability": "view",
      "type": "function",
      "constant": true
    },
    {
      "inputs": [
        {
          "internalType": "uint256",
          "name": "beforeDay",
          "type": "uint256"
        }
      ],
      "name": "dailyDataUpdate",
      "outputs": [],
      "stateMutability": "nonpayable",
      "type": "function"
    },
    {
      "inputs": [],
      "name": "decimals",
      "outputs": [
        {
          "internalType": "uint8",
          "name": "",
          "type": "uint8"
        }
      ],
      "stateMutability": "view",
      "type": "function",
      "constant": true
    },
    {
      "inputs": [
        {
          "internalType": "address",
          "name": "spender",
          "type": "address"
        },
        {
          "internalType": "uint256",
          "name": "subtractedValue",
          "type": "uint256"
        }
      ],
      "name": "decreaseAllowance",
      "outputs": [
        {
          "internalType": "bool",
          "name": "",
          "type": "bool"
        }
      ],
      "stateMutability": "nonpayable",
      "type": "function"
    },
    {
      "inputs": [],
      "name": "globalInfo",
      "outputs": [
        {
          "internalType": "uint256[13]",
          "name": "",
          "type": "uint256[13]"
        }
      ],
      "stateMutability": "view",
      "type": "function",
      "constant": true
    },
    {
      "inputs": [],
      "name": "globals",
      "outputs": [
        {
          "internalType": "uint72",
          "name": "lockedHeartsTotal",
          "type": "uint72"
        },
        {
          "internalType": "uint72",
          "name": "nextStakeSharesTotal",
          "type": "uint72"
        },
        {
          "internalType": "uint40",
          "name": "shareRate",
          "type": "uint40"
        },
        {
          "internalType": "uint72",
          "name": "stakePenaltyTotal",
          "type": "uint72"
        },
        {
          "internalType": "uint16",
          "name": "dailyDataCount",
          "type": "uint16"
        },
        {
          "internalType": "uint72",
          "name": "stakeSharesTotal",
          "type": "uint72"
        },
        {
          "internalType": "uint40",
          "name": "latestStakeId",
          "type": "uint40"
        },
        {
          "internalType": "uint128",
          "name": "claimStats",
          "type": "uint128"
        }
      ],
      "stateMutability": "view",
      "type": "function",
      "constant": true
    },
    {
      "inputs": [
        {
          "internalType": "address",
          "name": "spender",
          "type": "address"
        },
        {
          "internalType": "uint256",
          "name": "addedValue",
          "type": "uint256"
        }
      ],
      "name": "increaseAllowance",
      "outputs": [
        {
          "internalType": "bool",
          "name": "",
          "type": "bool"
        }
      ],
      "stateMutability": "nonpayable",
      "type": "function"
    },
    {
      "inputs": [
        {
          "internalType": "address",
          "name": "to",
          "type": "address"
        },
        {
          "internalType": "uint256",
          "name": "value",
          "type": "uint256"
        }
      ],
      "name": "mint",
      "outputs": [
        {
          "internalType": "bool",
          "name": "",
          "type": "bool"
        }
      ],
      "stateMutability": "nonpayable",
      "type": "function"
    },
    {
      "inputs": [],
      "name": "name",
      "outputs": [
        {
          "internalType": "string",
          "name": "",
          "type": "string"
        }
      ],
      "stateMutability": "view",
      "type": "function",
      "constant": true
    },
    {
      "inputs": [
        {
          "internalType": "address",
          "name": "stakerAddr",
          "type": "address"
        }
      ],
      "name": "stakeCount",
      "outputs": [
        {
          "internalType": "uint256",
          "name": "",
          "type": "uint256"
        }
      ],
      "stateMutability": "view",
      "type": "function",
      "constant": true
    },
    {
      "inputs": [
        {
          "internalType": "uint256",
          "name": "stakeIndex",
          "type": "uint256"
        },
        {
          "internalType": "uint40",
          "name": "stakeIdParam",
          "type": "uint40"
        }
      ],
      "name": "stakeEnd",
      "outputs": [],
      "stateMutability": "nonpayable",
      "type": "function"
    },
    {
      "inputs": [
        {
          "internalType": "address",
          "name": "stakerAddr",
          "type": "address"
        },
        {
          "internalType": "uint256",
          "name": "stakeIndex",
          "type": "uint256"
        },
        {
          "internalType": "uint40",
          "name": "stakeIdParam",
          "type": "uint40"
        }
      ],
      "name": "stakeGoodAccounting",
      "outputs": [],
      "stateMutability": "nonpayable",
      "type": "function"
    },
    {
      "inputs": [
        {
          "internalType": "address",
          "name": "",
          "type": "address"
        },
        {
          "internalType": "uint256",
          "name": "",
          "type": "uint256"
        }
      ],
      "name": "stakeLists",
      "outputs": [
        {
          "internalType": "uint40",
          "name": "stakeId",
          "type": "uint40"
        },
        {
          "internalType": "uint72",
          "name": "stakedHearts",
          "type": "uint72"
        },
        {
          "internalType": "uint72",
          "name": "stakeShares",
          "type": "uint72"
        },
        {
          "internalType": "uint16",
          "name": "lockedDay",
          "type": "uint16"
        },
        {
          "internalType": "uint16",
          "name": "stakedDays",
          "type": "uint16"
        },
        {
          "internalType": "uint16",
          "name": "unlockedDay",
          "type": "uint16"
        },
        {
          "internalType": "bool",
          "name": "isAutoStake",
          "type": "bool"
        }
      ],
      "stateMutability": "view",
      "type": "function",
      "constant": true
    },
    {
      "inputs": [
        {
          "internalType": "uint256",
          "name": "newStakedHearts",
          "type": "uint256"
        },
        {
          "internalType": "uint256",
          "name": "newStakedDays",
          "type": "uint256"
        }
      ],
      "name": "stakeStart",
      "outputs": [],
      "stateMutability": "nonpayable",
      "type": "function"
    },
    {
      "inputs": [],
      "name": "symbol",
      "outputs": [
        {
          "internalType": "string",
          "name": "",
          "type": "string"
        }
      ],
      "stateMutability": "view",
      "type": "function",
      "constant": true
    },
    {
      "inputs": [],
      "name": "totalSupply",
      "outputs": [
        {
          "internalType": "uint256",
          "name": "",
          "type": "uint256"
        }
      ],
      "stateMutability": "view",
      "type": "function",
      "constant": true
    },
    {
      "inputs": [
        {
          "internalType": "address",
          "name": "to",
          "type": "address"
        },
        {
          "internalType": "uint256",
          "name": "value",
          "type": "uint256"
        }
      ],
      "name": "transfer",
      "outputs": [
        {
          "internalType": "bool",
          "name": "",
          "type": "bool"
        }
      ],
      "stateMutability": "nonpayable",
      "type": "function"
    },
    {
      "inputs": [
        {
          "internalType": "address",
          "name": "from",
          "type": "address"
        },
        {
          "internalType": "address",
          "name": "to",
          "type": "address"
        },
        {
          "internalType": "uint256",
          "name": "value",
          "type": "uint256"
        }
      ],
      "name": "transferFrom",
      "outputs": [
        {
          "internalType": "bool",
          "name": "",
          "type": "bool"
        }
      ],
      "stateMutability": "nonpayable",
      "type": "function"
    },
    {
      "inputs": [
        {
          "internalType": "uint256",
          "name": "",
          "type": "uint256"
        }
      ],
      "name": "xfLobby",
      "outputs": [
        {
          "internalType": "uint256",
          "name": "",
          "type": "uint256"
        }
      ],
      "stateMutability": "view",
      "type": "function",
      "constant": true
    },
    {
      "inputs": [
        {
          "internalType": "uint256",
          "name": "",
          "type": "uint256"
        },
        {
          "internalType": "address",
          "name": "",
          "type": "address"
        }
      ],
      "name": "xfLobbyMembers",
      "outputs": [
        {
          "internalType": "uint40",
          "name": "headIndex",
          "type": "uint40"
        },
        {
          "internalType": "uint40",
          "name": "tailIndex",
          "type": "uint40"
        }
      ],
      "stateMutability": "view",
      "type": "function",
      "constant": true
    },
    {
      "inputs": [
        {
          "internalType": "uint256",
          "name": "day",
          "type": "uint256"
        }
      ],
      "name": "setCurrentDay",
      "outputs": [],
      "stateMutability": "nonpayable",
      "type": "function"
    }
  ],
  "bytecode": "0x60806040526000600a553480156200001657600080fd5b5062000027620186a06001620000ba565b6003805464ffffffffff92909216600160901b0264ffffffffff60901b199092169190911790556004805461ffff191660011790556200007160008066066c277de83e9c62000094565b600480546001600160801b03928316600160801b029216919091179055620000e6565b600080620000a560336002620000ba565b9490941b60339390931b929092171792915050565b6000816000190483118215151615620000e157634e487b7160e01b81526011600452602481fd5b500290565b6131b080620000f66000396000f3fe608060405234801561001057600080fd5b50600436106101c45760003560e01c806365cf71b2116100f957806395d89b4111610097578063a9059cbb11610071578063a9059cbb146103c3578063c3124525146103d6578063dd62ed3e146103f2578063f04b5fa014610405576101c4565b806395d89b41146101c95780639c2063f11461039d578063a457c2d7146103b0576101c4565b80637c426620116100d35780637c4266201461034257806387a0f31c146103555780638f1c65c01461036857806390de68711461037b576101c4565b806365cf71b2146102fc5780636a210a0e1461030f57806370a082311461032f576101c4565b8063343009a21161016657806340c10f191161014057806340c10f19146102ad57806344203faf146102c057806352a438b8146102e15780635c9302c9146102f4576101c4565b8063343009a21461027d57806339509351146102925780633a70a5ca146102a5576101c4565b806323b872dd116101a257806323b872dd1461021c5780632607443b1461022f578063313ce5671461025557806333060d901461026a576101c4565b806306fdde03146101c9578063095ea7b3146101e757806318160ddd14610207575b600080fd5b6101d161041a565b6040516101de9190612b79565b60405180910390f35b6101fa6101f53660046129ea565b610439565b6040516101de9190612b6e565b61020f6104b9565b6040516101de9190612e90565b6101fa61022a3660046129af565b6104bf565b61024261023d3660046129ea565b610586565b6040516101de9796959493929190612ebf565b61025d610602565b6040516101de9190612f94565b61020f610278366004612963565b610607565b61029061028b366004612ad6565b610626565b005b6101fa6102a03660046129ea565b61085e565b61020f6108f9565b6101fa6102bb3660046129ea565b61091f565b6102d36102ce366004612a93565b610934565b6040516101de929190612ea7565b6102906102ef366004612ab5565b610963565b61020f6109ce565b61029061030a366004612a13565b6109d8565b61032261031d366004612ab5565b610b83565b6040516101de9190612b2a565b61020f61033d366004612963565b610cc4565b6101fa610350366004612a4e565b610cdf565b61020f610363366004612a7b565b610cf4565b610290610376366004612a7b565b610d06565b61038e610389366004612a7b565b610da1565b6040516101de93929190612f68565b6102906103ab366004612a7b565b610dda565b6101fa6103be3660046129ea565b610e17565b6101fa6103d13660046129ea565b610e5a565b6103de610e67565b6040516101de989796959493929190612f0b565b61020f61040036600461297d565b610ecb565b61040d610ef6565b6040516101de9190612af8565b604051806040016040528060038152602001620908ab60eb1b81525081565b60006001600160a01b03831661044e57600080fd5b3360008181526001602090815260408083206001600160a01b03881680855292529182902085905590519091907f8c5be1e5ebec7d5bd14f71427d1e84f3dd0314c0f7b2291e5b200ac8c7c3b925906104a8908690612e90565b60405180910390a350600192915050565b60025490565b6001600160a01b03831660009081526001602090815260408083203384529091528120546104ed9083610ff7565b6001600160a01b038516600090815260016020908152604080832033845290915290205561051c84848461101a565b6001600160a01b0384166000818152600160209081526040808320338085529252918290205491519092917f8c5be1e5ebec7d5bd14f71427d1e84f3dd0314c0f7b2291e5b200ac8c7c3b925916105739190612e90565b60405180910390a35060015b9392505050565b600760205281600052604060002081815481106105a257600080fd5b60009182526020909120015464ffffffffff811692506001600160481b03600160281b820481169250600160701b8204169061ffff600160b81b8204811691600160c81b8104821691600160d81b8204169060ff600160e81b9091041687565b600881565b6001600160a01b0381166000908152600760205260409020545b919050565b61062e612850565b610636612850565b61064082826110de565b33600090815260076020526040902080546106765760405162461bcd60e51b815260040161066d90612ca6565b60405180910390fd5b805485106106965760405162461bcd60e51b815260040161066d90612d34565b61069e6128b1565b6106d28287815481106106c157634e487b7160e01b600052603260045260246000fd5b906000526020600020018683611190565b6106db8461122e565b6000808260a001516000141590506000806000905060008086606001518a610140015110610794578415610715578660800151955061077a565b61071f8a88611242565b86606001518a6101400151610734919061310d565b9550866080015186111561074e578660800151955061077a565b61015e86101561077a578660c001511561077a5760405162461bcd60e51b815260040161066d90612db1565b6107858a888861126a565b929650909450925090506107d7565b8660c00151156107b65760405162461bcd60e51b815260040161066d90612db1565b86604001518a6020018181516107cc919061310d565b905250602087015193505b6107ee8b8860200151896040015186868b8b61132e565b80158015906107fb575084155b1561080a5761080a8a826113ea565b83156108255761081a3385611443565b6108258a88866114e4565b60208701518a518b9061083990839061310d565b905250610846888d61157e565b6108508a8a611725565b505050505050505050505050565b60006001600160a01b03831661087357600080fd5b3360009081526001602090815260408083206001600160a01b03871684529091529020546108a19083611918565b3360008181526001602090815260408083206001600160a01b038916808552925291829020849055905190927f8c5be1e5ebec7d5bd14f71427d1e84f3dd0314c0f7b2291e5b200ac8c7c3b925916104a89190612e90565b6003546000906001600160481b03166109106104b9565b61091a9190612fa2565b905090565b600061092b8383611443565b50600192915050565b600960209081526000928352604080842090915290825290205464ffffffffff80821691600160281b90041682565b61096b612850565b610973612850565b61097d82826110de565b600183101561099e5760405162461bcd60e51b815260040161066d90612e4b565b6109a78261122e565b6109b48285856000611934565b6109be3385611a5d565b6109c88282611725565b50505050565b600061091a611aef565b6109e0612850565b6109e8612850565b6109f282826110de565b6001600160a01b038516600090815260076020526040902054610a275760405162461bcd60e51b815260040161066d90612ca6565b6001600160a01b0385166000908152600760205260409020548410610a5e5760405162461bcd60e51b815260040161066d90612d34565b6001600160a01b0385166000908152600760205260408120805486908110610a9657634e487b7160e01b600052603260045260246000fd5b906000526020600020019050610aaa6128b1565b610ab5828683611190565b80608001518160600151610ac99190612fa2565b8461014001511015610aed5760405162461bcd60e51b815260040161066d90612c6f565b60a081015115610b0f5760405162461bcd60e51b815260040161066d90612cd5565b610b188461122e565b610b228482611242565b6000806000610b368785866080015161126a565b93509350935050610b538a89866020015187604001518787611afc565b8015610b6357610b6387826113ea565b610b6d8585611b96565b610b778787611725565b50505050505050505050565b60608183108015610b9a575060045461ffff168211155b610bb65760405162461bcd60e51b815260040161066d90612de8565b610bc0838361310d565b67ffffffffffffffff811115610be657634e487b7160e01b600052604160045260246000fd5b604051908082528060200260200182016040528015610c0f578160200160208202803683370190505b509050826000805b610c23604860026130ee565b600084815260066020526040902054600160901b810466ffffffffffffff1690911b600160481b820460481b71ffffffffffffffffff00000000000000000016176001600160481b03909116179050808483610c7e81613124565b945081518110610c9e57634e487b7160e01b600052603260045260246000fd5b602090810291909101015284610cb384613124565b93508310610c175750505092915050565b6001600160a01b031660009081526020819052604090205490565b60056020526000908152604090205460ff1681565b60086020526000908152604090205481565b610d0e612850565b610d16612850565b610d2082826110de565b600182610140015111610d455760405162461bcd60e51b815260040161066d90612d0c565b8215610d8157816101400151831115610d705760405162461bcd60e51b815260040161066d90612bcc565b610d7c82846000611c6e565b610d92565b610d92828361014001516000611c6e565b610d9c8282611725565b505050565b6006602052600090815260409020546001600160481b0380821691600160481b810490911690600160901b900466ffffffffffffff1683565b6000610de4611aef565b905080821015610df357600080fd5b610dfd818361310d565b600a6000828254610e0e9190612fa2565b90915550505050565b60006001600160a01b038316610e2c57600080fd5b3360009081526001602090815260408083206001600160a01b03871684529091529020546108a19083610ff7565b600061092b33848461101a565b6003546004546001600160481b0380831692600160481b810482169264ffffffffff600160901b8304811693600160b81b90930483169261ffff83169262010000810490911691600160581b820416906001600160801b03600160801b9091041688565b6001600160a01b03918216600090815260016020908152604080832093909416825291909152205490565b610efe6128f7565b60045460009081908190610f2190600160801b90046001600160801b0316611d3c565b604080516101a0810182526003546001600160481b038082168352600160481b82048116602084015264ffffffffff600160901b8304811694840194909452600160b81b9091048116606083015260045461ffff8116608084015262010000810490911660a0830152600160581b900490911660c082015260e08101829052610100810183905261012081018490524261014082015292955090935091506101608101610fcc6104b9565b815260200160086000610fdd611aef565b815260200190815260200160002054815250935050505090565b60008282111561100657600080fd5b6000611012838561310d565b949350505050565b6001600160a01b03821661102d57600080fd5b6001600160a01b0383166000908152602081905260409020546110509082610ff7565b6001600160a01b03808516600090815260208190526040808220939093559084168152205461107f9082611918565b6001600160a01b0380841660008181526020819052604090819020939093559151908516907fddf252ad1be2c89b69c2b068fc378daa952ba7f163c4a11628f55a4df523b3ef906110d1908590612e90565b60405180910390a3505050565b6003546001600160481b038082168452600160481b82048116602085015264ffffffffff600160901b830481166040860152600160b81b9092048116606085015260045461ffff8116608086015262010000810490911660a0850152600160581b810490911660c0840152611163906001600160801b03600160801b90910416611d3c565b60e085015261010084015261012083015261117c611aef565b61014083015261118c8282611da9565b5050565b825464ffffffffff8381169116146111ba5760405162461bcd60e51b815260040161066d90612e14565b915464ffffffffff811683526001600160481b03600160281b820481166020850152600160701b820416604084015261ffff600160b81b820481166060850152600160c81b820481166080850152600160d81b82041660a084015260ff600160e81b90910416151560c09092019190915250565b61123f818261014001516001611c6e565b50565b80604001518260a001818151611258919061310d565b9052506101409091015160a090910152565b60008060008085608001518510156112b1576112958787606001518860800151888a60400151611e11565b602088015191945092506112aa908490612fa2565b93506112ff565b604086015160608701516112d09189916112cb8982612fa2565b611efd565b92508286602001516112e29190612fa2565b93506112fc866060015187608001518860a0015187612073565b91505b811561132557838211156113165750600092611325565b5080611322818561310d565b93505b93509350935093565b8664ffffffffff16336001600160a01b03167f72d9c5a7ab13846e08d9c838f9e866a1bb4a66a2fd3ba3c9e7da3cf9e394dfd760b8876001600160481b0316901b6070896001600160481b0316901b60288b6001600160481b0316901b4264ffffffffff16171717846113a25760006113a8565b600160581b5b6bffffffffffffffffffffffff1660488761ffff16901b886001600160481b031617176040516113d9929190612e99565b60405180910390a350505050505050565b60006113f7600283612fba565b9050801561141d5761141d739a6a414d6f3497c05e3b1de90520765fa1e07c0382611443565b611427818361310d565b9050808360600181815161143b9190612fa2565b905250505050565b6001600160a01b03821661145657600080fd5b6002546114639082611918565b6002556001600160a01b0382166000908152602081905260409020546114899082611918565b6001600160a01b0383166000818152602081905260408082209390935591519091907fddf252ad1be2c89b69c2b068fc378daa952ba7f163c4a11628f55a4df523b3ef906114d8908590612e90565b60405180910390a35050565b8160200151811115610d9c5760006115008284608001516120d3565b905060008360400151620186a083856115199190612fa2565b61152391906130ee565b61152d9190612fba565b905061153e6001600160281b61310d565b811115611557576115546001600160281b61310d565b90505b84604001518111156115775760408501819052835161157790829061224a565b5050505050565b815460009061158f9060019061310d565b90508082146116e0578281815481106115b857634e487b7160e01b600052603260045260246000fd5b906000526020600020018383815481106115e257634e487b7160e01b600052603260045260246000fd5b6000918252602090912082549101805464ffffffffff90921664ffffffffff199092169190911780825582546dffffffffffffffffff000000000019909116600160281b918290046001600160481b0390811690920217808355835468ffffffffffffffffff60701b19909116600160701b918290049092160217808255825461ffff60b81b19909116600160b81b9182900461ffff90811690920217808355835461ffff60c81b19909116600160c81b91829004831690910217808355835461ffff60d81b19909116600160d81b918290049092160217808255915460ff60e81b19909216600160e81b9283900460ff1615159092029190911790555b828054806116fe57634e487b7160e01b600052603160045260246000fd5b600082815260209020810160001990810180546001600160f01b0319169055019055505050565b8051825114158061173e57508060200151826020015114155b8061175157508060400151826040015114155b8061176457508060600151826060015114155b156117f25781516003805460208501516040860151606087015168ffffffffffffffffff199093166001600160481b039586161768ffffffffffffffffff60481b1916600160481b928616929092029190911764ffffffffff60901b1916600160901b64ffffffffff90921691909102176001600160b81b0316600160b81b93909116929092029190911790555b8060800151826080015114158061181157508060a001518260a0015114155b8061183257508060c0015164ffffffffff168260c0015164ffffffffff1614155b8061184557508060e001518260e0015114155b8061185a575080610100015182610100015114155b8061186f575080610120015182610120015114155b1561118c5760808201516004805460a085015160c086015164ffffffffff16600160581b0264ffffffffff60581b196001600160481b0390921662010000026affffffffffffffffff00001961ffff90961661ffff199094169390931794909416919091171691909117905561012082015161010083015160e08401516118f79291906122a1565b600480546001600160801b03928316600160801b0292169190911790555050565b6000806119258385612fa2565b90508381101561057f57600080fd5b6115b38211156119565760405162461bcd60e51b815260040161066d90612d6b565b600061196284846120d3565b905060008560400151620186a0838761197b9190612fa2565b61198591906130ee565b61198f9190612fba565b9050806119ae5760405162461bcd60e51b815260040161066d90612c12565b60006001876101400151106119d3576101408701516119ce906001612fa2565b6119de565b6119de600180612fa2565b905060008760c00180516119f19061313f565b64ffffffffff1690819052336000908152600760205260409020909150611a1d90828986868b8b6122c5565b611a2a81888589896123f3565b8288602001818151611a3c9190612fa2565b905250875187908990611a50908390612fa2565b9052505050505050505050565b6001600160a01b038216611a7057600080fd5b600254611a7d9082610ff7565b6002556001600160a01b038216600090815260208190526040902054611aa39082610ff7565b6001600160a01b0383166000818152602081905260408082209390935591517fddf252ad1be2c89b69c2b068fc378daa952ba7f163c4a11628f55a4df523b3ef906114d8908590612e90565b6000600a54610910612485565b336001600160a01b03168564ffffffffff16876001600160a01b03167fd824970a2cf19cc2b630c87ce5b00f67301cac3ac60513d027c7a39129f93b4660b8866001600160481b0316901b6070886001600160481b0316901b60288a6001600160481b0316901b4264ffffffffff16171717856001600160481b0316604051611b86929190612e99565b60405180910390a4505050505050565b80518254602083015160408401516060850151608086015160a087015160c09097015164ffffffffff1990951664ffffffffff909616959095176dffffffffffffffffff00000000001916600160281b6001600160481b03948516021768ffffffffffffffffff60701b1916600160701b93909216929092021761ffff60b81b1916600160b81b61ffff928316021761ffff60c81b1916600160c81b938216939093029290921761ffff60d81b1916600160d81b92909316919091029190911760ff60e81b1916600160e81b91151591909102179055565b81836080015110611c7e57610d9c565b611c86612916565b8351611c906104b9565b611c9a9190612fa2565b81526080840151611cac8583836124a3565b602085015115611cd75784602001518560a001818151611ccc9190612fa2565b905250600060208601525b83611ce182613124565b9150811015611cfa57611cf58583836124a3565b611cd7565b611d098560800151828561252e565b6080850181905260208201511561157757611577739a6a414d6f3497c05e3b1de90520765fa1e07c038360200151611443565b60008080611d4c603360026130ee565b6001600160801b0380861690911c169250611d6f6001660800000000000061310d565b603385901c16691fffffffffffffffffff169150611d956001660800000000000061310d565b846001600160801b03161690509193909250565b815181526020808301519082015260408083015190820152606080830151908201526080808301519082015260a0808301519082015260c08083015164ffffffffff169082015260e08083015190820152610100808301519082015261012091820151910152565b60008080611e1f8588612fa2565b905060006002611e30886001612fa2565b611e3a9190612fba565b9050605a811015611e495750605a5b85611e71576000611e5b8a878b6125a5565b9050611e6782826130ee565b9350505050611ef3565b85811015611eba576000611e85828a612fa2565b9050611e938a878b84611efd565b93506000611ea38b888487611efd565b9050611eaf8186612fa2565b955050505050611ef3565b611ec689868a85611efd565b935085811415611ed857839250611ef0565b85611ee382866130ee565b611eed9190612fba565b92505b50505b9550959350505050565b6000825b82811015611f5e576000818152600660205260409020546001600160481b03600160481b8204811691611f36918891166130ee565b611f409190612fba565b611f4a9083612fa2565b915080611f5681613124565b915050611f01565b50611f6b603260076130ee565b611f76906001612fa2565b611f81906001612fa2565b8311158015611fb05750611f97603260076130ee565b611fa2906001612fa2565b611fad906001612fa2565b82115b15611012576000600681611fc6603260076130ee565b611fd1906001612fa2565b611fdc906001612fa2565b8152602081019190915260400160002054600160481b90046001600160481b0316856127106305f5e1006120126008600a613020565b61201c9190612fba565b61202691906130ee565b8860e0015161203591906130ee565b61203f91906130ee565b6120499190612fba565b905061205586826126c2565b61205f9082612fa2565b6120699083612fa2565b9695505050505050565b600080612082600260076130ee565b61208c8688612fa2565b6120969190612fa2565b90508084116120a9576000915050611012565b6120b5606460076130ee565b6120bf828661310d565b6120c990856130ee565b6120699190612fba565b600080600183111561214357606460c86120f06014618e30612fba565b6120fa91906130ee565b6121049190612fba565b83111561213557606460c861211c6014618e30612fba565b61212691906130ee565b6121309190612fba565b612140565b61214060018461310d565b90505b60006121516008600a613020565b61215f906308f0d1806130ee565b851115612185576121726008600a613020565b612180906308f0d1806130ee565b612187565b845b90506121966014618e30612fba565b6121a090826130ee565b600a6121ad600882613020565b6121bb906308f0d1806130ee565b6121c69060646130ee565b6121d09190612fba565b6121da90846130ee565b6121e49190612fa2565b9250600a6121f3600882613020565b612201906308f0d1806130ee565b61220c9060646130ee565b6122169190612fba565b6122236014618e30612fba565b61222d91906130ee565b61223784876130ee565b6122419190612fba565b95945050505050565b8064ffffffffff167f9861fa0ed101659f7a59b4583fcc798dfa4f3b419bea371c8ee2ad0ffe13a31e60288464ffffffffff16901b4264ffffffffff16176040516122959190612e90565b60405180910390a25050565b6000806122b0603360026130ee565b9490941b60339390931b929092171792915050565b6040805160e08101825264ffffffffff97881681526001600160481b03968716602080830191825296881692820192835261ffff9586166060830190815294861660808301908152600060a0840181815295151560c085019081528c54600181018e559c8252989020925192909a0180549151935195519a519451975164ffffffffff1990921692909916919091176dffffffffffffffffff00000000001916600160281b928816929092029190911768ffffffffffffffffff60701b1916600160701b93909616929092029490941761ffff60b81b1916600160b81b968316969096029590951761ffff60c81b1916600160c81b938216939093029290921761ffff60d81b1916600160d81b91909216021760ff60e81b1916600160e81b92151592909202919091179055565b64ffffffffff8516337f14872dc760f33532684e68e1b6d5fd3f71ba7b07dee76bdb2b084f28b74233ef8361242957600061242f565b600160c81b5b6001600160d01b031660b88661ffff16901b6070886001600160481b0316901b60288a6001600160481b0316901b4264ffffffffff16171717176040516124769190612e90565b60405180910390a35050505050565b600062015180612499635fee66004261310d565b61091a9190612fba565b6124ae838383612718565b60409182015160009182526006602052919020805460a084015160e09094015168ffffffffffffffffff199091166001600160481b039384161768ffffffffffffffffff60481b1916600160481b93909416929092029290921766ffffffffffffff60901b1916600160901b66ffffffffffffff90921691909102179055565b337fb8d6eb541ded1720cc657b719f57abcb1fe4711cb7ead82751b135f5d94bc9448261255c576000612562565b600160481b5b69ffffffffffffffffffff1660388561ffff16901b60288761ffff16901b4264ffffffffff161717176040516125989190612e90565b60405180910390a2505050565b60006125af612850565b6125b98582611da9565b6125c1612916565b85516125cb6104b9565b6125d59190612fa2565b81526125e2828286612718565b848260a0018181516125f49190612fa2565b90525060a0820151604082015161260c9087906130ee565b6126169190612fba565b9250612624603260076130ee565b61262f906001612fa2565b61263a906001612fa2565b8414156126b95760a0820151600090866127106305f5e10061265e6008600a613020565b6126689190612fba565b61267291906130ee565b8560e0015161268191906130ee565b61268b91906130ee565b6126959190612fba565b90506126a183826126c2565b6126ab9082612fa2565b6126b59085612fa2565b9350505b50509392505050565b6000806301ab362e846101200151846126db91906130ee565b6126e59190612fba565b9050600066033bb85fc52d998561010001518561270291906130ee565b61270c9190612fba565b90506122418183612fa2565b81516305fcbae39061272c906127106130ee565b6127369190612fba565b6040830152612747603260076130ee565b612752906001612fa2565b811015612821576000612767603260076130ee565b6127106305f5e10061277b6008600a613020565b6127859190612fba565b61278f91906130ee565b8560e0015161279e91906130ee565b6127a89190612fba565b905060006127c5858386604001516127c09190612fa2565b6126c2565b6127cf9083612fa2565b905080846020018181516127e39190612fa2565b9052508351819085906127f7908390612fa2565b905250604084015161280a9086906126c2565b8460400181815161281b9190612fa2565b90525050505b606083015115610d9c578260600151826040018181516128419190612fa2565b90525060006060840152505050565b604051806101600160405280600081526020016000815260200160008152602001600081526020016000815260200160008152602001600064ffffffffff168152602001600081526020016000815260200160008152602001600081525090565b6040518060e00160405280600064ffffffffff16815260200160008152602001600081526020016000815260200160008152602001600081526020016000151581525090565b604051806101a00160405280600d906020820280368337509192915050565b60405180606001604052806000815260200160008152602001600081525090565b80356001600160a01b038116811461062157600080fd5b803564ffffffffff8116811461062157600080fd5b600060208284031215612974578081fd5b61057f82612937565b6000806040838503121561298f578081fd5b61299883612937565b91506129a660208401612937565b90509250929050565b6000806000606084860312156129c3578081fd5b6129cc84612937565b92506129da60208501612937565b9150604084013590509250925092565b600080604083850312156129fc578182fd5b612a0583612937565b946020939093013593505050565b600080600060608486031215612a27578283fd5b612a3084612937565b925060208401359150612a456040850161294e565b90509250925092565b600060208284031215612a5f578081fd5b81356bffffffffffffffffffffffff198116811461057f578182fd5b600060208284031215612a8c578081fd5b5035919050565b60008060408385031215612aa5578182fd5b823591506129a660208401612937565b60008060408385031215612ac7578182fd5b50508035926020909101359150565b60008060408385031215612ae8578182fd5b823591506129a66020840161294e565b6101a08101818360005b600d811015612b21578151835260209283019290910190600101612b02565b50505092915050565b6020808252825182820181905260009190848201906040850190845b81811015612b6257835183529284019291840191600101612b46565b50909695505050505050565b901515815260200190565b6000602080835283518082850152825b81811015612ba557858101830151858201604001528201612b89565b81811115612bb65783604083870101525b50601f01601f1916929092016040019392505050565b60208082526026908201527f4845583a206265666f72654461792063616e6e6f7420626520696e207468652060408201526566757475726560d01b606082015260800190565b60208082526037908201527f4845583a206e65775374616b6564486561727473206d7573742062652061742060408201527f6c65617374206d696e696d756d20736861726552617465000000000000000000606082015260800190565b6020808252601b908201527f4845583a205374616b65206e6f742066756c6c79207365727665640000000000604082015260600190565b6020808252601590820152741211560e88115b5c1d1e481cdd185ad9481b1a5cdd605a1b604082015260600190565b6020808252601b908201527f4845583a205374616b6520616c726561647920756e6c6f636b65640000000000604082015260600190565b6020808252600e908201526d4845583a20546f6f206561726c7960901b604082015260600190565b60208082526017908201527f4845583a207374616b65496e64657820696e76616c6964000000000000000000604082015260600190565b60208082526026908201527f4845583a206e65775374616b65644461797320686967686572207468616e206d6040820152656178696d756d60d01b606082015260800190565b6020808252601c908201527f4845583a204175746f2d7374616b65207374696c6c206c6f636b656400000000604082015260600190565b6020808252601290820152711211560e881c985b99d9481a5b9d985b1a5960721b604082015260600190565b6020808252601e908201527f4845583a207374616b654964506172616d206e6f7420696e207374616b650000604082015260600190565b60208082526025908201527f4845583a206e65775374616b656444617973206c6f776572207468616e206d696040820152646e696d756d60d81b606082015260800190565b90815260200190565b918252602082015260400190565b64ffffffffff92831681529116602082015260400190565b64ffffffffff9790971687526001600160481b03958616602088015293909416604086015261ffff91821660608601528116608085015290911660a0830152151560c082015260e00190565b6001600160481b039889168152968816602088015264ffffffffff9586166040880152938716606087015261ffff92909216608086015290941660a0840152921660c08201526001600160801b0390911660e08201526101000190565b6001600160481b03938416815291909216602082015266ffffffffffffff909116604082015260600190565b60ff91909116815260200190565b60008219821115612fb557612fb5613164565b500190565b600082612fd557634e487b7160e01b81526012600452602481fd5b500490565b80825b6001808611612fec5750613017565b818704821115612ffe57612ffe613164565b8086161561300b57918102915b9490941c938002612fdd565b94509492505050565b600061057f60001984846000826130395750600161057f565b816130465750600061057f565b816001811461305c576002811461306657613093565b600191505061057f565b60ff84111561307757613077613164565b6001841b91508482111561308d5761308d613164565b5061057f565b5060208310610133831016604e8410600b84101617156130c6575081810a838111156130c1576130c1613164565b61057f565b6130d38484846001612fda565b8086048211156130e5576130e5613164565b02949350505050565b600081600019048311821515161561310857613108613164565b500290565b60008282101561311f5761311f613164565b500390565b600060001982141561313857613138613164565b5060010190565b600064ffffffffff8083168181141561315a5761315a613164565b6001019392505050565b634e487b7160e01b600052601160045260246000fdfea264697066735822122013ce9796e6be37fa68c5d76518d45187abd72d928e5f62bd56878aa790a724af64736f6c63430008000033",
  "immutableReferences": {},
  "source": "// SPDX-License-Identifier: Richard Heart\r\npragma solidity ^0.8.0;\r\nimport \"../ERC20/ERC20Mintable.sol\";\r\nimport \"../ERC20/ERC20.sol\";\r\nimport \"./IStakeable.sol\";\r\nimport \"./IDailyUpdate.sol\";\r\nimport \"../lib/MerkleProof.sol\";\r\n/*\r\n * @dev Provides information about the current execution context, including the\r\n * sender of the transaction and its data. While these are generally available\r\n * via msg.sender and msg.data, they should not be accessed in such a direct\r\n * manner, since when dealing with GSN meta-transactions the account sending and\r\n * paying for execution may not be the actual sender (as far as an application\r\n * is concerned).\r\n *\r\n * This contract is only required for intermediate, library-like contracts.\r\n */\r\nabstract contract Context is ERC20, ERC20Mintable {\r\n    // solhint-disable-previous-line no-empty-blocks\r\n\r\n    function _msgSender() internal view returns (address payable) {\r\n        return payable( msg.sender);\r\n    }\r\n\r\n    function _msgData() internal view returns (bytes memory) {\r\n        this; // silence state mutability warning without generating bytecode - see https://github.com/ethereum/solidity/issues/2691\r\n        return msg.data;\r\n    }\r\n}\r\nabstract contract GlobalsAndUtility is Context,IDailyUpdate {\r\n    /*  XfLobbyEnter      (auto-generated event)\r\n\r\n        uint40            timestamp       -->  data0 [ 39:  0]\r\n        address  indexed  memberAddr\r\n        uint256  indexed  entryId\r\n        uint96            rawAmount       -->  data0 [135: 40]\r\n        address  indexed  referrerAddr\r\n    */\r\n    event XfLobbyEnter(\r\n        uint256 data0,\r\n        address indexed memberAddr,\r\n        uint256 indexed entryId,\r\n        address indexed referrerAddr\r\n    );\r\n\r\n    /*  XfLobbyExit       (auto-generated event)\r\n\r\n        uint40            timestamp       -->  data0 [ 39:  0]\r\n        address  indexed  memberAddr\r\n        uint256  indexed  entryId\r\n        uint72            xfAmount        -->  data0 [111: 40]\r\n        address  indexed  referrerAddr\r\n    */\r\n    event XfLobbyExit(\r\n        uint256 data0,\r\n        address indexed memberAddr,\r\n        uint256 indexed entryId,\r\n        address indexed referrerAddr\r\n    );\r\n\r\n    /*  DailyDataUpdate   (auto-generated event)\r\n\r\n        uint40            timestamp       -->  data0 [ 39:  0]\r\n        uint16            beginDay        -->  data0 [ 55: 40]\r\n        uint16            endDay          -->  data0 [ 71: 56]\r\n        bool              isAutoUpdate    -->  data0 [ 79: 72]\r\n        address  indexed  updaterAddr\r\n    */\r\n    event DailyDataUpdate(\r\n        uint256 data0,\r\n        address indexed updaterAddr\r\n    );\r\n\r\n    /*  Claim             (auto-generated event)\r\n\r\n        uint40            timestamp       -->  data0 [ 39:  0]\r\n        bytes20  indexed  btcAddr\r\n        uint56            rawSatoshis     -->  data0 [ 95: 40]\r\n        uint56            adjSatoshis     -->  data0 [151: 96]\r\n        address  indexed  claimToAddr\r\n        uint8             claimFlags      -->  data0 [159:152]\r\n        uint72            claimedHearts   -->  data0 [231:160]\r\n        address  indexed  referrerAddr\r\n        address           senderAddr      -->  data1 [159:  0]\r\n    */\r\n    event Claim(\r\n        uint256 data0,\r\n        uint256 data1,\r\n        bytes20 indexed btcAddr,\r\n        address indexed claimToAddr,\r\n        address indexed referrerAddr\r\n    );\r\n\r\n    /*  ClaimAssist       (auto-generated event)\r\n\r\n        uint40            timestamp       -->  data0 [ 39:  0]\r\n        bytes20           btcAddr         -->  data0 [199: 40]\r\n        uint56            rawSatoshis     -->  data0 [255:200]\r\n        uint56            adjSatoshis     -->  data1 [ 55:  0]\r\n        address           claimToAddr     -->  data1 [215: 56]\r\n        uint8             claimFlags      -->  data1 [223:216]\r\n        uint72            claimedHearts   -->  data2 [ 71:  0]\r\n        address           referrerAddr    -->  data2 [231: 72]\r\n        address  indexed  senderAddr\r\n    */\r\n    event ClaimAssist(\r\n        uint256 data0,\r\n        uint256 data1,\r\n        uint256 data2,\r\n        address indexed senderAddr\r\n    );\r\n\r\n    /*  StakeStart        (auto-generated event)\r\n\r\n        uint40            timestamp       -->  data0 [ 39:  0]\r\n        address  indexed  stakerAddr\r\n        uint40   indexed  stakeId\r\n        uint72            stakedHearts    -->  data0 [111: 40]\r\n        uint72            stakeShares     -->  data0 [183:112]\r\n        uint16            stakedDays      -->  data0 [199:184]\r\n        bool              isAutoStake     -->  data0 [207:200]\r\n    */\r\n    event StakeStart(\r\n        uint256 data0,\r\n        address indexed stakerAddr,\r\n        uint40 indexed stakeId\r\n    );\r\n\r\n    /*  StakeGoodAccounting(auto-generated event)\r\n\r\n        uint40            timestamp       -->  data0 [ 39:  0]\r\n        address  indexed  stakerAddr\r\n        uint40   indexed  stakeId\r\n        uint72            stakedHearts    -->  data0 [111: 40]\r\n        uint72            stakeShares     -->  data0 [183:112]\r\n        uint72            payout          -->  data0 [255:184]\r\n        uint72            penalty         -->  data1 [ 71:  0]\r\n        address  indexed  senderAddr\r\n    */\r\n    event StakeGoodAccounting(\r\n        uint256 data0,\r\n        uint256 data1,\r\n        address indexed stakerAddr,\r\n        uint40 indexed stakeId,\r\n        address indexed senderAddr\r\n    );\r\n\r\n    /*  StakeEnd          (auto-generated event)\r\n\r\n        uint40            timestamp       -->  data0 [ 39:  0]\r\n        address  indexed  stakerAddr\r\n        uint40   indexed  stakeId\r\n        uint72            stakedHearts    -->  data0 [111: 40]\r\n        uint72            stakeShares     -->  data0 [183:112]\r\n        uint72            payout          -->  data0 [255:184]\r\n        uint72            penalty         -->  data1 [ 71:  0]\r\n        uint16            servedDays      -->  data1 [ 87: 72]\r\n        bool              prevUnlocked    -->  data1 [ 95: 88]\r\n    */\r\n    event StakeEnd(\r\n        uint256 data0,\r\n        uint256 data1,\r\n        address indexed stakerAddr,\r\n        uint40 indexed stakeId\r\n    );\r\n\r\n    /*  ShareRateChange   (auto-generated event)\r\n\r\n        uint40            timestamp       -->  data0 [ 39:  0]\r\n        uint40            shareRate       -->  data0 [ 79: 40]\r\n        uint40   indexed  stakeId\r\n    */\r\n    event ShareRateChange(\r\n        uint256 data0,\r\n        uint40 indexed stakeId\r\n    );\r\n\r\n    /* Origin address */\r\n    address internal constant ORIGIN_ADDR = 0x9A6a414D6F3497c05E3b1De90520765fA1E07c03;\r\n\r\n    /* Flush address */\r\n    address payable internal constant FLUSH_ADDR = payable(0xDEC9f2793e3c17cd26eeFb21C4762fA5128E0399);\r\n\r\n    /* ERC20 constants */\r\n    string public constant name = \"HEX\";\r\n    string public constant symbol = \"HEX\";\r\n    uint8 public constant decimals = 8;\r\n\r\n    /* Hearts per Satoshi = 10,000 * 1e8 / 1e8 = 1e4 */\r\n    uint256 private constant HEARTS_PER_HEX = 10 ** uint256(decimals); // 1e8\r\n    uint256 private constant HEX_PER_BTC = 1e4;\r\n    uint256 private constant SATOSHIS_PER_BTC = 1e8;\r\n    uint256 internal constant HEARTS_PER_SATOSHI = HEARTS_PER_HEX / SATOSHIS_PER_BTC * HEX_PER_BTC;\r\n\r\n    /* Time of contract launch (2019-12-03T00:00:00Z) */\r\n\t/* Modified from original 1575331200(2019-12-03T00:00:00Z) to 1609459200(2021-01-01T00:00:00Z) to avoid out-of-memory in remix.*/\r\n    uint256 internal constant LAUNCH_TIME = 1609459200;\r\n\r\n    /* Size of a Hearts or Shares uint */\r\n    uint256 internal constant HEART_UINT_SIZE = 72;\r\n\r\n    /* Size of a transform lobby entry index uint */\r\n    uint256 internal constant XF_LOBBY_ENTRY_INDEX_SIZE = 40;\r\n    uint256 internal constant XF_LOBBY_ENTRY_INDEX_MASK = (1 << XF_LOBBY_ENTRY_INDEX_SIZE) - 1;\r\n\r\n    /* Seed for WAAS Lobby */\r\n    uint256 internal constant WAAS_LOBBY_SEED_HEX = 1e9;\r\n    uint256 internal constant WAAS_LOBBY_SEED_HEARTS = WAAS_LOBBY_SEED_HEX * HEARTS_PER_HEX;\r\n\r\n    /* Start of claim phase */\r\n    uint256 internal constant PRE_CLAIM_DAYS = 1;\r\n    uint256 internal constant CLAIM_PHASE_START_DAY = PRE_CLAIM_DAYS;\r\n\r\n    /* Length of claim phase */\r\n    uint256 private constant CLAIM_PHASE_WEEKS = 50;\r\n    uint256 internal constant CLAIM_PHASE_DAYS = CLAIM_PHASE_WEEKS * 7;\r\n\r\n    /* End of claim phase */\r\n    uint256 internal constant CLAIM_PHASE_END_DAY = CLAIM_PHASE_START_DAY + CLAIM_PHASE_DAYS;\r\n\r\n    /* Number of words to hold 1 bit for each transform lobby day */\r\n    uint256 internal constant XF_LOBBY_DAY_WORDS = (CLAIM_PHASE_END_DAY + 255) >> 8;\r\n\r\n    /* BigPayDay */\r\n    uint256 internal constant BIG_PAY_DAY = CLAIM_PHASE_END_DAY + 1;\r\n\r\n    /* Root hash of the UTXO Merkle tree */\r\n    bytes32 internal constant MERKLE_TREE_ROOT = 0x4e831acb4223b66de3b3d2e54a2edeefb0de3d7916e2886a4b134d9764d41bec;\r\n\r\n    /* Size of a Satoshi claim uint in a Merkle leaf */\r\n    uint256 internal constant MERKLE_LEAF_SATOSHI_SIZE = 45;\r\n\r\n    /* Zero-fill between BTC address and Satoshis in a Merkle leaf */\r\n    uint256 internal constant MERKLE_LEAF_FILL_SIZE = 256 - 160 - MERKLE_LEAF_SATOSHI_SIZE;\r\n    uint256 internal constant MERKLE_LEAF_FILL_BASE = (1 << MERKLE_LEAF_FILL_SIZE) - 1;\r\n    uint256 internal constant MERKLE_LEAF_FILL_MASK = MERKLE_LEAF_FILL_BASE << MERKLE_LEAF_SATOSHI_SIZE;\r\n\r\n    /* Size of a Satoshi total uint */\r\n    uint256 internal constant SATOSHI_UINT_SIZE = 51;\r\n    uint256 internal constant SATOSHI_UINT_MASK = (1 << SATOSHI_UINT_SIZE) - 1;\r\n\r\n    /* Total Satoshis from all BTC addresses in UTXO snapshot */\r\n    uint256 internal constant FULL_SATOSHIS_TOTAL = 1807766732160668;\r\n\r\n    /* Total Satoshis from supported BTC addresses in UTXO snapshot after applying Silly Whale */\r\n    uint256 internal constant CLAIMABLE_SATOSHIS_TOTAL = 910087996911001;\r\n\r\n    /* Number of claimable BTC addresses in UTXO snapshot */\r\n    uint256 internal constant CLAIMABLE_BTC_ADDR_COUNT = 27997742;\r\n\r\n    /* Largest BTC address Satoshis balance in UTXO snapshot (sanity check) */\r\n    uint256 internal constant MAX_BTC_ADDR_BALANCE_SATOSHIS = 25550214098481;\r\n\r\n    /* Percentage of total claimed Hearts that will be auto-staked from a claim */\r\n    uint256 internal constant AUTO_STAKE_CLAIM_PERCENT = 90;\r\n\r\n    /* Stake timing parameters */\r\n    uint256 internal constant MIN_STAKE_DAYS = 1;\r\n    uint256 internal constant MIN_AUTO_STAKE_DAYS = 350;\r\n\r\n    uint256 internal constant MAX_STAKE_DAYS = 5555; // Approx 15 years\r\n\r\n    uint256 internal constant EARLY_PENALTY_MIN_DAYS = 90;\r\n\r\n    uint256 private constant LATE_PENALTY_GRACE_WEEKS = 2;\r\n    uint256 internal constant LATE_PENALTY_GRACE_DAYS = LATE_PENALTY_GRACE_WEEKS * 7;\r\n\r\n    uint256 private constant LATE_PENALTY_SCALE_WEEKS = 100;\r\n    uint256 internal constant LATE_PENALTY_SCALE_DAYS = LATE_PENALTY_SCALE_WEEKS * 7;\r\n\r\n    /* Stake shares Longer Pays Better bonus constants used by _stakeStartBonusHearts() */\r\n    uint256 private constant LPB_BONUS_PERCENT = 20;\r\n    uint256 private constant LPB_BONUS_MAX_PERCENT = 200;\r\n    uint256 internal constant LPB = 364 * 100 / LPB_BONUS_PERCENT;\r\n    uint256 internal constant LPB_MAX_DAYS = LPB * LPB_BONUS_MAX_PERCENT / 100;\r\n\r\n    /* Stake shares Bigger Pays Better bonus constants used by _stakeStartBonusHearts() */\r\n    uint256 private constant BPB_BONUS_PERCENT = 10;\r\n    uint256 private constant BPB_MAX_HEX = 150 * 1e6;\r\n    uint256 internal constant BPB_MAX_HEARTS = BPB_MAX_HEX * HEARTS_PER_HEX;\r\n    uint256 internal constant BPB = BPB_MAX_HEARTS * 100 / BPB_BONUS_PERCENT;\r\n\r\n    /* Share rate is scaled to increase precision */\r\n    uint256 internal constant SHARE_RATE_SCALE = 1e5;\r\n\r\n    /* Share rate max (after scaling) */\r\n    uint256 internal constant SHARE_RATE_UINT_SIZE = 40;\r\n    uint256 internal constant SHARE_RATE_MAX = (1 << SHARE_RATE_UINT_SIZE) - 1;\r\n\r\n    /* Constants for preparing the claim message text */\r\n    uint8 internal constant ETH_ADDRESS_BYTE_LEN = 20;\r\n    uint8 internal constant ETH_ADDRESS_HEX_LEN = ETH_ADDRESS_BYTE_LEN * 2;\r\n\r\n    uint8 internal constant CLAIM_PARAM_HASH_BYTE_LEN = 12;\r\n    uint8 internal constant CLAIM_PARAM_HASH_HEX_LEN = CLAIM_PARAM_HASH_BYTE_LEN * 2;\r\n\r\n    uint8 internal constant BITCOIN_SIG_PREFIX_LEN = 24;\r\n    bytes24 internal constant BITCOIN_SIG_PREFIX_STR = \"Bitcoin Signed Message:\\n\";\r\n\r\n    bytes internal constant STD_CLAIM_PREFIX_STR = \"Claim_HEX_to_0x\";\r\n    bytes internal constant OLD_CLAIM_PREFIX_STR = \"Claim_BitcoinHEX_to_0x\";\r\n\r\n    bytes16 internal constant HEX_DIGITS = \"0123456789abcdef\";\r\n\r\n    /* Claim flags passed to btcAddressClaim()  */\r\n    uint8 internal constant CLAIM_FLAG_MSG_PREFIX_OLD = 1 << 0;\r\n    uint8 internal constant CLAIM_FLAG_BTC_ADDR_COMPRESSED = 1 << 1;\r\n    uint8 internal constant CLAIM_FLAG_BTC_ADDR_P2WPKH_IN_P2SH = 1 << 2;\r\n    uint8 internal constant CLAIM_FLAG_BTC_ADDR_BECH32 = 1 << 3;\r\n    uint8 internal constant CLAIM_FLAG_ETH_ADDR_LOWERCASE = 1 << 4;\r\n\r\n    /* Globals expanded for memory (except _latestStakeId) and compact for storage */\r\n    struct GlobalsCache {\r\n        // 1\r\n        uint256 _lockedHeartsTotal;\r\n        uint256 _nextStakeSharesTotal;\r\n        uint256 _shareRate;\r\n        uint256 _stakePenaltyTotal;\r\n        // 2\r\n        uint256 _dailyDataCount;\r\n        uint256 _stakeSharesTotal;\r\n        uint40 _latestStakeId;\r\n        uint256 _unclaimedSatoshisTotal;\r\n        uint256 _claimedSatoshisTotal;\r\n        uint256 _claimedBtcAddrCount;\r\n        //\r\n        uint256 _currentDay;\r\n    }\r\n\r\n    struct GlobalsStore {\r\n        // 1\r\n        uint72 lockedHeartsTotal;\r\n        uint72 nextStakeSharesTotal;\r\n        uint40 shareRate;\r\n        uint72 stakePenaltyTotal;\r\n        // 2\r\n        uint16 dailyDataCount;\r\n        uint72 stakeSharesTotal;\r\n        uint40 latestStakeId;\r\n        uint128 claimStats;\r\n    }\r\n\r\n    GlobalsStore public globals;\r\n\r\n    /* Claimed BTC addresses */\r\n    mapping(bytes20 => bool) public btcAddressClaims;\r\n\r\n    /* Daily data */\r\n    struct DailyDataStore {\r\n        uint72 dayPayoutTotal;\r\n        uint72 dayStakeSharesTotal;\r\n        uint56 dayUnclaimedSatoshisTotal;\r\n    }\r\n\r\n    mapping(uint256 => DailyDataStore) public dailyData;\r\n\r\n    /* Stake expanded for memory (except _stakeId) and compact for storage */\r\n    struct StakeCache {\r\n        uint40 _stakeId;\r\n        uint256 _stakedHearts;\r\n        uint256 _stakeShares;\r\n        uint256 _lockedDay;\r\n        uint256 _stakedDays;\r\n        uint256 _unlockedDay;\r\n        bool _isAutoStake;\r\n    }\r\n\r\n    struct StakeStore {\r\n        uint40 stakeId;\r\n        uint72 stakedHearts;\r\n        uint72 stakeShares;\r\n        uint16 lockedDay;\r\n        uint16 stakedDays;\r\n        uint16 unlockedDay;\r\n        bool isAutoStake;\r\n    }\r\n\r\n    mapping(address => StakeStore[]) public stakeLists;\r\n\r\n    /* Temporary state for calculating daily rounds */\r\n    struct DailyRoundState {\r\n        uint256 _allocSupplyCached;\r\n        uint256 _mintOriginBatch;\r\n        uint256 _payoutTotal;\r\n    }\r\n\r\n    struct XfLobbyEntryStore {\r\n        uint96 rawAmount;\r\n        address referrerAddr;\r\n    }\r\n\r\n    struct XfLobbyQueueStore {\r\n        uint40 headIndex;\r\n        uint40 tailIndex;\r\n        mapping(uint256 => XfLobbyEntryStore) entries;\r\n    }\r\n\r\n    mapping(uint256 => uint256) public xfLobby;\r\n    mapping(uint256 => mapping(address => XfLobbyQueueStore)) public xfLobbyMembers;\r\n\r\n    /**\r\n     * @dev PUBLIC FACING: Optionally update daily data for a smaller\r\n     * range to reduce gas cost for a subsequent operation\r\n     * @param beforeDay Only update days before this day number (optional; 0 for current day)\r\n     */\r\n    function dailyDataUpdate(uint256 beforeDay) external override\r\n    {\r\n        GlobalsCache memory g;\r\n        GlobalsCache memory gSnapshot;\r\n        _globalsLoad(g, gSnapshot);\r\n\r\n        /* Skip pre-claim period */\r\n        require(g._currentDay > CLAIM_PHASE_START_DAY, \"HEX: Too early\");\r\n\r\n        if (beforeDay != 0) {\r\n            require(beforeDay <= g._currentDay, \"HEX: beforeDay cannot be in the future\");\r\n\r\n            _dailyDataUpdate(g, beforeDay, false);\r\n        } else {\r\n            /* Default to updating before current day */\r\n            _dailyDataUpdate(g, g._currentDay, false);\r\n        }\r\n\r\n        _globalsSync(g, gSnapshot);\r\n    }\r\n\r\n    /**\r\n     * @dev PUBLIC FACING: External helper to return multiple values of daily data with\r\n     * a single call. Ugly implementation due to limitations of the standard ABI encoder.\r\n     * @param beginDay First day of data range\r\n     * @param endDay Last day (non-inclusive) of data range\r\n     * @return list Fixed array of packed values uint256[] memory list\r\n     */\r\n    function dailyDataRange(uint256 beginDay, uint256 endDay)\r\n        external\r\n        view\r\n        returns (uint256[] memory list)\r\n    {\r\n        require(beginDay < endDay && endDay <= globals.dailyDataCount, \"HEX: range invalid\");\r\n\r\n        list = new uint256[](endDay - beginDay);\r\n\r\n        uint256 src = beginDay;\r\n        uint256 dst = 0;\r\n        uint256 v;\r\n        do {\r\n            v = uint256(dailyData[src].dayUnclaimedSatoshisTotal) << (HEART_UINT_SIZE * 2);\r\n            v |= uint256(dailyData[src].dayStakeSharesTotal) << HEART_UINT_SIZE;\r\n            v |= uint256(dailyData[src].dayPayoutTotal);\r\n\r\n            list[dst++] = v;\r\n        } while (++src < endDay);\r\n\r\n        return list;\r\n    }\r\n\r\n    /**\r\n     * @dev PUBLIC FACING: External helper to return most global info with a single call.\r\n     * Ugly implementation due to limitations of the standard ABI encoder.\r\n     * @return Fixed array of values\r\n     */\r\n    function globalInfo()\r\n        external\r\n        view\r\n        returns (uint256[13] memory)\r\n    {\r\n        uint256 _claimedBtcAddrCount;\r\n        uint256 _claimedSatoshisTotal;\r\n        uint256 _unclaimedSatoshisTotal;\r\n\r\n        (_claimedBtcAddrCount, _claimedSatoshisTotal, _unclaimedSatoshisTotal) = _claimStatsDecode(\r\n            globals.claimStats\r\n        );\r\n\r\n        return [\r\n            // 1\r\n            globals.lockedHeartsTotal,\r\n            globals.nextStakeSharesTotal,\r\n            globals.shareRate,\r\n            globals.stakePenaltyTotal,\r\n            // 2\r\n            globals.dailyDataCount,\r\n            globals.stakeSharesTotal,\r\n            globals.latestStakeId,\r\n            _unclaimedSatoshisTotal,\r\n            _claimedSatoshisTotal,\r\n            _claimedBtcAddrCount,\r\n            //\r\n            block.timestamp,\r\n            totalSupply(),\r\n            xfLobby[_currentDay()]\r\n        ];\r\n    }\r\n\r\n    /**\r\n     * @dev PUBLIC FACING: ERC20 totalSupply() is the circulating supply and does not include any\r\n     * staked Hearts. allocatedSupply() includes both.\r\n     * @return Allocated Supply in Hearts\r\n     */\r\n    function allocatedSupply()\r\n        external\r\n        view\r\n        returns (uint256)\r\n    {\r\n        return totalSupply() + globals.lockedHeartsTotal;\r\n    }\r\n\r\n    /**\r\n     * @dev PUBLIC FACING: External helper for the current day number since launch time\r\n     * @return Current day number (zero-based)\r\n     */\r\n    function currentDay() external override view returns (uint256)\r\n    {\r\n        return _currentDay();\r\n    }\r\n\r\n    function _currentDay() internal virtual view returns (uint256)\r\n    {\r\n        return (block.timestamp - LAUNCH_TIME) / 1 days;\r\n    }\r\n\r\n    function _dailyDataUpdateAuto(GlobalsCache memory g)\r\n        internal\r\n    {\r\n        _dailyDataUpdate(g, g._currentDay, true);\r\n    }\r\n\r\n    function _globalsLoad(GlobalsCache memory g, GlobalsCache memory gSnapshot)\r\n        internal\r\n        view\r\n    {\r\n        // 1\r\n        g._lockedHeartsTotal = globals.lockedHeartsTotal;\r\n        g._nextStakeSharesTotal = globals.nextStakeSharesTotal;\r\n        g._shareRate = globals.shareRate;\r\n        g._stakePenaltyTotal = globals.stakePenaltyTotal;\r\n        // 2\r\n        g._dailyDataCount = globals.dailyDataCount;\r\n        g._stakeSharesTotal = globals.stakeSharesTotal;\r\n        g._latestStakeId = globals.latestStakeId;\r\n        (g._claimedBtcAddrCount, g._claimedSatoshisTotal, g._unclaimedSatoshisTotal) = _claimStatsDecode(\r\n            globals.claimStats\r\n        );\r\n        //\r\n        g._currentDay = _currentDay();\r\n\r\n        _globalsCacheSnapshot(g, gSnapshot);\r\n    }\r\n\r\n    function _globalsCacheSnapshot(GlobalsCache memory g, GlobalsCache memory gSnapshot)\r\n        internal\r\n        pure\r\n    {\r\n        // 1\r\n        gSnapshot._lockedHeartsTotal = g._lockedHeartsTotal;\r\n        gSnapshot._nextStakeSharesTotal = g._nextStakeSharesTotal;\r\n        gSnapshot._shareRate = g._shareRate;\r\n        gSnapshot._stakePenaltyTotal = g._stakePenaltyTotal;\r\n        // 2\r\n        gSnapshot._dailyDataCount = g._dailyDataCount;\r\n        gSnapshot._stakeSharesTotal = g._stakeSharesTotal;\r\n        gSnapshot._latestStakeId = g._latestStakeId;\r\n        gSnapshot._unclaimedSatoshisTotal = g._unclaimedSatoshisTotal;\r\n        gSnapshot._claimedSatoshisTotal = g._claimedSatoshisTotal;\r\n        gSnapshot._claimedBtcAddrCount = g._claimedBtcAddrCount;\r\n    }\r\n\r\n    function _globalsSync(GlobalsCache memory g, GlobalsCache memory gSnapshot)\r\n        internal\r\n    {\r\n        if (g._lockedHeartsTotal != gSnapshot._lockedHeartsTotal\r\n            || g._nextStakeSharesTotal != gSnapshot._nextStakeSharesTotal\r\n            || g._shareRate != gSnapshot._shareRate\r\n            || g._stakePenaltyTotal != gSnapshot._stakePenaltyTotal) {\r\n            // 1\r\n            globals.lockedHeartsTotal = uint72(g._lockedHeartsTotal);\r\n            globals.nextStakeSharesTotal = uint72(g._nextStakeSharesTotal);\r\n            globals.shareRate = uint40(g._shareRate);\r\n            globals.stakePenaltyTotal = uint72(g._stakePenaltyTotal);\r\n        }\r\n        if (g._dailyDataCount != gSnapshot._dailyDataCount\r\n            || g._stakeSharesTotal != gSnapshot._stakeSharesTotal\r\n            || g._latestStakeId != gSnapshot._latestStakeId\r\n            || g._unclaimedSatoshisTotal != gSnapshot._unclaimedSatoshisTotal\r\n            || g._claimedSatoshisTotal != gSnapshot._claimedSatoshisTotal\r\n            || g._claimedBtcAddrCount != gSnapshot._claimedBtcAddrCount) {\r\n            // 2\r\n            globals.dailyDataCount = uint16(g._dailyDataCount);\r\n            globals.stakeSharesTotal = uint72(g._stakeSharesTotal);\r\n            globals.latestStakeId = g._latestStakeId;\r\n            globals.claimStats = _claimStatsEncode(\r\n                g._claimedBtcAddrCount,\r\n                g._claimedSatoshisTotal,\r\n                g._unclaimedSatoshisTotal\r\n            );\r\n        }\r\n    }\r\n\r\n    function _stakeLoad(StakeStore storage stRef, uint40 stakeIdParam, StakeCache memory st)\r\n        internal\r\n        view\r\n    {\r\n        /* Ensure caller's stakeIndex is still current */\r\n        require(stakeIdParam == stRef.stakeId, \"HEX: stakeIdParam not in stake\");\r\n\r\n        st._stakeId = stRef.stakeId;\r\n        st._stakedHearts = stRef.stakedHearts;\r\n        st._stakeShares = stRef.stakeShares;\r\n        st._lockedDay = stRef.lockedDay;\r\n        st._stakedDays = stRef.stakedDays;\r\n        st._unlockedDay = stRef.unlockedDay;\r\n        st._isAutoStake = stRef.isAutoStake;\r\n    }\r\n\r\n    function _stakeUpdate(StakeStore storage stRef, StakeCache memory st)\r\n        internal\r\n    {\r\n        stRef.stakeId = st._stakeId;\r\n        stRef.stakedHearts = uint72(st._stakedHearts);\r\n        stRef.stakeShares = uint72(st._stakeShares);\r\n        stRef.lockedDay = uint16(st._lockedDay);\r\n        stRef.stakedDays = uint16(st._stakedDays);\r\n        stRef.unlockedDay = uint16(st._unlockedDay);\r\n        stRef.isAutoStake = st._isAutoStake;\r\n    }\r\n\r\n    function _stakeAdd(\r\n        StakeStore[] storage stakeListRef,\r\n        uint40 newStakeId,\r\n        uint256 newStakedHearts,\r\n        uint256 newStakeShares,\r\n        uint256 newLockedDay,\r\n        uint256 newStakedDays,\r\n        bool newAutoStake\r\n    )\r\n        internal\r\n    {\r\n        stakeListRef.push(\r\n            StakeStore(\r\n                newStakeId,\r\n                uint72(newStakedHearts),\r\n                uint72(newStakeShares),\r\n                uint16(newLockedDay),\r\n                uint16(newStakedDays),\r\n                uint16(0), // unlockedDay\r\n                newAutoStake\r\n            )\r\n        );\r\n    }\r\n\r\n    /**\r\n     * @dev Efficiently delete from an unordered array by moving the last element\r\n     * to the \"hole\" and reducing the array length. Can change the order of the list\r\n     * and invalidate previously held indexes.\r\n     * @notice stakeListRef length and stakeIndex are already ensured valid in stakeEnd()\r\n     * @param stakeListRef Reference to stakeLists[stakerAddr] array in storage\r\n     * @param stakeIndex Index of the element to delete\r\n     */\r\n    function _stakeRemove(StakeStore[] storage stakeListRef, uint256 stakeIndex)\r\n        internal\r\n    {\r\n        uint256 lastIndex = stakeListRef.length - 1;\r\n\r\n        /* Skip the copy if element to be removed is already the last element */\r\n        if (stakeIndex != lastIndex) {\r\n            /* Copy last element to the requested element's \"hole\" */\r\n            stakeListRef[stakeIndex] = stakeListRef[lastIndex];\r\n        }\r\n\r\n        /*\r\n            Reduce the array length now that the array is contiguous.\r\n            Surprisingly, 'pop()' uses less gas than 'stakeListRef.length = lastIndex'\r\n        */\r\n        stakeListRef.pop();\r\n    }\r\n\r\n    function _claimStatsEncode(\r\n        uint256 _claimedBtcAddrCount,\r\n        uint256 _claimedSatoshisTotal,\r\n        uint256 _unclaimedSatoshisTotal\r\n    )\r\n        internal\r\n        pure\r\n        returns (uint128)\r\n    {\r\n        uint256 v = _claimedBtcAddrCount << (SATOSHI_UINT_SIZE * 2);\r\n        v |= _claimedSatoshisTotal << SATOSHI_UINT_SIZE;\r\n        v |= _unclaimedSatoshisTotal;\r\n\r\n        return uint128(v);\r\n    }\r\n\r\n    function _claimStatsDecode(uint128 v)\r\n        internal\r\n        pure\r\n        returns (uint256 _claimedBtcAddrCount, uint256 _claimedSatoshisTotal, uint256 _unclaimedSatoshisTotal)\r\n    {\r\n        _claimedBtcAddrCount = v >> (SATOSHI_UINT_SIZE * 2);\r\n        _claimedSatoshisTotal = (v >> SATOSHI_UINT_SIZE) & SATOSHI_UINT_MASK;\r\n        _unclaimedSatoshisTotal = v & SATOSHI_UINT_MASK;\r\n\r\n        return (_claimedBtcAddrCount, _claimedSatoshisTotal, _unclaimedSatoshisTotal);\r\n    }\r\n\r\n    /**\r\n     * @dev Estimate the stake payout for an incomplete day\r\n     * @param g Cache of stored globals\r\n     * @param stakeSharesParam Param from stake to calculate bonuses for\r\n     * @param day Day to calculate bonuses for\r\n     * @return payout in Hearts, uint256 payout\r\n     */\r\n    function _estimatePayoutRewardsDay(GlobalsCache memory g, uint256 stakeSharesParam, uint256 day)\r\n        internal\r\n        view\r\n        returns (uint256 payout)\r\n    {\r\n        /* Prevent updating state for this estimation */\r\n        GlobalsCache memory gTmp;\r\n        _globalsCacheSnapshot(g, gTmp);\r\n\r\n        DailyRoundState memory rs;\r\n        rs._allocSupplyCached = totalSupply() + g._lockedHeartsTotal;\r\n\r\n        _dailyRoundCalc(gTmp, rs, day);\r\n\r\n        /* Stake is no longer locked so it must be added to total as if it were */\r\n        gTmp._stakeSharesTotal += stakeSharesParam;\r\n\r\n        payout = rs._payoutTotal * stakeSharesParam / gTmp._stakeSharesTotal;\r\n\r\n        if (day == BIG_PAY_DAY) {\r\n            uint256 bigPaySlice = gTmp._unclaimedSatoshisTotal * HEARTS_PER_SATOSHI * stakeSharesParam\r\n                / gTmp._stakeSharesTotal;\r\n            payout += bigPaySlice + _calcAdoptionBonus(gTmp, bigPaySlice);\r\n        }\r\n\r\n        return payout;\r\n    }\r\n\r\n    function _calcAdoptionBonus(GlobalsCache memory g, uint256 payout)\r\n        internal\r\n        pure\r\n        returns (uint256)\r\n    {\r\n        /*\r\n            VIRAL REWARDS: Add adoption percentage bonus to payout\r\n\r\n            viral = payout * (claimedBtcAddrCount / CLAIMABLE_BTC_ADDR_COUNT)\r\n        */\r\n        uint256 viral = payout * g._claimedBtcAddrCount / CLAIMABLE_BTC_ADDR_COUNT;\r\n\r\n        /*\r\n            CRIT MASS REWARDS: Add adoption percentage bonus to payout\r\n\r\n            crit  = payout * (claimedSatoshisTotal / CLAIMABLE_SATOSHIS_TOTAL)\r\n        */\r\n        uint256 crit = payout * g._claimedSatoshisTotal / CLAIMABLE_SATOSHIS_TOTAL;\r\n\r\n        return viral + crit;\r\n    }\r\n\r\n    function _dailyRoundCalc(GlobalsCache memory g, DailyRoundState memory rs, uint256 day)\r\n        private\r\n        pure\r\n    {\r\n        /*\r\n            Calculate payout round\r\n\r\n            Inflation of 3.69% inflation per 364 days             (approx 1 year)\r\n            dailyInterestRate   = exp(log(1 + 3.69%)  / 364) - 1\r\n                                = exp(log(1 + 0.0369) / 364) - 1\r\n                                = exp(log(1.0369) / 364) - 1\r\n                                = 0.000099553011616349            (approx)\r\n\r\n            payout  = allocSupply * dailyInterestRate\r\n                    = allocSupply / (1 / dailyInterestRate)\r\n                    = allocSupply / (1 / 0.000099553011616349)\r\n                    = allocSupply / 10044.899534066692            (approx)\r\n                    = allocSupply * 10000 / 100448995             (* 10000/10000 for int precision)\r\n        */\r\n        rs._payoutTotal = rs._allocSupplyCached * 10000 / 100448995;\r\n\r\n        if (day < CLAIM_PHASE_END_DAY) {\r\n            uint256 bigPaySlice = g._unclaimedSatoshisTotal * HEARTS_PER_SATOSHI / CLAIM_PHASE_DAYS;\r\n\r\n            uint256 originBonus = bigPaySlice + _calcAdoptionBonus(g, rs._payoutTotal + bigPaySlice);\r\n            rs._mintOriginBatch += originBonus;\r\n            rs._allocSupplyCached += originBonus;\r\n\r\n            rs._payoutTotal += _calcAdoptionBonus(g, rs._payoutTotal);\r\n        }\r\n\r\n        if (g._stakePenaltyTotal != 0) {\r\n            rs._payoutTotal += g._stakePenaltyTotal;\r\n            g._stakePenaltyTotal = 0;\r\n        }\r\n    }\r\n\r\n    function _dailyRoundCalcAndStore(GlobalsCache memory g, DailyRoundState memory rs, uint256 day)\r\n        private\r\n    {\r\n        _dailyRoundCalc(g, rs, day);\r\n\r\n        dailyData[day].dayPayoutTotal = uint72(rs._payoutTotal);\r\n        dailyData[day].dayStakeSharesTotal = uint72(g._stakeSharesTotal);\r\n        dailyData[day].dayUnclaimedSatoshisTotal = uint56(g._unclaimedSatoshisTotal);\r\n    }\r\n\r\n    function _dailyDataUpdate(GlobalsCache memory g, uint256 beforeDay, bool isAutoUpdate)\r\n        private\r\n    {\r\n        if (g._dailyDataCount >= beforeDay) {\r\n            /* Already up-to-date */\r\n            return;\r\n        }\r\n\r\n        DailyRoundState memory rs;\r\n        rs._allocSupplyCached = totalSupply() + g._lockedHeartsTotal;\r\n\r\n        uint256 day = g._dailyDataCount;\r\n\r\n        _dailyRoundCalcAndStore(g, rs, day);\r\n\r\n        /* Stakes started during this day are added to the total the next day */\r\n        if (g._nextStakeSharesTotal != 0) {\r\n            g._stakeSharesTotal += g._nextStakeSharesTotal;\r\n            g._nextStakeSharesTotal = 0;\r\n        }\r\n\r\n        while (++day < beforeDay) {\r\n            _dailyRoundCalcAndStore(g, rs, day);\r\n        }\r\n\r\n        _emitDailyDataUpdate(g._dailyDataCount, day, isAutoUpdate);\r\n        g._dailyDataCount = day;\r\n\r\n        if (rs._mintOriginBatch != 0) {\r\n            _mint(ORIGIN_ADDR, rs._mintOriginBatch);\r\n        }\r\n    }\r\n\r\n    function _emitDailyDataUpdate(uint256 beginDay, uint256 endDay, bool isAutoUpdate)\r\n        private\r\n    {\r\n        emit DailyDataUpdate( // (auto-generated event)\r\n            uint256(uint40(block.timestamp))\r\n                | (uint256(uint16(beginDay)) << 40)\r\n                | (uint256(uint16(endDay)) << 56)\r\n                | (isAutoUpdate ? (1 << 72) : 0),\r\n            msg.sender\r\n        );\r\n    }\r\n}\r\n contract StakeableToken is GlobalsAndUtility, IStakeable {\r\n    constructor()        \r\n    {\r\n        /* Initialize global shareRate to 1 */\r\n        globals.shareRate = uint40(1 * SHARE_RATE_SCALE);\r\n\r\n        /* Initialize dailyDataCount to skip pre-claim period */\r\n        globals.dailyDataCount = uint16(PRE_CLAIM_DAYS);\r\n\r\n        /* Add all Satoshis from UTXO snapshot to contract */\r\n        globals.claimStats = _claimStatsEncode(\r\n            0, // _claimedBtcAddrCount\r\n            0, // _claimedSatoshisTotal\r\n            FULL_SATOSHIS_TOTAL // _unclaimedSatoshisTotal\r\n        );\t\t\r\n    }\t\r\n    /**\r\n     * @dev PUBLIC FACING: Open a stake.\r\n     * @param newStakedHearts Number of Hearts to stake\r\n     * @param newStakedDays Number of days to stake\r\n     */\r\n    function stakeStart(uint256 newStakedHearts, uint256 newStakedDays) external override\r\n    {\r\n        GlobalsCache memory g;\r\n        GlobalsCache memory gSnapshot;\r\n        _globalsLoad(g, gSnapshot);\r\n\r\n        /* Enforce the minimum stake time */\r\n        require(newStakedDays >= MIN_STAKE_DAYS, \"HEX: newStakedDays lower than minimum\");\r\n\r\n        /* Check if log data needs to be updated */\r\n        _dailyDataUpdateAuto(g);\r\n\r\n        _stakeStart(g, newStakedHearts, newStakedDays, false);\r\n\r\n        /* Remove staked Hearts from balance of staker */\r\n        _burn(msg.sender, newStakedHearts);\r\n\r\n        _globalsSync(g, gSnapshot);\r\n    }\r\n\r\n    /**\r\n     * @dev PUBLIC FACING: Unlocks a completed stake, distributing the proceeds of any penalty\r\n     * immediately. The staker must still call stakeEnd() to retrieve their stake return (if any).\r\n     * @param stakerAddr Address of staker\r\n     * @param stakeIndex Index of stake within stake list\r\n     * @param stakeIdParam The stake's id\r\n     */\r\n    function stakeGoodAccounting(address stakerAddr, uint256 stakeIndex, uint40 stakeIdParam) external override\r\n    {\r\n        GlobalsCache memory g;\r\n        GlobalsCache memory gSnapshot;\r\n        _globalsLoad(g, gSnapshot);\r\n\r\n        /* require() is more informative than the default assert() */\r\n        require(stakeLists[stakerAddr].length != 0, \"HEX: Empty stake list\");\r\n        require(stakeIndex < stakeLists[stakerAddr].length, \"HEX: stakeIndex invalid\");\r\n\r\n        StakeStore storage stRef = stakeLists[stakerAddr][stakeIndex];\r\n\r\n        /* Get stake copy */\r\n        StakeCache memory st;\r\n        _stakeLoad(stRef, stakeIdParam, st);\r\n\r\n        /* Stake must have served full term */\r\n        require(g._currentDay >= st._lockedDay + st._stakedDays, \"HEX: Stake not fully served\");\r\n\r\n        /* Stake must still be locked */\r\n        require(st._unlockedDay == 0, \"HEX: Stake already unlocked\");\r\n\r\n        /* Check if log data needs to be updated */\r\n        _dailyDataUpdateAuto(g);\r\n\r\n        /* Unlock the completed stake */\r\n        _stakeUnlock(g, st);\r\n\r\n        /* stakeReturn value is unused here */\r\n        (, uint256 payout, uint256 penalty, uint256 cappedPenalty) = _stakePerformance(\r\n            g,\r\n            st,\r\n            st._stakedDays\r\n        );\r\n\r\n        _emitStakeGoodAccounting(\r\n            stakerAddr,\r\n            stakeIdParam,\r\n            st._stakedHearts,\r\n            st._stakeShares,\r\n            payout,\r\n            penalty\r\n        );\r\n\r\n        if (cappedPenalty != 0) {\r\n            _splitPenaltyProceeds(g, cappedPenalty);\r\n        }\r\n\r\n        /* st._unlockedDay has changed */\r\n        _stakeUpdate(stRef, st);\r\n\r\n        _globalsSync(g, gSnapshot);\r\n    }\r\n\r\n    /**\r\n     * @dev PUBLIC FACING: Closes a stake. The order of the stake list can change so\r\n     * a stake id is used to reject stale indexes.\r\n     * @param stakeIndex Index of stake within stake list\r\n     * @param stakeIdParam The stake's id\r\n     */\r\n    function stakeEnd(uint256 stakeIndex, uint40 stakeIdParam) external override\r\n    {\r\n        GlobalsCache memory g;\r\n        GlobalsCache memory gSnapshot;\r\n        _globalsLoad(g, gSnapshot);\r\n\r\n        StakeStore[] storage stakeListRef = stakeLists[msg.sender];\r\n\r\n        /* require() is more informative than the default assert() */\r\n        require(stakeListRef.length != 0, \"HEX: Empty stake list\");\r\n        require(stakeIndex < stakeListRef.length, \"HEX: stakeIndex invalid\");\r\n\r\n        /* Get stake copy */\r\n        StakeCache memory st;\r\n        _stakeLoad(stakeListRef[stakeIndex], stakeIdParam, st);\r\n\r\n        /* Check if log data needs to be updated */\r\n        _dailyDataUpdateAuto(g);\r\n\r\n        uint256 servedDays = 0;\r\n\r\n        bool prevUnlocked = (st._unlockedDay != 0);\r\n        uint256 stakeReturn;\r\n        uint256 payout = 0;\r\n        uint256 penalty = 0;\r\n        uint256 cappedPenalty = 0;\r\n\r\n        if (g._currentDay >= st._lockedDay) {\r\n            if (prevUnlocked) {\r\n                /* Previously unlocked in stakeGoodAccounting(), so must have served full term */\r\n                servedDays = st._stakedDays;\r\n            } else {\r\n                _stakeUnlock(g, st);\r\n\r\n                servedDays = g._currentDay - st._lockedDay;\r\n                if (servedDays > st._stakedDays) {\r\n                    servedDays = st._stakedDays;\r\n                } else {\r\n                    /* Deny early-unstake before an auto-stake minimum has been served */\r\n                    if (servedDays < MIN_AUTO_STAKE_DAYS) {\r\n                        require(!st._isAutoStake, \"HEX: Auto-stake still locked\");\r\n                    }\r\n                }\r\n            }\r\n\r\n            (stakeReturn, payout, penalty, cappedPenalty) = _stakePerformance(g, st, servedDays);\r\n        } else {\r\n            /* Deny early-unstake before an auto-stake minimum has been served */\r\n            require(!st._isAutoStake, \"HEX: Auto-stake still locked\");\r\n\r\n            /* Stake hasn't been added to the total yet, so no penalties or rewards apply */\r\n            g._nextStakeSharesTotal -= st._stakeShares;\r\n\r\n            stakeReturn = st._stakedHearts;\r\n        }\r\n\r\n        _emitStakeEnd(\r\n            stakeIdParam,\r\n            st._stakedHearts,\r\n            st._stakeShares,\r\n            payout,\r\n            penalty,\r\n            servedDays,\r\n            prevUnlocked\r\n        );\r\n\r\n        if (cappedPenalty != 0 && !prevUnlocked) {\r\n            /* Split penalty proceeds only if not previously unlocked by stakeGoodAccounting() */\r\n            _splitPenaltyProceeds(g, cappedPenalty);\r\n        }\r\n\r\n        /* Pay the stake return, if any, to the staker */\r\n        if (stakeReturn != 0) {\r\n            _mint(msg.sender, stakeReturn);\r\n\r\n            /* Update the share rate if necessary */\r\n            _shareRateUpdate(g, st, stakeReturn);\r\n        }\r\n        g._lockedHeartsTotal -= st._stakedHearts;\r\n\r\n        _stakeRemove(stakeListRef, stakeIndex);\r\n\r\n        _globalsSync(g, gSnapshot);\r\n    }\r\n\r\n    /**\r\n     * @dev PUBLIC FACING: Return the current stake count for a staker address\r\n     * @param stakerAddr Address of staker\r\n     */\r\n    function stakeCount(address stakerAddr) external override view\r\n        returns (uint256)\r\n    {\r\n        return stakeLists[stakerAddr].length;\r\n    }\r\n\r\n    /**\r\n     * @dev Open a stake.\r\n     * @param g Cache of stored globals\r\n     * @param newStakedHearts Number of Hearts to stake\r\n     * @param newStakedDays Number of days to stake\r\n     * @param newAutoStake Stake is automatic directly from a new claim\r\n     */\r\n    function _stakeStart(\r\n        GlobalsCache memory g,\r\n        uint256 newStakedHearts,\r\n        uint256 newStakedDays,\r\n        bool newAutoStake\r\n    )\r\n        internal\r\n    {\r\n        /* Enforce the maximum stake time */\r\n        require(newStakedDays <= MAX_STAKE_DAYS, \"HEX: newStakedDays higher than maximum\");\r\n\r\n        uint256 bonusHearts = _stakeStartBonusHearts(newStakedHearts, newStakedDays);\r\n        uint256 newStakeShares = (newStakedHearts + bonusHearts) * SHARE_RATE_SCALE / g._shareRate;\r\n\r\n        /* Ensure newStakedHearts is enough for at least one stake share */\r\n        require(newStakeShares != 0, \"HEX: newStakedHearts must be at least minimum shareRate\");\r\n\r\n        /*\r\n            The stakeStart timestamp will always be part-way through the current\r\n            day, so it needs to be rounded-up to the next day to ensure all\r\n            stakes align with the same fixed calendar days. The current day is\r\n            already rounded-down, so rounded-up is current day + 1.\r\n        */\r\n        uint256 newLockedDay = g._currentDay < CLAIM_PHASE_START_DAY\r\n            ? CLAIM_PHASE_START_DAY + 1\r\n            : g._currentDay + 1;\r\n\r\n        /* Create Stake */\r\n        uint40 newStakeId = ++g._latestStakeId;\r\n        _stakeAdd(\r\n            stakeLists[msg.sender],\r\n            newStakeId,\r\n            newStakedHearts,\r\n            newStakeShares,\r\n            newLockedDay,\r\n            newStakedDays,\r\n            newAutoStake\r\n        );\r\n\r\n        _emitStakeStart(newStakeId, newStakedHearts, newStakeShares, newStakedDays, newAutoStake);\r\n\r\n        /* Stake is added to total in the next round, not the current round */\r\n        g._nextStakeSharesTotal += newStakeShares;\r\n\r\n        /* Track total staked Hearts for inflation calculations */\r\n        g._lockedHeartsTotal += newStakedHearts;\r\n    }\r\n\r\n    /**\r\n     * @dev Calculates total stake payout including rewards for a multi-day range\r\n     * @param g Cache of stored globals\r\n     * @param stakeSharesParam Param from stake to calculate bonuses for\r\n     * @param beginDay First day to calculate bonuses for\r\n     * @param endDay Last day (non-inclusive) of range to calculate bonuses for\r\n     * @return payout in Hearts\r\n     */\r\n    function _calcPayoutRewards(\r\n        GlobalsCache memory g,\r\n        uint256 stakeSharesParam,\r\n        uint256 beginDay,\r\n        uint256 endDay\r\n    )\r\n        private\r\n        view\r\n        returns (uint256 payout)\r\n    {\r\n        for (uint256 day = beginDay; day < endDay; day++) {\r\n            payout += dailyData[day].dayPayoutTotal * stakeSharesParam\r\n                / dailyData[day].dayStakeSharesTotal;\r\n        }\r\n\r\n        /* Less expensive to re-read storage than to have the condition inside the loop */\r\n        if (beginDay <= BIG_PAY_DAY && endDay > BIG_PAY_DAY) {\r\n            uint256 bigPaySlice = g._unclaimedSatoshisTotal * HEARTS_PER_SATOSHI * stakeSharesParam\r\n                / dailyData[BIG_PAY_DAY].dayStakeSharesTotal;\r\n\r\n            payout += bigPaySlice + _calcAdoptionBonus(g, bigPaySlice);\r\n        }\r\n        return payout;\r\n    }\r\n\r\n    /**\r\n     * @dev Calculate bonus Hearts for a new stake, if any\r\n     * @param newStakedHearts Number of Hearts to stake\r\n     * @param newStakedDays Number of days to stake\r\n     */\r\n    function _stakeStartBonusHearts(uint256 newStakedHearts, uint256 newStakedDays) private pure returns (uint256 bonusHearts)\r\n    {\r\n        /*\r\n            LONGER PAYS BETTER:\r\n\r\n            If longer than 1 day stake is committed to, each extra day\r\n            gives bonus shares of approximately 0.0548%, which is approximately 20%\r\n            extra per year of increased stake length committed to, but capped to a\r\n            maximum of 200% extra.\r\n\r\n            extraDays       =  stakedDays - 1\r\n\r\n            longerBonus%    = (extraDays / 364) * 20%\r\n                            = (extraDays / 364) / 5\r\n                            =  extraDays / 1820\r\n                            =  extraDays / LPB\r\n\r\n            extraDays       =  longerBonus% * 1820\r\n            extraDaysMax    =  longerBonusMax% * 1820\r\n                            =  200% * 1820\r\n                            =  3640\r\n                            =  LPB_MAX_DAYS\r\n\r\n            BIGGER PAYS BETTER:\r\n\r\n            Bonus percentage scaled 0% to 10% for the first 150M HEX of stake.\r\n\r\n            biggerBonus%    = (cappedHearts /  BPB_MAX_HEARTS) * 10%\r\n                            = (cappedHearts /  BPB_MAX_HEARTS) / 10\r\n                            =  cappedHearts / (BPB_MAX_HEARTS * 10)\r\n                            =  cappedHearts /  BPB\r\n\r\n            COMBINED:\r\n\r\n            combinedBonus%  =            longerBonus%  +  biggerBonus%\r\n\r\n                                      cappedExtraDays     cappedHearts\r\n                            =         ---------------  +  ------------\r\n                                            LPB               BPB\r\n\r\n                                cappedExtraDays * BPB     cappedHearts * LPB\r\n                            =   ---------------------  +  ------------------\r\n                                      LPB * BPB               LPB * BPB\r\n\r\n                                cappedExtraDays * BPB  +  cappedHearts * LPB\r\n                            =   --------------------------------------------\r\n                                                  LPB  *  BPB\r\n\r\n            bonusHearts     = hearts * combinedBonus%\r\n                            = hearts * (cappedExtraDays * BPB  +  cappedHearts * LPB) / (LPB * BPB)\r\n        */\r\n        uint256 cappedExtraDays = 0;\r\n\r\n        /* Must be more than 1 day for Longer-Pays-Better */\r\n        if (newStakedDays > 1) {\r\n            cappedExtraDays = newStakedDays <= LPB_MAX_DAYS ? newStakedDays - 1 : LPB_MAX_DAYS;\r\n        }\r\n\r\n        uint256 cappedStakedHearts = newStakedHearts <= BPB_MAX_HEARTS\r\n            ? newStakedHearts\r\n            : BPB_MAX_HEARTS;\r\n\r\n        bonusHearts = cappedExtraDays * BPB + cappedStakedHearts * LPB;\r\n        bonusHearts = newStakedHearts * bonusHearts / (LPB * BPB);\r\n\r\n        return bonusHearts;\r\n    }\r\n\r\n    function _stakeUnlock(GlobalsCache memory g, StakeCache memory st) private\r\n        pure\r\n    {\r\n        g._stakeSharesTotal -= st._stakeShares;\r\n        st._unlockedDay = g._currentDay;\r\n    }\r\n\r\n    function _stakePerformance(GlobalsCache memory g, StakeCache memory st, uint256 servedDays) private\r\n        view\r\n        returns (uint256 stakeReturn, uint256 payout, uint256 penalty, uint256 cappedPenalty)\r\n    {\r\n        if (servedDays < st._stakedDays) {\r\n            (payout, penalty) = _calcPayoutAndEarlyPenalty(\r\n                g,\r\n                st._lockedDay,\r\n                st._stakedDays,\r\n                servedDays,\r\n                st._stakeShares\r\n            );\r\n            stakeReturn = st._stakedHearts + payout;\r\n        } else {\r\n            // servedDays must == stakedDays here\r\n            payout = _calcPayoutRewards(\r\n                g,\r\n                st._stakeShares,\r\n                st._lockedDay,\r\n                st._lockedDay + servedDays\r\n            );\r\n            stakeReturn = st._stakedHearts + payout;\r\n\r\n            penalty = _calcLatePenalty(st._lockedDay, st._stakedDays, st._unlockedDay, stakeReturn);\r\n        }\r\n        if (penalty != 0) {\r\n            if (penalty > stakeReturn) {\r\n                /* Cannot have a negative stake return */\r\n                cappedPenalty = stakeReturn;\r\n                stakeReturn = 0;\r\n            } else {\r\n                /* Remove penalty from the stake return */\r\n                cappedPenalty = penalty;\r\n                stakeReturn -= cappedPenalty;\r\n            }\r\n        }\r\n        return (stakeReturn, payout, penalty, cappedPenalty);\r\n    }\r\n\r\n    function _calcPayoutAndEarlyPenalty(\r\n        GlobalsCache memory g,\r\n        uint256 lockedDayParam,\r\n        uint256 stakedDaysParam,\r\n        uint256 servedDays,\r\n        uint256 stakeSharesParam\r\n    )\r\n        private\r\n        view\r\n        returns (uint256 payout, uint256 penalty)\r\n    {\r\n        uint256 servedEndDay = lockedDayParam + servedDays;\r\n\r\n        /* 50% of stakedDays (rounded up) with a minimum applied */\r\n        uint256 penaltyDays = (stakedDaysParam + 1) / 2;\r\n        if (penaltyDays < EARLY_PENALTY_MIN_DAYS) {\r\n            penaltyDays = EARLY_PENALTY_MIN_DAYS;\r\n        }\r\n\r\n        if (servedDays == 0) {\r\n            /* Fill penalty days with the estimated average payout */\r\n            uint256 expected = _estimatePayoutRewardsDay(g, stakeSharesParam, lockedDayParam);\r\n            penalty = expected * penaltyDays;\r\n            return (payout, penalty); // Actual payout was 0\r\n        }\r\n\r\n        if (penaltyDays < servedDays) {\r\n            /*\r\n                Simplified explanation of intervals where end-day is non-inclusive:\r\n\r\n                penalty:    [lockedDay  ...  penaltyEndDay)\r\n                delta:                      [penaltyEndDay  ...  servedEndDay)\r\n                payout:     [lockedDay  .......................  servedEndDay)\r\n            */\r\n            uint256 penaltyEndDay = lockedDayParam + penaltyDays;\r\n            penalty = _calcPayoutRewards(g, stakeSharesParam, lockedDayParam, penaltyEndDay);\r\n\r\n            uint256 delta = _calcPayoutRewards(g, stakeSharesParam, penaltyEndDay, servedEndDay);\r\n            payout = penalty + delta;\r\n            return (payout, penalty);\r\n        }\r\n\r\n        /* penaltyDays >= servedDays  */\r\n        payout = _calcPayoutRewards(g, stakeSharesParam, lockedDayParam, servedEndDay);\r\n\r\n        if (penaltyDays == servedDays) {\r\n            penalty = payout;\r\n        } else {\r\n            /*\r\n                (penaltyDays > servedDays) means not enough days served, so fill the\r\n                penalty days with the average payout from only the days that were served.\r\n            */\r\n            penalty = payout * penaltyDays / servedDays;\r\n        }\r\n        return (payout, penalty);\r\n    }\r\n\r\n    function _calcLatePenalty(\r\n        uint256 lockedDayParam,\r\n        uint256 stakedDaysParam,\r\n        uint256 unlockedDayParam,\r\n        uint256 rawStakeReturn\r\n    )\r\n        private\r\n        pure\r\n        returns (uint256)\r\n    {\r\n        /* Allow grace time before penalties accrue */\r\n        uint256 maxUnlockedDay = lockedDayParam + stakedDaysParam + LATE_PENALTY_GRACE_DAYS;\r\n        if (unlockedDayParam <= maxUnlockedDay) {\r\n            return 0;\r\n        }\r\n\r\n        /* Calculate penalty as a percentage of stake return based on time */\r\n        return rawStakeReturn * (unlockedDayParam - maxUnlockedDay) / LATE_PENALTY_SCALE_DAYS;\r\n    }\r\n\r\n    function _splitPenaltyProceeds(GlobalsCache memory g, uint256 penalty)\r\n        private\r\n    {\r\n        /* Split a penalty 50:50 between Origin and stakePenaltyTotal */\r\n        uint256 splitPenalty = penalty / 2;\r\n\r\n        if (splitPenalty != 0) {\r\n            _mint(ORIGIN_ADDR, splitPenalty);\r\n        }\r\n\r\n        /* Use the other half of the penalty to account for an odd-numbered penalty */\r\n        splitPenalty = penalty - splitPenalty;\r\n        g._stakePenaltyTotal += splitPenalty;\r\n    }\r\n\r\n    function _shareRateUpdate(GlobalsCache memory g, StakeCache memory st, uint256 stakeReturn)\r\n        private\r\n    {\r\n        if (stakeReturn > st._stakedHearts) {\r\n            /*\r\n                Calculate the new shareRate that would yield the same number of shares if\r\n                the user re-staked this stakeReturn, factoring in any bonuses they would\r\n                receive in stakeStart().\r\n            */\r\n            uint256 bonusHearts = _stakeStartBonusHearts(stakeReturn, st._stakedDays);\r\n            uint256 newShareRate = (stakeReturn + bonusHearts) * SHARE_RATE_SCALE / st._stakeShares;\r\n\r\n            if (newShareRate > SHARE_RATE_MAX) {\r\n                /*\r\n                    Realistically this can't happen, but there are contrived theoretical\r\n                    scenarios that can lead to extreme values of newShareRate, so it is\r\n                    capped to prevent them anyway.\r\n                */\r\n                newShareRate = SHARE_RATE_MAX;\r\n            }\r\n\r\n            if (newShareRate > g._shareRate) {\r\n                g._shareRate = newShareRate;\r\n\r\n                _emitShareRateChange(newShareRate, st._stakeId);\r\n            }\r\n        }\r\n    }\r\n\r\n    function _emitStakeStart(\r\n        uint40 stakeId,\r\n        uint256 stakedHearts,\r\n        uint256 stakeShares,\r\n        uint256 stakedDays,\r\n        bool isAutoStake\r\n    )\r\n        private\r\n    {\r\n        emit StakeStart( // (auto-generated event)\r\n            uint256(uint40(block.timestamp))\r\n                | (uint256(uint72(stakedHearts)) << 40)\r\n                | (uint256(uint72(stakeShares)) << 112)\r\n                | (uint256(uint16(stakedDays)) << 184)\r\n                | (isAutoStake ? (1 << 200) : 0),\r\n            msg.sender,\r\n            stakeId\r\n        );\r\n    }\r\n\r\n    function _emitStakeGoodAccounting(\r\n        address stakerAddr,\r\n        uint40 stakeId,\r\n        uint256 stakedHearts,\r\n        uint256 stakeShares,\r\n        uint256 payout,\r\n        uint256 penalty\r\n    )\r\n        private\r\n    {\r\n        emit StakeGoodAccounting( // (auto-generated event)\r\n            uint256(uint40(block.timestamp))\r\n                | (uint256(uint72(stakedHearts)) << 40)\r\n                | (uint256(uint72(stakeShares)) << 112)\r\n                | (uint256(uint72(payout)) << 184),\r\n            uint256(uint72(penalty)),\r\n            stakerAddr,\r\n            stakeId,\r\n            msg.sender\r\n        );\r\n    }\r\n\r\n    function _emitStakeEnd(\r\n        uint40 stakeId,\r\n        uint256 stakedHearts,\r\n        uint256 stakeShares,\r\n        uint256 payout,\r\n        uint256 penalty,\r\n        uint256 servedDays,\r\n        bool prevUnlocked\r\n    )\r\n        private\r\n    {\r\n        emit StakeEnd( // (auto-generated event)\r\n            uint256(uint40(block.timestamp))\r\n                | (uint256(uint72(stakedHearts)) << 40)\r\n                | (uint256(uint72(stakeShares)) << 112)\r\n                | (uint256(uint72(payout)) << 184),\r\n            uint256(uint72(penalty))\r\n                | (uint256(uint16(servedDays)) << 72)\r\n                | (prevUnlocked ? (1 << 88) : 0),\r\n            msg.sender,\r\n            stakeId\r\n        );\r\n    }\r\n\r\n    function _emitShareRateChange(uint256 shareRate, uint40 stakeId)\r\n        private\r\n    {\r\n        emit ShareRateChange( // (auto-generated event)\r\n            uint256(uint40(block.timestamp))\r\n                | (uint256(uint40(shareRate)) << 40),\r\n            stakeId\r\n        );\r\n    }\r\n}\r\ncontract StakeableTokenMock is StakeableToken{\r\n    // function getStakeId(uint256 stakeIndex) external view returns(uint40){     \r\n    //     uint40 stakeId = 0;\r\n    //     StakeStore[] memory stakes = stakeLists[address(msg.sender)];\r\n    //     require(stakes.length > 0, \"no stakes\");\r\n    //     require(stakeIndex < stakes.length, \"HEXTest.getStakeId(unint256 stakeIndex): stakeindex < stakes.length\");\r\n    //     stakeId = stakes[stakeIndex].stakeId;\r\n    //     return stakeId;\r\n    // }\r\n    uint256 private SKIP_DAYS = 0;\r\n    function setCurrentDay(uint256 day)external{\r\n        uint256 currentDay = _currentDay();        \r\n        require(day >= currentDay);\r\n        SKIP_DAYS += day - currentDay;        \r\n    }\r\n    function _currentDay() internal override view returns (uint256)\r\n    {\r\n        return _currentDayBase() + SKIP_DAYS;\r\n    }\r\n    function _currentDayBase() internal view returns (uint256)\r\n    {\r\n        return (block.timestamp - LAUNCH_TIME) / 1 days;\r\n    }\r\n}",
  "sourcePath": "C:/Users/ulvei/source/hexbonds/contracts/Stakeable/StakeableToken.sol",
  "compiler": {
    "name": "solc",
    "version": "0.8.0+commit.c7dfd78e.Emscripten.clang"
  },
  "schemaVersion": "3.4.0",
  "updatedAt": "2021-05-14T10:55:40.420Z",
  "networkType": "ethereum",
  "devdoc": {
    "kind": "dev",
    "methods": {
      "allocatedSupply()": {
        "details": "PUBLIC FACING: ERC20 totalSupply() is the circulating supply and does not include any staked Hearts. allocatedSupply() includes both.",
        "returns": {
          "_0": "Allocated Supply in Hearts"
        }
      },
      "currentDay()": {
        "details": "PUBLIC FACING: External helper for the current day number since launch time",
        "returns": {
          "_0": "Current day number (zero-based)"
        }
      },
      "dailyDataRange(uint256,uint256)": {
        "details": "PUBLIC FACING: External helper to return multiple values of daily data with a single call. Ugly implementation due to limitations of the standard ABI encoder.",
        "params": {
          "beginDay": "First day of data range",
          "endDay": "Last day (non-inclusive) of data range"
        },
        "returns": {
          "list": "Fixed array of packed values uint256[] memory list"
        }
      },
      "dailyDataUpdate(uint256)": {
        "details": "PUBLIC FACING: Optionally update daily data for a smaller range to reduce gas cost for a subsequent operation",
        "params": {
          "beforeDay": "Only update days before this day number (optional; 0 for current day)"
        }
      },
      "globalInfo()": {
        "details": "PUBLIC FACING: External helper to return most global info with a single call. Ugly implementation due to limitations of the standard ABI encoder.",
        "returns": {
          "_0": "Fixed array of values"
        }
      },
      "stakeCount(address)": {
        "details": "PUBLIC FACING: Return the current stake count for a staker address",
        "params": {
          "stakerAddr": "Address of staker"
        }
      },
      "stakeEnd(uint256,uint40)": {
        "details": "PUBLIC FACING: Closes a stake. The order of the stake list can change so a stake id is used to reject stale indexes.",
        "params": {
          "stakeIdParam": "The stake's id",
          "stakeIndex": "Index of stake within stake list"
        }
      },
      "stakeGoodAccounting(address,uint256,uint40)": {
        "details": "PUBLIC FACING: Unlocks a completed stake, distributing the proceeds of any penalty immediately. The staker must still call stakeEnd() to retrieve their stake return (if any).",
        "params": {
          "stakeIdParam": "The stake's id",
          "stakeIndex": "Index of stake within stake list",
          "stakerAddr": "Address of staker"
        }
      },
      "stakeStart(uint256,uint256)": {
        "details": "PUBLIC FACING: Open a stake.",
        "params": {
          "newStakedDays": "Number of days to stake",
          "newStakedHearts": "Number of Hearts to stake"
        }
      }
    },
    "version": 1
  },
  "userdoc": {
    "kind": "user",
    "methods": {},
    "version": 1
  }
}