{
    "contractName": "PortableStake",
    "abi": [
        {
            "inputs": [
                {
                    "internalType": "contract StakeableRef",
                    "name": "stakeableTokenContract",
                    "type": "address"
                },
                {
                    "internalType": "uint8",
                    "name": "minStakeDays",
                    "type": "uint8"
                },
                {
                    "internalType": "uint16",
                    "name": "maxStakeDays",
                    "type": "uint16"
                }
            ],
            "stateMutability": "nonpayable",
            "type": "constructor"
        },
        {
            "anonymous": false,
            "inputs": [
                {
                    "indexed": true,
                    "internalType": "address",
                    "name": "_owner",
                    "type": "address"
                },
                {
                    "indexed": true,
                    "internalType": "address",
                    "name": "_approved",
                    "type": "address"
                },
                {
                    "indexed": true,
                    "internalType": "uint256",
                    "name": "_tokenId",
                    "type": "uint256"
                }
            ],
            "name": "Approval",
            "type": "event"
        },
        {
            "anonymous": false,
            "inputs": [
                {
                    "indexed": true,
                    "internalType": "address",
                    "name": "_owner",
                    "type": "address"
                },
                {
                    "indexed": true,
                    "internalType": "address",
                    "name": "_operator",
                    "type": "address"
                },
                {
                    "indexed": false,
                    "internalType": "bool",
                    "name": "_approved",
                    "type": "bool"
                }
            ],
            "name": "ApprovalForAll",
            "type": "event"
        },
        {
            "anonymous": false,
            "inputs": [
                {
                    "indexed": true,
                    "internalType": "address",
                    "name": "previousOwner",
                    "type": "address"
                },
                {
                    "indexed": true,
                    "internalType": "address",
                    "name": "newOwner",
                    "type": "address"
                }
            ],
            "name": "OwnershipTransferred",
            "type": "event"
        },
        {
            "anonymous": false,
            "inputs": [
                {
                    "indexed": false,
                    "internalType": "uint256",
                    "name": "tokenId",
                    "type": "uint256"
                },
                {
                    "indexed": false,
                    "internalType": "uint256",
                    "name": "stakeId",
                    "type": "uint256"
                },
                {
                    "indexed": false,
                    "internalType": "address",
                    "name": "owner",
                    "type": "address"
                },
                {
                    "indexed": false,
                    "internalType": "address",
                    "name": "actor",
                    "type": "address"
                },
                {
                    "indexed": false,
                    "internalType": "uint256",
                    "name": "stakedAmount",
                    "type": "uint256"
                },
                {
                    "indexed": false,
                    "internalType": "uint256",
                    "name": "unStakedAmount",
                    "type": "uint256"
                },
                {
                    "indexed": false,
                    "internalType": "uint256",
                    "name": "actorRewardAmount",
                    "type": "uint256"
                },
                {
                    "indexed": false,
                    "internalType": "uint256",
                    "name": "returnedToOwnerAmount",
                    "type": "uint256"
                },
                {
                    "indexed": false,
                    "internalType": "uint16",
                    "name": "startDay",
                    "type": "uint16"
                },
                {
                    "indexed": false,
                    "internalType": "uint16",
                    "name": "stakeLength",
                    "type": "uint16"
                },
                {
                    "indexed": false,
                    "internalType": "uint8",
                    "name": "lateDays",
                    "type": "uint8"
                }
            ],
            "name": "PortableStakeEnd",
            "type": "event"
        },
        {
            "anonymous": false,
            "inputs": [
                {
                    "indexed": false,
                    "internalType": "uint256",
                    "name": "tokenId",
                    "type": "uint256"
                },
                {
                    "indexed": false,
                    "internalType": "uint256",
                    "name": "stakeId",
                    "type": "uint256"
                },
                {
                    "indexed": false,
                    "internalType": "address",
                    "name": "owner",
                    "type": "address"
                },
                {
                    "indexed": false,
                    "internalType": "uint256",
                    "name": "feeAmount",
                    "type": "uint256"
                },
                {
                    "indexed": false,
                    "internalType": "uint256",
                    "name": "stakedAmount",
                    "type": "uint256"
                },
                {
                    "indexed": false,
                    "internalType": "uint16",
                    "name": "stakeLength",
                    "type": "uint16"
                },
                {
                    "indexed": false,
                    "internalType": "uint8",
                    "name": "rewardStretching",
                    "type": "uint8"
                }
            ],
            "name": "PortableStakeStart",
            "type": "event"
        },
        {
            "anonymous": false,
            "inputs": [
                {
                    "indexed": true,
                    "internalType": "address",
                    "name": "_from",
                    "type": "address"
                },
                {
                    "indexed": true,
                    "internalType": "address",
                    "name": "_to",
                    "type": "address"
                },
                {
                    "indexed": true,
                    "internalType": "uint256",
                    "name": "_tokenId",
                    "type": "uint256"
                }
            ],
            "name": "Transfer",
            "type": "event"
        },
        {
            "inputs": [],
            "name": "DEFAULT_REWARD_STRETCHING",
            "outputs": [
                {
                    "internalType": "uint8",
                    "name": "",
                    "type": "uint8"
                }
            ],
            "stateMutability": "view",
            "type": "function"
        },
        {
            "inputs": [],
            "name": "Domain",
            "outputs": [
                {
                    "internalType": "string",
                    "name": "",
                    "type": "string"
                }
            ],
            "stateMutability": "view",
            "type": "function"
        },
        {
            "inputs": [],
            "name": "MAX_OWNER_FEE_PERMILLE",
            "outputs": [
                {
                    "internalType": "uint8",
                    "name": "",
                    "type": "uint8"
                }
            ],
            "stateMutability": "view",
            "type": "function"
        },
        {
            "inputs": [],
            "name": "MAX_REFERRAL_FEE_PERMILLE",
            "outputs": [
                {
                    "internalType": "uint8",
                    "name": "",
                    "type": "uint8"
                }
            ],
            "stateMutability": "view",
            "type": "function"
        },
        {
            "inputs": [],
            "name": "MAX_REWARD_STRETCHING",
            "outputs": [
                {
                    "internalType": "uint8",
                    "name": "",
                    "type": "uint8"
                }
            ],
            "stateMutability": "view",
            "type": "function"
        },
        {
            "inputs": [],
            "name": "MAX_STAKE_DAYS",
            "outputs": [
                {
                    "internalType": "uint16",
                    "name": "",
                    "type": "uint16"
                }
            ],
            "stateMutability": "view",
            "type": "function"
        },
        {
            "inputs": [],
            "name": "MIN_REWARD_STRETCHING",
            "outputs": [
                {
                    "internalType": "uint8",
                    "name": "",
                    "type": "uint8"
                }
            ],
            "stateMutability": "view",
            "type": "function"
        },
        {
            "inputs": [],
            "name": "MIN_STAKE_DAYS",
            "outputs": [
                {
                    "internalType": "uint8",
                    "name": "",
                    "type": "uint8"
                }
            ],
            "stateMutability": "view",
            "type": "function"
        },
        {
            "inputs": [],
            "name": "Name",
            "outputs": [
                {
                    "internalType": "string",
                    "name": "",
                    "type": "string"
                }
            ],
            "stateMutability": "view",
            "type": "function"
        },
        {
            "inputs": [],
            "name": "OWNER_FEE_PERMILLE",
            "outputs": [
                {
                    "internalType": "uint8",
                    "name": "",
                    "type": "uint8"
                }
            ],
            "stateMutability": "view",
            "type": "function"
        },
        {
            "inputs": [],
            "name": "PaymentContract",
            "outputs": [
                {
                    "internalType": "contract IERC20",
                    "name": "",
                    "type": "address"
                }
            ],
            "stateMutability": "view",
            "type": "function"
        },
        {
            "inputs": [],
            "name": "StakeableTokenContract",
            "outputs": [
                {
                    "internalType": "contract StakeableRef",
                    "name": "",
                    "type": "address"
                }
            ],
            "stateMutability": "view",
            "type": "function"
        },
        {
            "inputs": [],
            "name": "Symbol",
            "outputs": [
                {
                    "internalType": "string",
                    "name": "",
                    "type": "string"
                }
            ],
            "stateMutability": "view",
            "type": "function"
        },
        {
            "inputs": [],
            "name": "TokenIdCounter",
            "outputs": [
                {
                    "internalType": "uint256",
                    "name": "",
                    "type": "uint256"
                }
            ],
            "stateMutability": "view",
            "type": "function"
        },
        {
            "inputs": [
                {
                    "internalType": "address",
                    "name": "_approved",
                    "type": "address"
                },
                {
                    "internalType": "uint256",
                    "name": "_tokenId",
                    "type": "uint256"
                }
            ],
            "name": "approve",
            "outputs": [],
            "stateMutability": "nonpayable",
            "type": "function"
        },
        {
            "inputs": [
                {
                    "internalType": "address",
                    "name": "_owner",
                    "type": "address"
                }
            ],
            "name": "balanceOf",
            "outputs": [
                {
                    "internalType": "uint256",
                    "name": "",
                    "type": "uint256"
                }
            ],
            "stateMutability": "view",
            "type": "function"
        },
        {
            "inputs": [
                {
                    "internalType": "uint256",
                    "name": "principal",
                    "type": "uint256"
                },
                {
                    "internalType": "uint256",
                    "name": "fee",
                    "type": "uint256"
                },
                {
                    "internalType": "address",
                    "name": "collector",
                    "type": "address"
                }
            ],
            "name": "chargeFee",
            "outputs": [
                {
                    "internalType": "uint256",
                    "name": "newPrincipal",
                    "type": "uint256"
                }
            ],
            "stateMutability": "nonpayable",
            "type": "function"
        },
        {
            "inputs": [
                {
                    "internalType": "uint256",
                    "name": "_tokenId",
                    "type": "uint256"
                }
            ],
            "name": "getApproved",
            "outputs": [
                {
                    "internalType": "address",
                    "name": "",
                    "type": "address"
                }
            ],
            "stateMutability": "view",
            "type": "function"
        },
        {
            "inputs": [
                {
                    "internalType": "uint256",
                    "name": "",
                    "type": "uint256"
                }
            ],
            "name": "idToToken",
            "outputs": [
                {
                    "internalType": "uint256",
                    "name": "tokenId",
                    "type": "uint256"
                },
                {
                    "internalType": "uint256",
                    "name": "amount",
                    "type": "uint256"
                },
                {
                    "internalType": "uint40",
                    "name": "stakeId",
                    "type": "uint40"
                },
                {
                    "internalType": "uint8",
                    "name": "rewardStretching",
                    "type": "uint8"
                }
            ],
            "stateMutability": "view",
            "type": "function"
        },
        {
            "inputs": [
                {
                    "internalType": "address",
                    "name": "_owner",
                    "type": "address"
                },
                {
                    "internalType": "address",
                    "name": "_operator",
                    "type": "address"
                }
            ],
            "name": "isApprovedForAll",
            "outputs": [
                {
                    "internalType": "bool",
                    "name": "",
                    "type": "bool"
                }
            ],
            "stateMutability": "view",
            "type": "function"
        },
        {
            "inputs": [],
            "name": "owner",
            "outputs": [
                {
                    "internalType": "address",
                    "name": "",
                    "type": "address"
                }
            ],
            "stateMutability": "view",
            "type": "function"
        },
        {
            "inputs": [
                {
                    "internalType": "uint256",
                    "name": "_tokenId",
                    "type": "uint256"
                }
            ],
            "name": "ownerOf",
            "outputs": [
                {
                    "internalType": "address",
                    "name": "_owner",
                    "type": "address"
                }
            ],
            "stateMutability": "view",
            "type": "function"
        },
        {
            "inputs": [],
            "name": "redeemFees",
            "outputs": [],
            "stateMutability": "nonpayable",
            "type": "function"
        },
        {
            "inputs": [
                {
                    "internalType": "address",
                    "name": "",
                    "type": "address"
                }
            ],
            "name": "redeemableFees",
            "outputs": [
                {
                    "internalType": "uint256",
                    "name": "",
                    "type": "uint256"
                }
            ],
            "stateMutability": "view",
            "type": "function"
        },
        {
            "inputs": [],
            "name": "renounceOwnership",
            "outputs": [],
            "stateMutability": "nonpayable",
            "type": "function"
        },
        {
            "inputs": [
                {
                    "internalType": "address",
                    "name": "_from",
                    "type": "address"
                },
                {
                    "internalType": "address",
                    "name": "_to",
                    "type": "address"
                },
                {
                    "internalType": "uint256",
                    "name": "_tokenId",
                    "type": "uint256"
                }
            ],
            "name": "safeTransferFrom",
            "outputs": [],
            "stateMutability": "nonpayable",
            "type": "function"
        },
        {
            "inputs": [
                {
                    "internalType": "address",
                    "name": "_from",
                    "type": "address"
                },
                {
                    "internalType": "address",
                    "name": "_to",
                    "type": "address"
                },
                {
                    "internalType": "uint256",
                    "name": "_tokenId",
                    "type": "uint256"
                },
                {
                    "internalType": "bytes",
                    "name": "_data",
                    "type": "bytes"
                }
            ],
            "name": "safeTransferFrom",
            "outputs": [],
            "stateMutability": "nonpayable",
            "type": "function"
        },
        {
            "inputs": [
                {
                    "internalType": "address",
                    "name": "_operator",
                    "type": "address"
                },
                {
                    "internalType": "bool",
                    "name": "_approved",
                    "type": "bool"
                }
            ],
            "name": "setApprovalForAll",
            "outputs": [],
            "stateMutability": "nonpayable",
            "type": "function"
        },
        {
            "inputs": [
                {
                    "internalType": "string",
                    "name": "n",
                    "type": "string"
                },
                {
                    "internalType": "string",
                    "name": "s",
                    "type": "string"
                },
                {
                    "internalType": "string",
                    "name": "d",
                    "type": "string"
                },
                {
                    "internalType": "uint8",
                    "name": "ds",
                    "type": "uint8"
                },
                {
                    "internalType": "uint8",
                    "name": "m",
                    "type": "uint8"
                },
                {
                    "internalType": "uint8",
                    "name": "o",
                    "type": "uint8"
                }
            ],
            "name": "setConstants",
            "outputs": [],
            "stateMutability": "nonpayable",
            "type": "function"
        },
        {
            "inputs": [
                {
                    "internalType": "bytes4",
                    "name": "_interfaceID",
                    "type": "bytes4"
                }
            ],
            "name": "supportsInterface",
            "outputs": [
                {
                    "internalType": "bool",
                    "name": "",
                    "type": "bool"
                }
            ],
            "stateMutability": "view",
            "type": "function"
        },
        {
            "inputs": [
                {
                    "internalType": "uint256",
                    "name": "_index",
                    "type": "uint256"
                }
            ],
            "name": "tokenByIndex",
            "outputs": [
                {
                    "internalType": "uint256",
                    "name": "",
                    "type": "uint256"
                }
            ],
            "stateMutability": "view",
            "type": "function"
        },
        {
            "inputs": [
                {
                    "internalType": "address",
                    "name": "_owner",
                    "type": "address"
                },
                {
                    "internalType": "uint256",
                    "name": "_index",
                    "type": "uint256"
                }
            ],
            "name": "tokenOfOwnerByIndex",
            "outputs": [
                {
                    "internalType": "uint256",
                    "name": "",
                    "type": "uint256"
                }
            ],
            "stateMutability": "view",
            "type": "function"
        },
        {
            "inputs": [],
            "name": "totalSupply",
            "outputs": [
                {
                    "internalType": "uint256",
                    "name": "",
                    "type": "uint256"
                }
            ],
            "stateMutability": "view",
            "type": "function"
        },
        {
            "inputs": [
                {
                    "internalType": "address",
                    "name": "_from",
                    "type": "address"
                },
                {
                    "internalType": "address",
                    "name": "_to",
                    "type": "address"
                },
                {
                    "internalType": "uint256",
                    "name": "_tokenId",
                    "type": "uint256"
                }
            ],
            "name": "transferFrom",
            "outputs": [],
            "stateMutability": "nonpayable",
            "type": "function"
        },
        {
            "inputs": [
                {
                    "internalType": "address",
                    "name": "newOwner",
                    "type": "address"
                }
            ],
            "name": "transferOwnership",
            "outputs": [],
            "stateMutability": "nonpayable",
            "type": "function"
        },
        {
            "inputs": [],
            "name": "getWrappedContract",
            "outputs": [
                {
                    "internalType": "contract IERC20",
                    "name": "",
                    "type": "address"
                }
            ],
            "stateMutability": "view",
            "type": "function"
        },
        {
            "inputs": [],
            "name": "wrappedSymbol",
            "outputs": [
                {
                    "internalType": "string",
                    "name": "",
                    "type": "string"
                }
            ],
            "stateMutability": "view",
            "type": "function"
        },
        {
            "inputs": [],
            "name": "wrappedName",
            "outputs": [
                {
                    "internalType": "string",
                    "name": "",
                    "type": "string"
                }
            ],
            "stateMutability": "view",
            "type": "function"
        },
        {
            "inputs": [],
            "name": "name",
            "outputs": [
                {
                    "internalType": "string",
                    "name": "_name",
                    "type": "string"
                }
            ],
            "stateMutability": "view",
            "type": "function"
        },
        {
            "inputs": [],
            "name": "symbol",
            "outputs": [
                {
                    "internalType": "string",
                    "name": "_symbol",
                    "type": "string"
                }
            ],
            "stateMutability": "view",
            "type": "function"
        },
        {
            "inputs": [
                {
                    "internalType": "uint256",
                    "name": "_tokenId",
                    "type": "uint256"
                }
            ],
            "name": "tokenURI",
            "outputs": [
                {
                    "internalType": "string",
                    "name": "",
                    "type": "string"
                }
            ],
            "stateMutability": "view",
            "type": "function"
        },
        {
            "inputs": [
                {
                    "internalType": "uint256",
                    "name": "amount",
                    "type": "uint256"
                }
            ],
            "name": "mintMaxDays",
            "outputs": [],
            "stateMutability": "nonpayable",
            "type": "function"
        },
        {
            "inputs": [
                {
                    "internalType": "uint256",
                    "name": "amount",
                    "type": "uint256"
                },
                {
                    "internalType": "uint16",
                    "name": "stakeDays",
                    "type": "uint16"
                }
            ],
            "name": "mintCustomDays",
            "outputs": [],
            "stateMutability": "nonpayable",
            "type": "function"
        },
        {
            "inputs": [
                {
                    "internalType": "uint256",
                    "name": "amount",
                    "type": "uint256"
                },
                {
                    "internalType": "uint16",
                    "name": "stakeDays",
                    "type": "uint16"
                },
                {
                    "internalType": "address",
                    "name": "referrer",
                    "type": "address"
                },
                {
                    "internalType": "uint256",
                    "name": "referralFee",
                    "type": "uint256"
                }
            ],
            "name": "mintReferred",
            "outputs": [],
            "stateMutability": "nonpayable",
            "type": "function"
        },
        {
            "inputs": [
                {
                    "internalType": "uint256",
                    "name": "amount",
                    "type": "uint256"
                },
                {
                    "internalType": "uint16",
                    "name": "stakeDays",
                    "type": "uint16"
                },
                {
                    "internalType": "address",
                    "name": "referrer",
                    "type": "address"
                },
                {
                    "internalType": "uint256",
                    "name": "referralFee",
                    "type": "uint256"
                },
                {
                    "internalType": "uint8",
                    "name": "rewardStretching",
                    "type": "uint8"
                }
            ],
            "name": "mintCustomRewardStretching",
            "outputs": [],
            "stateMutability": "nonpayable",
            "type": "function"
        },
        {
            "inputs": [
                {
                    "components": [
                        {
                            "internalType": "address",
                            "name": "owner",
                            "type": "address"
                        },
                        {
                            "internalType": "address",
                            "name": "referrer",
                            "type": "address"
                        },
                        {
                            "internalType": "uint256",
                            "name": "amount",
                            "type": "uint256"
                        },
                        {
                            "internalType": "uint256",
                            "name": "fee",
                            "type": "uint256"
                        },
                        {
                            "internalType": "uint16",
                            "name": "stakeDays",
                            "type": "uint16"
                        },
                        {
                            "internalType": "uint8",
                            "name": "rewardStretching",
                            "type": "uint8"
                        }
                    ],
                    "internalType": "struct PortableStake.MintingInfo",
                    "name": "info",
                    "type": "tuple"
                }
            ],
            "name": "_checkInput",
            "outputs": [],
            "stateMutability": "view",
            "type": "function"
        },
        {
            "inputs": [
                {
                    "internalType": "uint256",
                    "name": "principal",
                    "type": "uint256"
                },
                {
                    "internalType": "uint8",
                    "name": "waitedDays",
                    "type": "uint8"
                },
                {
                    "internalType": "uint8",
                    "name": "rewardStretchingDays",
                    "type": "uint8"
                }
            ],
            "name": "calculateReward",
            "outputs": [
                {
                    "internalType": "uint256",
                    "name": "rewardAmount",
                    "type": "uint256"
                }
            ],
            "stateMutability": "pure",
            "type": "function"
        },
        {
            "inputs": [
                {
                    "internalType": "uint256",
                    "name": "principal",
                    "type": "uint256"
                },
                {
                    "internalType": "uint256",
                    "name": "requestedReferrerFee",
                    "type": "uint256"
                }
            ],
            "name": "calculateFees",
            "outputs": [
                {
                    "internalType": "uint256",
                    "name": "referrerFee",
                    "type": "uint256"
                },
                {
                    "internalType": "uint256",
                    "name": "ownerFee",
                    "type": "uint256"
                }
            ],
            "stateMutability": "view",
            "type": "function"
        },
        {
            "inputs": [
                {
                    "internalType": "uint256",
                    "name": "tokenId",
                    "type": "uint256"
                }
            ],
            "name": "getStakeIndex",
            "outputs": [
                {
                    "internalType": "uint256",
                    "name": "",
                    "type": "uint256"
                }
            ],
            "stateMutability": "view",
            "type": "function"
        },
        {
            "inputs": [
                {
                    "internalType": "uint256",
                    "name": "tokenId",
                    "type": "uint256"
                },
                {
                    "internalType": "uint256",
                    "name": "stakeIndex",
                    "type": "uint256"
                }
            ],
            "name": "settle",
            "outputs": [],
            "stateMutability": "nonpayable",
            "type": "function"
        }
    ],
    "bytecode": "0x60c06040526008608081905267109954dd185ad95960c21b60a09081526200002b91600a91906200028a565b5060408051808201909152600680825265084a6a8908ab60d31b60209092019182526200005b91600b916200028a565b506040805180820190915260088082526718995cdd185ad95960c21b60209092019182526200008d91600c916200028a565b50600d8054603c60ff199091161761ff0019166164001762ff00001916620200001790556001601155348015620000c357600080fd5b5060405162003ee138038062003ee1833981016040819052620000e69162000330565b600060208190527f67be87c3ff9960ca1e9cfac5cab2ff4747269cf9ed20c9b7306235ac35a491c58054600160ff1991821681179092557ff7815fccbf112960a73756e185887fedcb9fc64ca0a16cc5923b7960ed780800805482168317905563780e9d6360e01b83527f77b7bbe0e49b76487c9476b5db3354cf5270619d0037ccb899c2a4c4a75b43188054909116909117905583906200018762000286565b600980546001600160a01b0319166001600160a01b038316908117909155604051919250906000907f8be0079c531659141344cd1fd0a4f28419497f9722a3daafe3b4186f6b6457e0908290a350600d80546001600160a01b039283166301000000026301000000600160b81b0319909116179055600f805461ffff909316600160a01b0261ffff60a01b1960ff909516600160b01b0260ff60b01b19969093166001600160a01b031990941693909317949094161791909116179055635b5e139f60e01b60009081526020527f9562381dfbc2d8b8b66e765249f330164b73e329e5f01670660643571d1974df805460ff19166001179055620003d3565b3390565b828054620002989062000396565b90600052602060002090601f016020900481019282620002bc576000855562000307565b82601f10620002d757805160ff191683800117855562000307565b8280016001018555821562000307579182015b8281111562000307578251825591602001919060010190620002ea565b506200031592915062000319565b5090565b5b808211156200031557600081556001016200031a565b60008060006060848603121562000345578283fd5b83516001600160a01b03811681146200035c578384fd5b602085015190935060ff8116811462000373578283fd5b604085015190925061ffff811681146200038b578182fd5b809150509250925092565b600281046001821680620003ab57607f821691505b60208210811415620003cd57634e487b7160e01b600052602260045260246000fd5b50919050565b613afe80620003e36000396000f3fe608060405234801561001057600080fd5b50600436106102d65760003560e01c8063619eea0011610182578063a22cb465116100e9578063e8623232116100a2578063f5c6b96b1161007c578063f5c6b96b146105bd578063fda1094e146105e0578063fee8cf4e146105f3578063ff95be27146105fb576102d6565b8063e86232321461058f578063e985e9c514610597578063f2fde38b146105aa576102d6565b8063a22cb46514610533578063b88d4fde14610546578063c6d7e98114610559578063c87b56dd14610561578063ce84291214610574578063cf42c95c1461057c576102d6565b806379c97f6b1161013b57806379c97f6b146104f85780638052474d146105005780638da5cb5b1461050857806395d89b41146105105780639812dce2146105185780639a9c29f614610520576102d6565b8063619eea00146104965780636352211e146104a95780637096335b146104bc57806370a08231146104dd57806370f342d814610432578063715018a6146104f0576102d6565b806326986d3f116102415780634335c9f9116101fa57806354fe1c9f116101d457806354fe1c9f1461046057806358047913146104735780635ea469731461047b578063600819121461048e576102d6565b80634335c9f9146104325780634914578d1461043a5780634f6ccce71461044d576102d6565b806326986d3f146103d45780632f745c59146103e95780633045aaf3146103fc57806332b5d2ff146104045780633a047bb31461041757806342842e0e1461041f576102d6565b806311a4050e1161029357806311a4050e1461036b578063140f9df114610373578063149edf9a1461038657806318160ddd146103995780631ab9d716146103ae57806323b872dd146103c1576102d6565b806301ffc9a7146102db57806306fdde0314610304578063081812fc14610319578063095ea7b314610339578063106aa37a1461034e5780631191513114610363575b600080fd5b6102ee6102e9366004612ec7565b610603565b6040516102fb91906134e1565b60405180910390f35b61030c610626565b6040516102fb91906134ec565b61032c6103273660046130fb565b6106b8565b6040516102fb9190613443565b61034c610347366004612e82565b61073a565b005b6103566108dc565b6040516102fb919061391e565b61030c6108ea565b610356610978565b61034c610381366004613069565b610981565b61034c61039436600461314f565b610a6a565b6103a1610ab7565b6040516102fb919061380c565b61034c6103bc366004613194565b610abd565b61034c6103cf366004612da4565b610b12565b6103dc610ccd565b6040516102fb91906137fd565b6103a16103f7366004612e82565b610cde565b61030c610d83565b6103a16104123660046130fb565b610d90565b61034c610efd565b61034c61042d366004612da4565b610fd7565b610356610ff7565b61034c6104483660046130fb565b610ffc565b6103a161045b3660046130fb565b611047565b61034c61046e366004612eff565b6110bd565b61032c611170565b61034c61048936600461312b565b61117f565b6103a16111c1565b6103a16104a436600461320d565b6111c7565b61032c6104b73660046130fb565b61124e565b6104cf6104ca3660046131ec565b6112a6565b6040516102fb929190613827565b6103a16104eb366004612d58565b611308565b61034c61135f565b6103566113e8565b61030c6113ed565b61032c6113fa565b61030c611409565b610356611418565b61034c61052e3660046131ec565b611428565b61034c610541366004612e4c565b6116dc565b61034c610554366004612ddf565b61174b565b61032c61178d565b61030c61056f3660046130fb565b61179c565b61032c611826565b6103a161058a366004613241565b61183c565b61030c611851565b6102ee6105a5366004612d72565b6118d7565b61034c6105b8366004612d58565b611905565b6105d06105cb3660046130fb565b6119c6565b6040516102fb9493929190613835565b6103a16105ee366004612d58565b6119fc565b61030c611a0e565b610356611a53565b6001600160e01b0319811660009081526020819052604090205460ff165b919050565b6060600a805461063590613a18565b80601f016020809104026020016040519081016040528092919081815260200182805461066190613a18565b80156106ae5780601f10610683576101008083540402835291602001916106ae565b820191906000526020600020905b81548152906001019060200180831161069157829003601f168201915b5050505050905090565b6000818152600160209081526040808320548151808301909252600682526518181998181960d11b9282019290925283916001600160a01b03166107185760405162461bcd60e51b815260040161070f91906134ec565b60405180910390fd5b506000838152600260205260409020546001600160a01b031691505b50919050565b60008181526001602052604090205481906001600160a01b03163381148061078557506001600160a01b038116600090815260046020908152604080832033845290915290205460ff165b6040518060400160405280600681526020016530303330303360d01b815250906107c25760405162461bcd60e51b815260040161070f91906134ec565b50600083815260016020908152604091829020548251808401909352600683526518181998181960d11b918301919091528491906001600160a01b031661081c5760405162461bcd60e51b815260040161070f91906134ec565b50600084815260016020908152604091829020548251808401909352600683526506060666060760d31b918301919091526001600160a01b039081169190871682141561087c5760405162461bcd60e51b815260040161070f91906134ec565b5060008581526002602052604080822080546001600160a01b0319166001600160a01b038a811691821790925591518893918516917f8c5be1e5ebec7d5bd14f71427d1e84f3dd0314c0f7b2291e5b200ac8c7c3b92591a4505050505050565b600d54610100900460ff1681565b600c80546108f790613a18565b80601f016020809104026020016040519081016040528092919081815260200182805461092390613a18565b80156109705780601f1061094557610100808354040283529160200191610970565b820191906000526020600020905b81548152906001019060200180831161095357829003601f168201915b505050505081565b600d5460ff1681565b60008160400151116109a55760405162461bcd60e51b815260040161070f906135f7565b600f60169054906101000a900460ff1660ff16816080015161ffff1610156109df5760405162461bcd60e51b815260040161070f906137ae565b600f54608082015161ffff600160a01b909204821691161115610a145760405162461bcd60e51b815260040161070f90613561565b600a60ff168160a0015160ff161015610a3f5760405162461bcd60e51b815260040161070f9061362e565b60a081015160ff9081161115610a675760405162461bcd60e51b815260040161070f9061362e565b50565b6040805160c0810182523381526001600160a01b03841660208201529081018590526060810182905261ffff84166080820152600d5460ff1660a0820152610ab190611a62565b50505050565b60055490565b610b0b6040518060c00160405280336001600160a01b03168152602001856001600160a01b031681526020018781526020018481526020018661ffff1681526020018360ff16815250611a62565b5050505050565b60008181526001602052604090205481906001600160a01b031633811480610b5057506000828152600260205260409020546001600160a01b031633145b80610b7e57506001600160a01b038116600090815260046020908152604080832033845290915290205460ff165b604051806040016040528060068152602001650c0c0ccc0c0d60d21b81525090610bbb5760405162461bcd60e51b815260040161070f91906134ec565b50600083815260016020908152604091829020548251808401909352600683526518181998181960d11b918301919091528491906001600160a01b0316610c155760405162461bcd60e51b815260040161070f91906134ec565b50600084815260016020908152604091829020548251808401909352600683526530303330303760d01b918301919091526001600160a01b03908116919088168214610c745760405162461bcd60e51b815260040161070f91906134ec565b5060408051808201909152600681526530303330303160d01b60208201526001600160a01b038716610cb95760405162461bcd60e51b815260040161070f91906134ec565b50610cc48686611bab565b50505050505050565b600f54600160a01b900461ffff1681565b6001600160a01b0382166000908152600760209081526040808320548151808301909252600682526530303530303760d01b92820192909252908310610d375760405162461bcd60e51b815260040161070f91906134ec565b506001600160a01b0383166000908152600760205260409020805483908110610d7057634e487b7160e01b600052603260045260246000fd5b9060005260206000200154905092915050565b600b80546108f790613a18565b60008181526010602052604080822060020154600f54915163033060d960e41b815264ffffffffff90911691839182916001600160a01b0316906333060d9090610dde903090600401613443565b60206040518083038186803b158015610df657600080fd5b505afa158015610e0a573d6000803e3d6000fd5b505050506040513d601f19601f82011682018060405250810190610e2e9190613113565b905060005b81811015610ef457600f54604051632607443b60e01b81526001600160a01b0390911690632607443b90610e6d90309085906004016134c8565b60e06040518083038186803b158015610e8557600080fd5b505afa158015610e99573d6000803e3d6000fd5b505050506040513d601f19601f82011682018060405250810190610ebd9190613273565b505064ffffffffff9094169650505050848414159050610ee257935061062192505050565b80610eec81613a4d565b915050610e33565b50949350505050565b336000818152600e602052604090205480610f2a5760405162461bcd60e51b815260040161070f906134ff565b600d5460405163a9059cbb60e01b815263010000009091046001600160a01b03169063a9059cbb90610f6290859085906004016134c8565b602060405180830381600087803b158015610f7c57600080fd5b505af1158015610f90573d6000803e3d6000fd5b505050506040513d601f19601f82011682018060405250810190610fb49190612eab565b15610fd3576001600160a01b0382166000908152600e60205260408120555b5050565b610ff283838360405180602001604052806000815250611c26565b505050565b600a81565b6040805160c0810182523381526000602082018190529181018390526060810191909152600f54600160a01b900461ffff166080820152600d5460ff1660a0820152610a6790611a62565b60055460408051808201909152600681526530303530303760d01b602082015260009183106110895760405162461bcd60e51b815260040161070f91906134ec565b50600582815481106110ab57634e487b7160e01b600052603260045260246000fd5b90600052602060002001549050919050565b6110c5611ed4565b6001600160a01b03166110d66113fa565b6001600160a01b0316146110fc5760405162461bcd60e51b815260040161070f906136c6565b611108600a8a8a612c37565b50611115600b8888612c37565b50611122600c8686612c37565b50600d805460ff191660ff8581169190911761ff0019166101008583160217909155600a9082161161116557600d805462ff000019166201000060ff8416021790555b505050505050505050565b600f546001600160a01b031690565b6040805160c081018252338152600060208201819052918101849052606081019190915261ffff82166080820152600d5460ff1660a0820152610fd390611a62565b60115481565b60008383111580156111d95750600083115b80156111ed57506001600160a01b03821615155b15611244576001600160a01b0382166000908152600e60205260409020546112158482613938565b6001600160a01b0384166000908152600e60205260409020819055905061123c84866139b2565b915050611247565b50825b9392505050565b600081815260016020908152604091829020548251808401909352600683526518181998181960d11b918301919091526001600160a01b031690816107345760405162461bcd60e51b815260040161070f91906134ec565b600080806112b66103e886613950565b600d549091506000906112d190610100900460ff1683613970565b9050808511156112e3578093506112e7565b8493505b600d546112fd9062010000900460ff1683613970565b925050509250929050565b60408051808201909152600681526530303330303160d01b60208201526000906001600160a01b03831661134f5760405162461bcd60e51b815260040161070f91906134ec565b5061135982611ed8565b92915050565b611367611ed4565b6001600160a01b03166113786113fa565b6001600160a01b03161461139e5760405162461bcd60e51b815260040161070f906136c6565b6009546040516000916001600160a01b0316907f8be0079c531659141344cd1fd0a4f28419497f9722a3daafe3b4186f6b6457e0908390a3600980546001600160a01b0319169055565b60ff81565b600a80546108f790613a18565b6009546001600160a01b031690565b6060600b805461063590613a18565b600f54600160b01b900460ff1681565b600082815260016020908152604091829020548251808401909352600683526518181998181960d11b918301919091528391906001600160a01b03166114815760405162461bcd60e51b815260040161070f91906134ec565b506000838152600160208181526040808420546010835293819020815160808101835281548152938101549284019290925260029091015464ffffffffff811691830182905265010000000000900460ff1660608301526001600160a01b03909216913391906115035760405162461bcd60e51b815260040161070f9061352a565b600080600080600061151986604001518b611ef3565b95509550955095509550508386602001516115349190613938565b602087015260006001600160a01b03888116908a161461158357611561876020015183896060015161224a565b9050808510156115835760405162461bcd60e51b815260040161070f90613665565b801561159e576115988760200151828a6111c7565b60208801525b6020870151600f5460405163a9059cbb60e01b81526001600160a01b039091169063a9059cbb906115d5908d9085906004016134c8565b602060405180830381600087803b1580156115ef57600080fd5b505af1158015611603573d6000803e3d6000fd5b505050506040513d601f19601f820116820180604052508101906116279190612eab565b156116425780886020015161163c91906139b2565b60208901525b602088015161167e576116548d6122c8565b60008d81526010602052604081208181556001810191909155600201805465ffffffffffff191690555b7f4ddca1d4cb29f58c85fd2c2abdc0575ef9e3d1a84ce11306969db03fa460b2e78d89604001518c338b8b88888d8d8d6040516116c59b9a9998979695949392919061386f565b60405180910390a150505050505050505050505050565b3360008181526004602090815260408083206001600160a01b038716808552925291829020805460ff191685151517905590519091907f17307eab39ab6107e8899845ad3d59bd9653f200f220920489ca2b5937696c319061173f9085906134e1565b60405180910390a35050565b610b0b85858585858080601f016020809104026020016040519081016040528093929190818152602001838380828437600092019190915250611c2692505050565b600f546001600160a01b031681565b600081815260016020908152604091829020548251808401909352600683526518181998181960d11b9183019190915260609183916001600160a01b03166117f75760405162461bcd60e51b815260040161070f91906134ec565b50600c600b8460405160200161180f939291906133d4565b604051602081830303815290604052915050919050565b600d54630100000090046001600160a01b031681565b600061184984848461224a565b949350505050565b600f54604080516306fdde0360e01b815290516060926001600160a01b0316916306fdde03916004808301926000929190829003018186803b15801561189657600080fd5b505afa1580156118aa573d6000803e3d6000fd5b505050506040513d6000823e601f3d908101601f191682016040526118d29190810190612fc6565b905090565b6001600160a01b03918216600090815260046020908152604080832093909416825291909152205460ff1690565b61190d611ed4565b6001600160a01b031661191e6113fa565b6001600160a01b0316146119445760405162461bcd60e51b815260040161070f906136c6565b6001600160a01b03811661196a5760405162461bcd60e51b815260040161070f906135b1565b6009546040516001600160a01b038084169216907f8be0079c531659141344cd1fd0a4f28419497f9722a3daafe3b4186f6b6457e090600090a3600980546001600160a01b0319166001600160a01b0392909216919091179055565b60106020526000908152604090208054600182015460029092015490919064ffffffffff81169065010000000000900460ff1684565b600e6020526000908152604090205481565b600f54604080516395d89b4160e01b815290516060926001600160a01b0316916395d89b41916004808301926000929190829003018186803b15801561189657600080fd5b600d5462010000900460ff1681565b611a6b81610981565b611a7d816000015182604001516123a6565b600080611a97836040015184606001518560200151612574565b600f5460405163033060d960e41b81529294509092506000916001600160a01b03909116906333060d9090611ad0903090600401613443565b60206040518083038186803b158015611ae857600080fd5b505afa158015611afc573d6000803e3d6000fd5b505050506040513d601f19601f82011682018060405250810190611b209190613113565b9050611b308285608001516125ba565b6000611b3b82612622565b90506000611b52828760a0015188600001516126b7565b90507fdd82c56a97cf24ec0f9b5f94dd7eddd3c47db6864172b8ae03151dab7320d2de8183886000015188888b608001518c60a00151604051611b9b97969594939291906138d7565b60405180910390a1505050505050565b6000818152600160205260409020546001600160a01b0316611bcc82612755565b611bd68183612790565b611be08383612937565b81836001600160a01b0316826001600160a01b03167fddf252ad1be2c89b69c2b068fc378daa952ba7f163c4a11628f55a4df523b3ef60405160405180910390a4505050565b60008281526001602052604090205482906001600160a01b031633811480611c6457506000828152600260205260409020546001600160a01b031633145b80611c9257506001600160a01b038116600090815260046020908152604080832033845290915290205460ff165b604051806040016040528060068152602001650c0c0ccc0c0d60d21b81525090611ccf5760405162461bcd60e51b815260040161070f91906134ec565b50600084815260016020908152604091829020548251808401909352600683526518181998181960d11b918301919091528591906001600160a01b0316611d295760405162461bcd60e51b815260040161070f91906134ec565b50600085815260016020908152604091829020548251808401909352600683526530303330303760d01b918301919091526001600160a01b03908116919089168214611d885760405162461bcd60e51b815260040161070f91906134ec565b5060408051808201909152600681526530303330303160d01b60208201526001600160a01b038816611dcd5760405162461bcd60e51b815260040161070f91906134ec565b50611dd88787611bab565b611dea876001600160a01b03166129fb565b15611eca57604051630a85bd0160e11b81526000906001600160a01b0389169063150b7a0290611e249033908d908c908c90600401613495565b602060405180830381600087803b158015611e3e57600080fd5b505af1158015611e52573d6000803e3d6000fd5b505050506040513d601f19601f82011682018060405250810190611e769190612ee3565b60408051808201909152600681526530303330303560d01b60208201529091506001600160e01b03198216630a85bd0160e11b14611ec75760405162461bcd60e51b815260040161070f91906134ec565b50505b5050505050505050565b3390565b6001600160a01b031660009081526007602052604090205490565b600080600080600080600f60009054906101000a90046001600160a01b03166001600160a01b0316635c9302c96040518163ffffffff1660e01b815260040160206040518083038186803b158015611f4a57600080fd5b505afa158015611f5e573d6000803e3d6000fd5b505050506040513d601f19601f82011682018060405250810190611f829190613113565b600f54604051632607443b60e01b81529197506000918291829182916001600160a01b031690632607443b90611fbe9030908f906004016134c8565b60e06040518083038186803b158015611fd657600080fd5b505afa158015611fea573d6000803e3d6000fd5b505050506040513d601f19601f8201168201806040525081019061200e9190613273565b50509450945050935093508364ffffffffff168c64ffffffffff161461203357600080fd5b68ffffffffffffffffff8316985090955093508484600061205861ffff84168c6139b2565b90508161ffff168161ffff1610156120825760405162461bcd60e51b815260040161070f906136fb565b61208c828261398f565b600f546040516370a0823160e01b81529197506000916001600160a01b03909116906370a08231906120c2903090600401613443565b60206040518083038186803b1580156120da57600080fd5b505afa1580156120ee573d6000803e3d6000fd5b505050506040513d601f19601f820116820180604052508101906121129190613113565b9050600f60009054906101000a90046001600160a01b03166001600160a01b031663343009a28e886040518363ffffffff1660e01b815260040161215792919061385a565b600060405180830381600087803b15801561217157600080fd5b505af1158015612185573d6000803e3d6000fd5b5050600f546040516370a0823160e01b8152600093506001600160a01b0390911691506370a08231906121bc903090600401613443565b60206040518083038186803b1580156121d457600080fd5b505afa1580156121e8573d6000803e3d6000fd5b505050506040513d601f19601f8201168201806040525081019061220c9190613113565b905081811161222d5760405162461bcd60e51b815260040161070f9061369c565b61223782826139b2565b9a50505050505050509295509295509295565b600060ff831661225957611247565b8390508160ff168360ff16111561226f57611247565b6002600061227d85856139c9565b905060005b8160ff168110156122be5761229a60ff841685613950565b93508260ff168410156122ac576122be565b806122b681613a4d565b915050612282565b5050509392505050565b6122d181612a32565b6000818152600660205260408120546005549091906122f2906001906139b2565b905060006005828154811061231757634e487b7160e01b600052603260045260246000fd5b90600052602060002001549050806005848154811061234657634e487b7160e01b600052603260045260246000fd5b600091825260209091200155600580548061237157634e487b7160e01b600052603160045260246000fd5b600082815260208082208301600019908101839055909201909255918152600690915260408082209390935592835250812055565b600f546040516370a0823160e01b81526000916001600160a01b0316906370a08231906123d7908690600401613443565b60206040518083038186803b1580156123ef57600080fd5b505afa158015612403573d6000803e3d6000fd5b505050506040513d601f19601f820116820180604052508101906124279190613113565b9050818110156124495760405162461bcd60e51b815260040161070f9061376d565b600f54604051636eb1769f60e11b81526000916001600160a01b03169063dd62ed3e9061247c9087903090600401613457565b60206040518083038186803b15801561249457600080fd5b505afa1580156124a8573d6000803e3d6000fd5b505050506040513d601f19601f820116820180604052508101906124cc9190613113565b9050828110156124ee5760405162461bcd60e51b815260040161070f90613728565b600f546040516323b872dd60e01b81526001600160a01b03909116906323b872dd9061252290879030908890600401613471565b602060405180830381600087803b15801561253c57600080fd5b505af1158015612550573d6000803e3d6000fd5b505050506040513d601f19601f82011682018060405250810190610b0b9190612eab565b60008060008061258487876112a6565b915091506125938783876111c7565b92506125a283826104a46113fa565b92506125ae8183613938565b93505050935093915050565b600f54604051630a54871760e31b81526001600160a01b03909116906352a438b8906125ec9085908590600401613815565b600060405180830381600087803b15801561260657600080fd5b505af115801561261a573d6000803e3d6000fd5b505050505050565b600f54604051632607443b60e01b815260009182916001600160a01b0390911690632607443b9061265990309087906004016134c8565b60e06040518083038186803b15801561267157600080fd5b505afa158015612685573d6000803e3d6000fd5b505050506040513d601f19601f820116820180604052508101906126a99190613273565b509498975050505050505050565b60118054600091826126c883613a4d565b90915550604080516080810182528281526000602080830182815264ffffffffff808b1685870190815260ff808c166060880190815289875260109095529690942094518555905160018501559151600290930180549151909416650100000000000265ff0000000000199390921664ffffffffff19909116179190911617905590506112478282612af4565b6000818152600260205260409020546001600160a01b031615610a6757600090815260026020526040902080546001600160a01b0319169055565b600081815260016020908152604091829020548251808401909352600683526530303330303760d01b918301919091526001600160a01b038481169116146127eb5760405162461bcd60e51b815260040161070f91906134ec565b50600081815260016020818152604080842080546001600160a01b031916905560088252808420546001600160a01b03871685526007909252832054909291612833916139b2565b90508181146128e6576001600160a01b038416600090815260076020526040812080548390811061287457634e487b7160e01b600052603260045260246000fd5b906000526020600020015490508060076000876001600160a01b03166001600160a01b0316815260200190815260200160002084815481106128c657634e487b7160e01b600052603260045260246000fd5b600091825260208083209091019290925591825260089052604090208290555b6001600160a01b038416600090815260076020526040902080548061291b57634e487b7160e01b600052603160045260246000fd5b6001900381819060005260206000200160009055905550505050565b600081815260016020908152604091829020548251808401909352600683526518181998181b60d11b918301919091526001600160a01b03161561298e5760405162461bcd60e51b815260040161070f91906134ec565b50600081815260016020818152604080842080546001600160a01b0319166001600160a01b038816908117909155808552600783529084208054808501825581865292852090920185905590925290546129e891906139b2565b6000918252600860205260409091205550565b6000813f7fc5d2460186f7233c927e7db2dcc703c0e500b653ca82273b7bfad8045d85a47081158015906118495750141592915050565b600081815260016020908152604091829020548251808401909352600683526518181998181960d11b918301919091528291906001600160a01b0316612a8b5760405162461bcd60e51b815260040161070f91906134ec565b506000828152600160205260409020546001600160a01b0316612aad83612755565b612ab78184612790565b60405183906000906001600160a01b038416907fddf252ad1be2c89b69c2b068fc378daa952ba7f163c4a11628f55a4df523b3ef908390a4505050565b612afe8282612b54565b600580546001818101835560008390527f036b6384b5eca791c62761152d0c79bb0604c104a5fb6f4eb0703f3154bb3db09091018390559054612b4191906139b2565b6000918252600660205260409091205550565b60408051808201909152600681526530303330303160d01b60208201526001600160a01b038316612b985760405162461bcd60e51b815260040161070f91906134ec565b50600081815260016020908152604091829020548251808401909352600683526518181998181b60d11b918301919091526001600160a01b031615612bf05760405162461bcd60e51b815260040161070f91906134ec565b50612bfb8282612937565b60405181906001600160a01b038416906000907fddf252ad1be2c89b69c2b068fc378daa952ba7f163c4a11628f55a4df523b3ef908290a45050565b828054612c4390613a18565b90600052602060002090601f016020900481019282612c655760008555612cab565b82601f10612c7e5782800160ff19823516178555612cab565b82800160010185558215612cab579182015b82811115612cab578235825591602001919060010190612c90565b50612cb7929150612cbb565b5090565b5b80821115612cb75760008155600101612cbc565b80356001600160a01b038116811461062157600080fd5b60008083601f840112612cf8578182fd5b50813567ffffffffffffffff811115612d0f578182fd5b602083019150836020828501011115612d2757600080fd5b9250929050565b805168ffffffffffffffffff8116811461062157600080fd5b803560ff8116811461062157600080fd5b600060208284031215612d69578081fd5b61124782612cd0565b60008060408385031215612d84578081fd5b612d8d83612cd0565b9150612d9b60208401612cd0565b90509250929050565b600080600060608486031215612db8578081fd5b612dc184612cd0565b9250612dcf60208501612cd0565b9150604084013590509250925092565b600080600080600060808688031215612df6578081fd5b612dff86612cd0565b9450612e0d60208701612cd0565b935060408601359250606086013567ffffffffffffffff811115612e2f578182fd5b612e3b88828901612ce7565b969995985093965092949392505050565b60008060408385031215612e5e578182fd5b612e6783612cd0565b91506020830135612e7781613a94565b809150509250929050565b60008060408385031215612e94578182fd5b612e9d83612cd0565b946020939093013593505050565b600060208284031215612ebc578081fd5b815161124781613a94565b600060208284031215612ed8578081fd5b813561124781613aa2565b600060208284031215612ef4578081fd5b815161124781613aa2565b600080600080600080600080600060c08a8c031215612f1c578687fd5b893567ffffffffffffffff80821115612f33578889fd5b612f3f8d838e01612ce7565b909b50995060208c0135915080821115612f57578889fd5b612f638d838e01612ce7565b909950975060408c0135915080821115612f7b578586fd5b50612f888c828d01612ce7565b9096509450612f9b905060608b01612d47565b9250612fa960808b01612d47565b9150612fb760a08b01612d47565b90509295985092959850929598565b600060208284031215612fd7578081fd5b815167ffffffffffffffff80821115612fee578283fd5b818401915084601f830112613001578283fd5b81518181111561301357613013613a7e565b604051601f8201601f19168101602001838111828210171561303757613037613a7e565b60405281815283820160200187101561304e578485fd5b61305f8260208301602087016139ec565b9695505050505050565b600060c0828403121561307a578081fd5b60405160c0810181811067ffffffffffffffff8211171561309d5761309d613a7e565b6040526130a983612cd0565b81526130b760208401612cd0565b6020820152604083013560408201526060830135606082015260808301356130de81613ab8565b60808201526130ef60a08401612d47565b60a08201529392505050565b60006020828403121561310c578081fd5b5035919050565b600060208284031215613124578081fd5b5051919050565b6000806040838503121561313d578182fd5b823591506020830135612e7781613ab8565b60008060008060808587031215613164578182fd5b84359350602085013561317681613ab8565b925061318460408601612cd0565b9396929550929360600135925050565b600080600080600060a086880312156131ab578283fd5b8535945060208601356131bd81613ab8565b93506131cb60408701612cd0565b9250606086013591506131e060808701612d47565b90509295509295909350565b600080604083850312156131fe578182fd5b50508035926020909101359150565b600080600060608486031215613221578081fd5b833592506020840135915061323860408501612cd0565b90509250925092565b600080600060608486031215613255578081fd5b8335925061326560208501612d47565b915061323860408501612d47565b600080600080600080600060e0888a03121561328d578081fd5b875164ffffffffff811681146132a1578182fd5b96506132af60208901612d2e565b95506132bd60408901612d2e565b945060608801516132cd81613ab8565b60808901519094506132de81613ab8565b60a08901519093506132ef81613ab8565b60c089015190925061330081613a94565b8091505092959891949750929550565b600081518084526133288160208601602086016139ec565b601f01601f19169290920160200192915050565b80546000906002810460018083168061335657607f831692505b602080841082141561337657634e487b7160e01b86526022600452602486fd5b81801561338a576001811461339b576133c8565b60ff198616895284890196506133c8565b6133a48861392c565b60005b868110156133c05781548b8201529085019083016133a7565b505084890196505b50505050505092915050565b600066687474703a2f2f60c81b82526133f0600783018661333c565b602f60f81b8152613404600182018661333c565b6517ba37b5b2b760d11b815260068101949094525050676d6574616461746160c01b60268301525064173539b7b760d91b602e82015260330192915050565b6001600160a01b0391909116815260200190565b6001600160a01b0392831681529116602082015260400190565b6001600160a01b039384168152919092166020820152604081019190915260600190565b6001600160a01b038581168252841660208201526040810183905260806060820181905260009061305f90830184613310565b6001600160a01b03929092168252602082015260400190565b901515815260200190565b6000602082526112476020830184613310565b6020808252601190820152706e6f206665657320746f2072656465656d60781b604082015260600190565b6020808252601e908201527f506f727461626c655374616b653a207374616b654964206d697373696e670000604082015260600190565b60208082526030908201527f506f727461626c655374616b653a206e65775374616b6564446179732068696760408201526f686572207468616e206d6178696d756d60801b606082015260800190565b60208082526026908201527f4f776e61626c653a206e6577206f776e657220697320746865207a65726f206160408201526564647265737360d01b606082015260800190565b6020808252601d908201527f506f727461626c655374616b653a20616d6f756e74206973207a65726f000000604082015260600190565b6020808252601d908201527f726577617264537472657463696e67206f7574206f6620626f756e6473000000604082015260600190565b6020808252601f908201527f526577617264206973206c6172676572207468616e207072696e636970616c00604082015260600190565b60208082526010908201526f07374616b65207969656c64203c3d20360841b604082015260600190565b6020808252818101527f4f776e61626c653a2063616c6c6572206973206e6f7420746865206f776e6572604082015260600190565b6020808252601390820152727374616b65206973206e6f74206d617475726560681b604082015260600190565b60208082526025908201527f506f727461626c655374616b653a20616c6c6f77616e636520696e737566666960408201526418da595b9d60da1b606082015260800190565b60208082526021908201527f506f727461626c655374616b653a20496e73756666696369656e742066756e646040820152607360f81b606082015260800190565b6020808252602f908201527f506f727461626c655374616b653a206e65775374616b656444617973206c6f7760408201526e6572207468616e206d696e696d756d60881b606082015260800190565b61ffff91909116815260200190565b90815260200190565b91825261ffff16602082015260400190565b918252602082015260400190565b938452602084019290925264ffffffffff16604083015260ff16606082015260800190565b91825264ffffffffff16602082015260400190565b9a8b5264ffffffffff9990991660208b01526001600160a01b0397881660408b0152959096166060890152608088019390935260a087019190915260c086015260e085015261ffff9182166101008501521661012083015260ff166101408201526101600190565b96875264ffffffffff9590951660208701526001600160a01b039390931660408601526060850191909152608084015261ffff1660a083015260ff1660c082015260e00190565b60ff91909116815260200190565b60009081526020902090565b6000821982111561394b5761394b613a68565b500190565b60008261396b57634e487b7160e01b81526012600452602481fd5b500490565b600081600019048311821515161561398a5761398a613a68565b500290565b600061ffff838116908316818110156139aa576139aa613a68565b039392505050565b6000828210156139c4576139c4613a68565b500390565b600060ff821660ff8416808210156139e3576139e3613a68565b90039392505050565b60005b83811015613a075781810151838201526020016139ef565b83811115610ab15750506000910152565b600281046001821680613a2c57607f821691505b6020821081141561073457634e487b7160e01b600052602260045260246000fd5b6000600019821415613a6157613a61613a68565b5060010190565b634e487b7160e01b600052601160045260246000fd5b634e487b7160e01b600052604160045260246000fd5b8015158114610a6757600080fd5b6001600160e01b031981168114610a6757600080fd5b61ffff81168114610a6757600080fdfea2646970667358221220a3d4584d4628f8298607a8b4e3ea2572ba6ae3a4a1c09c1fdd5da747a3bdad2964736f6c63430008000033",
    "immutableReferences": {},
    "source": "// SPDX-License-Identifier: Christopher Willoch\r\n pragma solidity ^0.8.0;\r\nimport \"../ethereum-erc721/tokens/nf-token-enumerable.sol\";\r\nimport \"../ethereum-erc721/tokens/erc721-metadata.sol\";\r\nimport \"../ethereum-erc721/ownership/ownable.sol\";\r\nimport \"./IStakeable.sol\";\r\nimport \"../Wrapping/IERC20Wrapper.sol\";\r\nimport \"../lib/Reward.sol\";\r\nimport \"../Fees/FeeCollectorBase.sol\";\r\nimport \"../IERC165.sol\";\r\nabstract contract Maintainable is Ownable{\r\n    string public  Name = \"BeStaked\";\r\n    string public  Symbol = \"BSTHEX\";\r\n    string public  Domain = \"bestaked\";\r\n    function setConstants(string calldata n, string calldata s, string calldata d,uint8 ds, uint8 m, uint8 o)external onlyOwner() {\r\n        Name = n;\r\n        Symbol = s;\r\n        Domain = d;\r\n        DEFAULT_REWARD_STRETCHING = ds;\r\n        MAX_REFERRAL_FEE_PERMILLE = m;\r\n        if(o <= MAX_OWNER_FEE_PERMILLE){\r\n            OWNER_FEE_PERMILLE = o;\r\n        }        \r\n    }\r\n    uint8 public constant MIN_REWARD_STRETCHING = 10;\r\n    uint8 public DEFAULT_REWARD_STRETCHING = 60;\r\n    uint8 public constant MAX_REWARD_STRETCHING = 255;\r\n    uint8 public MAX_REFERRAL_FEE_PERMILLE = 100;//10%\r\n    uint8 public constant MAX_OWNER_FEE_PERMILLE = 10;//1%\r\n    uint8 public OWNER_FEE_PERMILLE = 2;//0.2%\r\n}\r\ncontract PortableStake is NFTokenEnumerable,ERC721Metadata,IERC20Wrapper,Maintainable,FeeCollectorBase{\r\n    event PortableStakeStart(\r\n        uint256 tokenId, \r\n        uint256 stakeId,\r\n        address owner,\r\n        uint256 feeAmount, \r\n        uint256 stakedAmount, \r\n        uint16 stakeLength,\r\n        uint8 rewardStretching\r\n    );\r\n     event PortableStakeEnd(\r\n        uint256 tokenId, \r\n        uint256 stakeId,\r\n        address owner,\r\n        address actor,\r\n        uint256 stakedAmount, \r\n        uint256 unStakedAmount, \r\n        uint256 actorRewardAmount, \r\n        uint256 returnedToOwnerAmount, \r\n        uint16 startDay,\r\n        uint16 stakeLength,\r\n        uint8 lateDays\r\n    );\r\n \r\n    struct TokenStore{\r\n         uint256 tokenId;         \r\n         uint256 amount;\r\n         uint40 stakeId;\r\n         uint8 rewardStretching;\r\n     }\r\n     \r\n     StakeableRef/* StakeableToken */ public StakeableTokenContract;\r\n     uint16 public MAX_STAKE_DAYS;\r\n     uint8 public MIN_STAKE_DAYS;\r\n     mapping(uint256 => TokenStore) public idToToken;\r\n     \r\n     constructor (StakeableRef stakeableTokenContract, uint8 minStakeDays, uint16 maxStakeDays) FeeCollectorBase(stakeableTokenContract) {\r\n         StakeableTokenContract = stakeableTokenContract;\r\n         MIN_STAKE_DAYS = minStakeDays;\r\n         MAX_STAKE_DAYS = maxStakeDays;\r\n         supportedInterfaces[0x5b5e139f] = true; // ERC721Metadata\r\n     }\r\n     function getWrappedContract()external override view returns(IERC20){\r\n         return StakeableTokenContract;\r\n     }\r\n     function wrappedSymbol()external override view returns(string memory){\r\n         return StakeableTokenContract.symbol();\r\n     }\r\n     function wrappedName()external override view returns(string memory){\r\n         return StakeableTokenContract.name();\r\n     }\r\n    \r\n    /**Represents the next token id to use. Increment after using.*/\r\n    uint256 public TokenIdCounter = 1;\r\n    /** \r\n     *@dev Returns a descriptive name for a collection of NFTs in this contract. \r\n     *@return _name Representing name.\r\n     */\r\n    function name()external override view returns (string memory _name){ return Name;}\r\n\r\n    /**\r\n   * @dev Returns a abbreviated name for a collection of NFTs in this contract. Not applicable.\r\n   * @return _symbol Representing symbol.\r\n   */\r\n    function symbol() external override view returns (string memory _symbol){return Symbol;}\r\n\r\n    /**\r\n    * @dev Returns a distinct Uniform Resource Identifier (URI) for a given asset. It Throws if\r\n    * `_tokenId` is not a valid NFT. URIs are defined in RFC3986. The URI may point to a JSON file\r\n    * that conforms to the \"ERC721 Metadata JSON Schema\".\r\n    * @return URI of _tokenId.\r\n    */\r\n    function tokenURI(uint256 _tokenId) external override view validNFToken(_tokenId) returns (string memory)  {\r\n        //return \"http://\" + Domain + \"/\" + Symbol + \"/token\" + _tokenId + \"metadata\" + \".json\";\r\n        return string(abi.encodePacked(\"http://\", Domain, \"/\", Symbol, \"/token\",_tokenId, \"metadata\", \".json\"));\r\n    }\r\n    struct MintingInfo{\r\n        address owner;\r\n        address referrer;\r\n        uint256 amount;  \r\n        uint256 fee;\r\n        uint16 stakeDays;\r\n        uint8 rewardStretching;\r\n     }\r\n     /** \r\n    * Takes possession of the amount    \r\n    * Subtracts fees\r\n    * Stakes the amount\r\n    * Mints token\r\n    */\r\n    function mintMaxDays(uint256 amount)external{        \r\n        _mintPS(MintingInfo(address(msg.sender),address(0), amount, 0,MAX_STAKE_DAYS, DEFAULT_REWARD_STRETCHING));\r\n    }\r\n    function mintCustomDays(uint256 amount, uint16 stakeDays) external{\r\n        _mintPS(MintingInfo(address(msg.sender),address(0), amount, 0,stakeDays, DEFAULT_REWARD_STRETCHING));\r\n    }    \r\n    function mintReferred(uint256 amount, uint16 stakeDays, address referrer, uint256 referralFee) external{\r\n        _mintPS(MintingInfo(address(msg.sender),referrer, amount, referralFee,stakeDays, DEFAULT_REWARD_STRETCHING));\r\n       //_mintPS(MintingInfo(address(msg.sender),amount, stakeDays, referrer,referralFee, DEFAULT_REWARD_STRETCHING));\r\n    }\r\n    function mintCustomRewardStretching(uint256 amount, uint16 stakeDays, address referrer, uint256 referralFee, uint8 rewardStretching)external{\r\n        _mintPS(MintingInfo(address(msg.sender),referrer, amount, referralFee,stakeDays, rewardStretching));\r\n        //_mintPS(MintingInfo(address(msg.sender),amount, stakeDays, referrer,referralFee, rewardStretching));\r\n    }\r\n    function _mintPS(MintingInfo memory info)internal{\r\n        //Check input\r\n        _checkInput(info);\r\n\r\n        //Take posession of the amount\r\n        _takePosession(info.owner, info.amount);        \r\n        \r\n        //Calculate stake amount by subtracting fees from the amount \r\n        (uint256 feeAmount, uint256 stakeAmount) = _calculateAndChargeFees(info.amount, info.fee, info.referrer); \r\n             \r\n        //Note current stake count or future stake index\r\n        uint256 stakeIndex = StakeableTokenContract.stakeCount(address(this));        \r\n        //Stake the amount\r\n        _startStake(stakeAmount, info.stakeDays);\r\n        //Get stakeId\r\n        uint40 stakeId = _confirmStake(stakeIndex);        \r\n\r\n        //Record and broadcast\r\n        uint256 tokenId = _mintToken(stakeId, info.rewardStretching, info.owner);\r\n        emit PortableStakeStart(tokenId, stakeId, info.owner, feeAmount, stakeAmount, info.stakeDays, info.rewardStretching);\r\n    }\r\n   \r\n    \r\n    /** Consumes 3 400 gas */\r\n    function _checkInput(MintingInfo memory info) public view{\r\n        require(info.amount > 0, \"PortableStake: amount is zero\");\r\n        require(info.stakeDays >= MIN_STAKE_DAYS, \"PortableStake: newStakedDays lower than minimum\");\r\n        require(info.stakeDays <= MAX_STAKE_DAYS, \"PortableStake: newStakedDays higher than maximum\");        \r\n        require(info.rewardStretching >= MIN_REWARD_STRETCHING, \"rewardStretcing out of bounds\");\r\n        require(info.rewardStretching <= MAX_REWARD_STRETCHING, \"rewardStretcing out of bounds\");\r\n    }     \r\n      \r\n    /** Consumes 20 000 gas */\r\n    function _takePosession(address owner,uint256 amount) internal {\r\n        //Check balance\r\n        uint256 balance = StakeableTokenContract.balanceOf(owner);\r\n        require(balance >= amount, \"PortableStake: Insufficient funds\");           \r\n        //Check allowance\r\n        uint256 allowance = StakeableTokenContract.allowance(owner, address(this));\r\n        require(allowance >= amount, \"PortableStake: allowance insufficient\");\r\n        //Take posession\r\n        StakeableTokenContract.transferFrom(owner, address(this), amount);   \r\n    }    \r\n    \r\n    function calculateReward(uint256 principal,uint8 waitedDays, uint8 rewardStretchingDays)public pure returns (uint256 rewardAmount){\r\n        return Reward.calcExpReward(principal, waitedDays, rewardStretchingDays); \r\n    }\r\n    \r\n     /** Calculates and subtracts fees from principal. Allocates fees for future redemption on this contract. Returns new principal.  */\r\n     function _calculateAndChargeFees(uint256 principal, uint256 requestedReferrerFee, address referrer)internal returns (uint256 feesCharged, uint256 newPrincipal){\r\n        (uint256 referrerFee,uint256 ownerFee) = calculateFees(principal, requestedReferrerFee);\r\n        newPrincipal = chargeFee(principal, referrerFee, referrer);\r\n        newPrincipal = chargeFee(newPrincipal, ownerFee, owner());\r\n        feesCharged = referrerFee + ownerFee;\r\n     }\r\n     /** Caps referrer fee and calculates owner fee. Returns both. */\r\n    function calculateFees(uint256 principal, uint256 requestedReferrerFee) public view returns(uint256 referrerFee, uint256 ownerFee){\r\n        uint256 perMille = principal / 1000;\r\n        uint256 maxReferrerFee = perMille * MAX_REFERRAL_FEE_PERMILLE;\r\n        if(requestedReferrerFee > maxReferrerFee){\r\n            referrerFee = maxReferrerFee;\r\n        }else{\r\n            referrerFee = requestedReferrerFee;\r\n        }\r\n        ownerFee = perMille * OWNER_FEE_PERMILLE;\r\n    }   \r\n    /**Wraps stakeable _stakeStart method */\r\n     function _startStake(uint256 amount, uint16 stakeDays)internal {\r\n        StakeableTokenContract.stakeStart(amount, stakeDays);\r\n    }  \r\n    /** Confirms that the stake was started */\r\n   function _confirmStake(uint256 id)internal view returns (uint40 ){\r\n       (\r\n            uint40 stakeId, \r\n            /* uint72 stakedHearts */,\r\n            /* uint72 stakeShares */, \r\n            /* uint16 lockedDay */, \r\n            /* uint16 stakedDays */,\r\n            /* uint16 unlockedDay */,\r\n            /* bool isAutoStake */\r\n        ) = StakeableTokenContract.stakeLists(address(this), id);\r\n    return stakeId;\r\n   }\r\n   function _mintToken(uint40 stakeId, /* uint256 stakeIndex, */ uint8 stretch, address owner)internal returns (uint256 tokenId){\r\n            tokenId = TokenIdCounter++;\r\n            idToToken[tokenId] = TokenStore(tokenId, /* stakeIndex, */ 0,stakeId, stretch);\r\n            super._mint(owner, tokenId);\r\n    }  \r\n    /** Gets the index of the stake. It is required for ending stake. */\r\n    function getStakeIndex(uint256 tokenId)public view returns (uint256){\r\n\r\n        uint256 targetStakeId = idToToken[tokenId].stakeId;\r\n        uint256 currentStakeId = 0;\r\n        uint256 stakeCount = StakeableTokenContract.stakeCount(address(this));\r\n        for (uint256 i = 0; i < stakeCount; i++) {\r\n            (\r\n                currentStakeId, \r\n            /* uint72 stakedHearts */,\r\n            /* uint72 stakeShares */, \r\n            /* uint16 lockedDay */, \r\n            /* uint16 stakedDays */,\r\n            /* uint16 unlockedDay */,\r\n            /* bool isAutoStake */\r\n            ) = StakeableTokenContract.stakeLists(address(this), i);\r\n            if(currentStakeId == targetStakeId){\r\n                return i;\r\n            }\r\n        }\r\n        return stakeCount;\r\n    }\r\n    /** Ends stake, pays reward, returns wrapped tokens to staker and burns the wrapping token. */\r\n    function settle(uint256 tokenId, uint256 stakeIndex) validNFToken(tokenId) external{\r\n        address owner = idToOwner[tokenId];\r\n        address actor = address(msg.sender);        \r\n        \r\n        TokenStore memory token = idToToken[tokenId];\r\n        require(token.stakeId > 0, \"PortableStake: stakeId missing\");\r\n        (\r\n            /* uint256 currentDay */, \r\n            uint256 stakedAmount,\r\n            uint256 unStakedAmount, \r\n            uint16 startDay,\r\n            uint16 stakeLength,\r\n            uint8 lateDays\r\n        )  = _endStake(token.stakeId, stakeIndex/* token.stakeIndex */);\r\n        //require(unStakedAmount > 0, \"unstaked amount = 0\");\r\n        token.amount = token.amount + unStakedAmount;\r\n        uint256 rewardAmount;\r\n        if(actor != owner){\r\n            rewardAmount = Reward.calcExpReward(token.amount, lateDays, token.rewardStretching); \r\n            require(unStakedAmount >= rewardAmount,\"Reward is larger than principal\");                 \r\n        }\r\n        if(rewardAmount > 0){\r\n            token.amount = chargeFee(token.amount, rewardAmount, actor);\r\n        }        \r\n        uint256 returnedToOwnerAmount = token.amount;\r\n        if(StakeableTokenContract.transfer(owner, returnedToOwnerAmount)){\r\n            token.amount = token.amount - returnedToOwnerAmount;\r\n        }\r\n        if(token.amount == 0){\r\n            _burn(tokenId);\r\n            delete idToToken[tokenId];\r\n        }\r\n        emit PortableStakeEnd(\r\n            tokenId, \r\n            token.stakeId, \r\n            owner, \r\n            msg.sender, \r\n            stakedAmount, \r\n            unStakedAmount,\r\n            rewardAmount,\r\n            returnedToOwnerAmount,\r\n            startDay,\r\n            stakeLength,\r\n            lateDays\r\n        );\r\n    }    \r\n    /** Ends stake and leaves the wrapped token on this contract */\r\n    function _endStake(uint40 id, uint256 index)internal returns(\r\n        uint256 currentDay, \r\n        uint256 stakedAmount,\r\n        uint256 unStakedAmount, \r\n        uint16 startDay,\r\n        uint16 stakeLength,\r\n        uint8 lateDays\r\n        ){\r\n        currentDay = StakeableTokenContract.currentDay();\r\n        //Get the stake details\r\n        (\r\n            uint40 stakeId, \r\n            uint72 stakedHearts,\r\n            /* uint72 stakeShares */, \r\n            uint16 lockedDay, \r\n            uint16 stakedDays,\r\n            /* uint16 unlockedDay */,\r\n            /* bool isAutoStake */\r\n        ) = StakeableTokenContract.stakeLists(address(this), index);\r\n        require(id == stakeId);\r\n        stakedAmount = stakedHearts;\r\n        startDay = lockedDay;\r\n        stakeLength = stakedDays;\r\n        uint16 servedDays = uint16(currentDay - lockedDay);\r\n        require(servedDays >= stakedDays, \"stake is not mature\");\r\n        \r\n        lateDays = uint8(servedDays - stakedDays);\r\n        uint256 initialBalance = StakeableTokenContract.balanceOf(address(this));        \r\n        StakeableTokenContract.stakeEnd(index, stakeId);\r\n        uint256 finalBalance = StakeableTokenContract.balanceOf(address(this));\r\n        require(finalBalance > initialBalance, \"stake yield <= 0\");\r\n        unStakedAmount = finalBalance - initialBalance;\r\n    }\r\n}\r\ncontract PortableStakePerformanceTesting is PortableStake{\r\n    //Token id counter is incremented in all functions. \r\n    //The increment alone is measured in the first function\r\n    //It can then be subtracted from other results to determine the actual gas effect of the rest of function.\r\n    //All tests are done using 200 optimisations\r\n    constructor (StakeableRef stakeableTokenContract, uint8 minStakeDays, uint16 maxStakeDays)\r\n    PortableStake(stakeableTokenContract,minStakeDays,maxStakeDays)\r\n    {}\r\n    /**27 212 gas */\r\n    function incrementTokenIdCounter()external{//\r\n        TokenIdCounter++;\r\n    }\r\n    /**30 612 gas => 3 400 gas*/\r\n    function checkInput(uint256 amount, uint16 stakeDays)external {\r\n        TokenIdCounter++;\r\n        _checkInput(MintingInfo(address(msg.sender),address(0), amount, 0,stakeDays, DEFAULT_REWARD_STRETCHING));\r\n    }\r\n    /**47 610 gas => 20 400 gas*/\r\n    function takePosession(address owner,uint256 amount)external{\r\n        TokenIdCounter++;\r\n        _takePosession(owner, amount);\r\n    }\r\n   /**183 170 gas => 156 000 gas*/\r\n    function mintToken(uint40 stakeId, /* uint256 stakeIndex, */ uint8 stretch, address owner)external{\r\n        TokenIdCounter++;\r\n        _mintToken(stakeId, /* stakeIndex, */ stretch, owner);\r\n    }\r\n    /**73 682 gas => 46 400 gas*/\r\n     function calculateAndChargeFees(uint256 principal, uint256 requestedReferrerFee, address referrer)external{\r\n         TokenIdCounter++;\r\n         _calculateAndChargeFees(principal, requestedReferrerFee, referrer);\r\n     }\r\n    /**111 078 gas => 83 900 gas*/\r\n    function startStake(uint256 amount, uint16 stakeDays)external{\r\n        TokenIdCounter++;\r\n        _startStake(amount, stakeDays);\r\n    }\r\n       /**33 890 gas => 6 600 gas*/\r\n    function confirmStake(uint256 index)external{\r\n        TokenIdCounter++;\r\n        _confirmStake(index);\r\n    }\r\n}",
    "sourcePath": "C:/Users/ulvei/source/bestaked/Bestaked Blockchain/contracts/Stakeable/PortableStake.sol",
    "compiler": {
        "name": "solc",
        "version": "0.8.0+commit.c7dfd78e.Emscripten.clang"
    },
    "schemaVersion": "3.4.0",
    "updatedAt": "2021-07-22T07:40:01.096Z",
    "devdoc": {
        "kind": "dev",
        "methods": {
            "approve(address,uint256)": {
                "details": "Set or reaffirm the approved address for an NFT. This function can be changed to payable.",
                "params": {
                    "_approved": "Address to be approved for the given NFT ID.",
                    "_tokenId": "ID of the token to be approved."
                }
            },
            "balanceOf(address)": {
                "details": "Returns the number of NFTs owned by `_owner`. NFTs assigned to the zero address are considered invalid, and this function throws for queries about the zero address.",
                "params": {
                    "_owner": "Address for whom to query the balance."
                },
                "returns": {
                    "_0": "Balance of _owner."
                }
            },
            "getApproved(uint256)": {
                "details": "Get the approved address for a single NFT.",
                "params": {
                    "_tokenId": "ID of the NFT to query the approval of."
                },
                "returns": {
                    "_0": "Address that _tokenId is approved for."
                }
            },
            "isApprovedForAll(address,address)": {
                "details": "Checks if `_operator` is an approved operator for `_owner`.",
                "params": {
                    "_operator": "The address that acts on behalf of the owner.",
                    "_owner": "The address that owns the NFTs."
                },
                "returns": {
                    "_0": "True if approved for all, false otherwise."
                }
            },
            "name()": {
                "details": "Returns a descriptive name for a collection of NFTs in this contract. ",
                "returns": {
                    "_name": "Representing name."
                }
            },
            "owner()": {
                "details": "Returns the address of the current owner."
            },
            "ownerOf(uint256)": {
                "details": "Returns the address of the owner of the NFT. NFTs assigned to the zero address are considered invalid, and queries about them do throw.",
                "params": {
                    "_tokenId": "The identifier for an NFT."
                },
                "returns": {
                    "_owner": "Address of _tokenId owner."
                }
            },
            "renounceOwnership()": {
                "details": "Leaves the contract without owner. It will not be possible to call `onlyOwner` functions anymore. Can only be called by the current owner. NOTE: Renouncing ownership will leave the contract without an owner, thereby removing any functionality that is only available to the owner."
            },
            "safeTransferFrom(address,address,uint256)": {
                "details": "Transfers the ownership of an NFT from one address to another address. This function can be changed to payable.",
                "params": {
                    "_from": "The current owner of the NFT.",
                    "_to": "The new owner.",
                    "_tokenId": "The NFT to transfer."
                }
            },
            "safeTransferFrom(address,address,uint256,bytes)": {
                "details": "Transfers the ownership of an NFT from one address to another address. This function can be changed to payable.",
                "params": {
                    "_data": "Additional data with no specified format, sent in call to `_to`.",
                    "_from": "The current owner of the NFT.",
                    "_to": "The new owner.",
                    "_tokenId": "The NFT to transfer."
                }
            },
            "setApprovalForAll(address,bool)": {
                "details": "Enables or disables approval for a third party (\"operator\") to manage all of `msg.sender`'s assets. It also emits the ApprovalForAll event.",
                "params": {
                    "_approved": "True if the operators is approved, false to revoke approval.",
                    "_operator": "Address to add to the set of authorized operators."
                }
            },
            "supportsInterface(bytes4)": {
                "details": "Function to check which interfaces are suported by this contract.",
                "params": {
                    "_interfaceID": "Id of the interface."
                },
                "returns": {
                    "_0": "True if _interfaceID is supported, false otherwise."
                }
            },
            "symbol()": {
                "details": "Returns a abbreviated name for a collection of NFTs in this contract. Not applicable.",
                "returns": {
                    "_symbol": "Representing symbol."
                }
            },
            "tokenByIndex(uint256)": {
                "details": "Returns NFT ID by its index.",
                "params": {
                    "_index": "A counter less than `totalSupply()`."
                },
                "returns": {
                    "_0": "Token id."
                }
            },
            "tokenOfOwnerByIndex(address,uint256)": {
                "details": "returns the n-th NFT ID from a list of owner's tokens.",
                "params": {
                    "_index": "Index number representing n-th token in owner's list of tokens.",
                    "_owner": "Token owner's address."
                },
                "returns": {
                    "_0": "Token id."
                }
            },
            "tokenURI(uint256)": {
                "details": "Returns a distinct Uniform Resource Identifier (URI) for a given asset. It Throws if `_tokenId` is not a valid NFT. URIs are defined in RFC3986. The URI may point to a JSON file that conforms to the \"ERC721 Metadata JSON Schema\".",
                "returns": {
                    "_0": "URI of _tokenId."
                }
            },
            "totalSupply()": {
                "details": "Returns the count of all existing NFTokens.",
                "returns": {
                    "_0": "Total supply of NFTs."
                }
            },
            "transferFrom(address,address,uint256)": {
                "details": "Throws unless `msg.sender` is the current owner, an authorized operator, or the approved address for this NFT. Throws if `_from` is not the current owner. Throws if `_to` is the zero address. Throws if `_tokenId` is not a valid NFT. This function can be changed to payable.",
                "params": {
                    "_from": "The current owner of the NFT.",
                    "_to": "The new owner.",
                    "_tokenId": "The NFT to transfer."
                }
            },
            "transferOwnership(address)": {
                "details": "Transfers ownership of the contract to a new account (`newOwner`). Can only be called by the current owner."
            }
        },
        "version": 1
    },
    "userdoc": {
        "kind": "user",
        "methods": {
            "TokenIdCounter()": {
                "notice": "Represents the next token id to use. Increment after using."
            },
            "_checkInput((address,address,uint256,uint256,uint16,uint8))": {
                "notice": "Consumes 3 400 gas "
            },
            "approve(address,uint256)": {
                "notice": "The zero address indicates there is no approved address. Throws unless `msg.sender` is the current NFT owner, or an authorized operator of the current owner."
            },
            "calculateFees(uint256,uint256)": {
                "notice": "Caps referrer fee and calculates owner fee. Returns both. "
            },
            "getApproved(uint256)": {
                "notice": "Throws if `_tokenId` is not a valid NFT."
            },
            "getStakeIndex(uint256)": {
                "notice": "Gets the index of the stake. It is required for ending stake. "
            },
            "mintMaxDays(uint256)": {
                "notice": "Takes possession of the amount     Subtracts fees Stakes the amount Mints token"
            },
            "safeTransferFrom(address,address,uint256)": {
                "notice": "This works identically to the other function with an extra data parameter, except this function just sets data to \"\""
            },
            "safeTransferFrom(address,address,uint256,bytes)": {
                "notice": "Throws unless `msg.sender` is the current owner, an authorized operator, or the approved address for this NFT. Throws if `_from` is not the current owner. Throws if `_to` is the zero address. Throws if `_tokenId` is not a valid NFT. When transfer is complete, this function checks if `_to` is a smart contract (code size > 0). If so, it calls `onERC721Received` on `_to` and throws if the return value is not `bytes4(keccak256(\"onERC721Received(address,uint256,bytes)\"))`."
            },
            "setApprovalForAll(address,bool)": {
                "notice": "This works even if sender doesn't own any tokens at the time."
            },
            "settle(uint256,uint256)": {
                "notice": "Ends stake, pays reward, returns wrapped tokens to staker and burns the wrapping token. "
            },
            "transferFrom(address,address,uint256)": {
                "notice": "The caller is responsible to confirm that `_to` is capable of receiving NFTs or else they may be permanently lost."
            }
        },
        "version": 1
    }
}